:0200000490006A
:100000009812012079030090933200908F2E009077
:100010009132009041070090653C00900000000084
:100020000000000000000000000000007735009094
:1000300051070090000000001D33009079350090BA
:100040009303009093030090930300909303009018
:100050009303009093030090930300909303009008
:1000600093030090930300909303009093030090F8
:1000700093030090930300909303009093030090E8
:1000800093030090930300909303009093030090D8
:1000900093030090930300909303009093030090C8
:1000A00093030090930300909303009093030090B8
:1000B00093030090930300909303009093030090A8
:1000C0009303009093030090930300909303009098
:1000D00093030090593C0090930300909303009089
:1000E000930300909303009000000000930300909E
:1000F0009303009093030090930300909303009068
:100100009303009093030090930300909303009057
:100110009303009093030090930300909303009047
:100120009303009093030090930300909303009037
:100130009303009093030090930300909303009027
:1001400000000000000000000000000000000000AF
:100150009303009093030090930300909303009007
:1001600093030090930300909303009093030090F7
:1001700093030090930300909303009093030090E7
:1001800093030090930300909303009093030090D7
:1001900093030090930300909303009093030090C7
:1001A000692F0090930300904507009093030090FF
:1001B00093030090930300909303009093030090A7
:1001C0009303009093030090930300909303009097
:1001D0009303009093030090930300909303009087
:1001E0009303009093030090930300909303009077
:1001F0009303009093030090930300909303009067
:100200009303009093030090930300909303009056
:100210009303009093030090930300909303009046
:10022000930300909303009093030090000000005C
:10023000930300909303009000000000930300904C
:100240009303009093030090930300909303009016
:100250009303009093030090930300909303009006
:1002600093030090930300909303009093030090F6
:10027000930300909303009093030090000000000C
:1002800093030090930300909303009000000000FC
:10029000000000009303009000F002F800F05CF80A
:1002A0000AA090E8000C82448344AAF10107DA45D1
:1002B00001D100F051F8AFF2090EBAE80F0013F0C7
:1002C000010F18BFFB1A43F001031847E099030020
:1002D000009A03000A444FF0000C10F8013B13F0A1
:1002E000070408BF10F8014B1D1108BF10F8015B8F
:1002F000641E05D010F8016B641E01F8016BF9D182
:1003000013F0080F1EBF10F8014BAD1C0C1B09D1D8
:100310006D1E58BF01F801CBFAD505E014F8016B4A
:1003200001F8016B6D1EF9D59142D6D370470000DC
:100330000023002400250026103A28BF78C1FBD8EE
:10034000520728BF30C148BF0B6070471FB527F068
:1003500014FC1FBD10B510BD00F0C0F91146FFF729
:10036000F5FF22F059FD00F0DEF903B4FFF7F2FFCC
:1003700003BC05F0FDF90000094880470948004723
:10038000FEE7FEE7FEE7FEE7FEE7FEE7FEE7FEE745
:10039000FEE7FEE704480549054A064B70470000A2
:1003A000593600909902009098D2002098120120AE
:1003B00098E2002098E20020704753EA020C00F017
:1003C00069802DE9F04B4FF00006002B1FBFB3FAF8
:1003D00083F503FA05F424FA05F65E4012BF1643CE
:1003E000B2FA82F502FA05F4C5F120051EBF22FA21
:1003F00005FC44EA0C04203556EA044C4FEA144448
:1004000018BF641C4FF000084FF00009904271EBD8
:10041000030C39D3002919BFB1FA81F701FA07F6A5
:10042000B0FA80F700FA07F6C7F120071EBF20FADE
:1004300007FC46EA0C062037B6FBF4FCA7EB0507E1
:10044000103F07F01F0BCBF120060CFA0BFB2CFA28
:1004500006F644BFB3460026202FA4BF5E464FF0E9
:10046000000B5BEA060C08BF4FF0010B19EB0B0900
:10047000ABFB027C48EB0608C01B06FB02CC0BFB67
:1004800003CC71EB0C01C1E70B46024641464846DE
:10049000BDE8F08B13B54FF000004FF00001AFF353
:1004A0000080BDE81C40704740EA0103024630B5B9
:1004B0009B0710D14FF0013400E008C208C91D1B92
:1004C0009D4315EAC41FF8D013F0FF0102F8011B89
:1004D0000DD01B0AF8E711F8013B002B02F8013B95
:1004E00005D011F8013B002B02F8013BF3D130BDE0
:1004F00010B5431C02E010F8011B71B18107FAD15D
:100500004FF0013202C88C1A8C4314EAC211F9D0A0
:10051000C01A0A0603D0C01E10BDC01A10BD0A04BE
:1005200001D0801E10BD0902FCD0401E10BD032A60
:1005300040F2308010F0030C00F0158011F8013B00
:10054000BCF1020F624498BF11F801CB00F8013BE7
:1005500038BF11F8013BA2F1040298BF00F801CBAB
:1005600038BF00F8013B11F0030300F02580083A82
:10057000C0F0088051F8043B083A51F804CBA0E8D9
:100580000810F5E7121D5CBF51F8043B40F8043B2E
:10059000AFF30080D20724BF11F8013B11F801CB63
:1005A00048BF11F8012B24BF00F8013B00F801CB34
:1005B00048BF00F8012B704710B5203AC0F00B80FF
:1005C000B1E81850203AA0E81850B1E81850A0E857
:1005D0001850BFF4F5AF5FEA027C24BFB1E81850B1
:1005E000A0E8185044BF18C918C0BDE810405FEA21
:1005F000827C24BF51F8043B40F8043B08BF70479D
:10060000D20728BF31F8023B48BF11F8012B28BFA1
:1006100020F8023B48BF00F8012B70474FF0000262
:1006200000B5134694469646203922BFA0E80C50E8
:10063000A0E80C50B1F12001BFF4F7AF090728BFC3
:10064000A0E80C5048BF0CC05DF804EB890028BF3F
:1006500040F8042B08BF704748BF20F8022B11F068
:10066000804F18BF00F8012B704700004FF0013C8D
:1006700050F8042B51F8043B9A4215D1A2EB0C031D
:10068000934313EACC130BD150F8042B51F8043BDD
:100690009A4209D1A2EB0C03934313EACC13E7D09F
:1006A0004FF00000704700BFD01A01BAB1FA81F1D3
:1006B00001F0180122FA01F0CB40C1F12001DBB2B8
:1006C000C0B2C01A2CFA01F3D11A914311EAC31136
:1006D000E6D170477047704770477047754600F025
:1006E0002BF8AE4605006946534620F007008546C4
:1006F00018B020B5FFF74EFEBDE820404FF00006D1
:100700004FF000074FF000084FF0000B21F00701F9
:10071000AC46ACE8C009ACE8C009ACE8C009ACE83C
:10072000C0098D46704710B50446AFF300802046DF
:10073000BDE81040FFF719BE0048704738D20020CE
:10074000FEE70000014800F083B80000400B0020E5
:1007500070472DE9F041012417460D46064603F087
:10076000E5F8304600F060F8C0B903F0DFF8BB20D0
:1007700003F054F9012811D16E1E002409E0B4429F
:1007800001D1002000E0012003F0A0F83855641CDE
:10079000E4B2AC42F3D303F0EDF8002403F0EAF83E
:1007A0002046BDE8F081000010B503F07BF9134C42
:1007B00000221021204600F002FD012220460821DF
:1007C00000F0FDFC42F2107002F0E4FF002220462F
:1007D000082100F0F4FC0A4802F0DCFF0122204668
:1007E000082100F0ECFC074802F0D4FF03F046F9C2
:1007F000BDE8104044F6206002F0CCBF0010025863
:10080000F04902003057050070B50D46044603F06C
:100810008DF8204600F008F810B9284603F0FEF8DD
:1008200003F0A8F8002070BD10B5044603F07EF870
:10083000BA2003F0F3F8012807D1200A03F0EEF8FC
:10084000012802D1E0B203F0E9F8002010BD7047A2
:100850002DE9F0470446006800274FF004084FF0E8
:10086000010946680568F10714D0E90512D5036847
:1008700023F480730360606E40F0010060662068BE
:10088000C0F8089084F8618084F86070616A09B1EA
:1008900020468847B00615D5A80413D52068202225
:1008A000036823F40053036020688260606E40F0A8
:1008B0000200606684F8618084F86070616A09B142
:1008C00020468847300715D5280513D5206808220B
:1008D000036823F40063036020688260606E40F068
:1008E0000400606684F8618084F86070616A09B110
:1008F0002046884770070CD568050AD5206802682D
:1009000022F4806202602068C0F80880204600F06F
:100910002DF8B00713D5A80511D520680222036869
:1009200023F40073036020688260606E606684F860
:10093000619084F86070216A09B120468847F0060A
:1009400012D5E80410D52068016821F480510160B7
:10095000226810219160616E616684F86190204682
:1009600084F86070FFF773FFBDE8F0877047000000
:100970002DE9F84F044600F02DFC00903CB194F8AE
:100980003500022806D0802161650020E4E00120C6
:10099000BDE8F88FC74DC74EC649183520683036B8
:1009A000DFF81483DFF814938842DFF814A3DFF82C
:1009B00014B32ED0A8422CD0B0422AD0404528D023
:1009C000484526D0504524D0584522D0BD4A18323B
:1009D00090421ED0BC4A90421BD0BB4A1832904273
:1009E00017D0B94A3032904213D0B74A48329042B9
:1009F0000FD0B54A603290420BD0B34A7832904261
:100A000007D0B14A9032904203D0AF4AA832904208
:100A100009D1026822F01E0202602068426922F0B9
:100A20008002426103E0026822F00E020260276841
:100A30008F4238464DD0A8424BD0B04249D04045B5
:100A400047D0484545D0504543D0584541D09D4AB0
:100A5000183290423DD09C4A90423AD09A4A18327D
:100A6000904236D0984A3032904232D0964A48323C
:100A700090422ED0944A603290422AD0924A7832E4
:100A8000904226D0904A9032904222D08E4AA8328C
:100A900090421ED08D4A90421BD08C4A1432904214
:100AA00017D08A4A2832904213D0884A3C3290426A
:100AB0000FD0864A503290420BD0844A6432904222
:100AC00007D0824A7832904203D0804A8C329742D3
:100AD00004D1206E026822F4807202607549206899
:100AE000884228D0A84226D0B04224D0404522D007
:100AF000484520D050451ED058451CD0714918316A
:100B0000884218D07049884215D06F491831884200
:100B100011D06D49303188420DD06B49483188423F
:100B200009D069496031884205D0674978318842E7
:100B300001D065499031016821F0010101600EE0AA
:100B400000F048FB0099401A052808D92022626568
:100B50000321002084F8351084F8340017E7386842
:100B6000C007EDD1534A0121206890422ED0A842FF
:100B70002CD0B0422AD0404528D0484526D05045F8
:100B800024D0584522D04F4B183398421ED04E4B9C
:100B900098421BD04C4B1833984217D04A4B3033F5
:100BA000984213D0484B483398420FD0464B60339D
:100BB00098420BD0444B7833984207D0424B903345
:100BC000984203D0404BA833984208D194F85C7007
:100BD0003F23A06D07F01F07BB40836007E094F838
:100BE0005C30A06D03F01F0301FA03F3436020683B
:100BF00090424DD0A8424BD0B04249D0404547D05A
:100C0000484545D0504543D0584541D02D4A18322B
:100C100090423DD02C4A90423AD02B4A1832904212
:100C200036D0294A3032904232D0274A4832904258
:100C30002ED0254A603290422AD0234A7832904200
:100C400026D0214A9032904222D01F4AA8329042A8
:100C50001ED01E4A90421BD01C4A1432904217D01C
:100C60001A4A2832904213D0184A3C3290420FD090
:100C7000164A503290420BD0144A6432904207D048
:100C8000124A7832904203D0104A8C3290420BD1F3
:100C9000D4E919024260E06E30B1026822F4807239
:100CA0000260D4E91C024260002084F8351084F808
:100CB00034006DE61000024058000240700002400F
:100CC00088000240A000024010040240085402586C
:100CD0002DE9F05F28B190F83510022904D0802169
:100CE00041650120BDE8F09F904C904B0168183C95
:100CF00018338E4ADFF83C92A1428D4CDFF838E27F
:100D00008E4FDFF83CB2DFF83CA28F4D8F4E31D0D2
:100D100091422FD099422DD0A1422BD0494529D0C4
:100D2000714527D0B94225D0DFF810C20CF1180C5C
:100D300061451FD0DFF808C2ACF1600C614519D0E5
:100D4000DFF8FCC1ACF1480C614513D0DFF8F0C10D
:100D5000ACF1300C61450DD0DFF8E4C1ACF1180CFA
:100D6000614507D0594505D0514503D0A94201D06E
:100D7000B1422CD1DFF8B4C14FF0040880F83580BF
:100D8000ACF1180C61451DD091421BD0994219D08D
:100D9000A14217D0494515D0714513D0B94211D0A1
:100DA0006648183081420DD065486038814209D0CC
:100DB00063484838814205D061483038814201D0CB
:100DC0005F481838086820F001000860ABE0D1F8EF
:100DD00000C02CF00E08DFF854C1C1F80080ACF15F
:100DE000180C0168614527D0914225D0994223D043
:100DF000A14221D049451FD071451DD0B9421BD019
:100E0000DFF838C10CF1180C614515D0DFF830C19E
:100E1000ACF1600C61450FD0DFF824C1ACF1480C97
:100E2000614509D0DFF818C1ACF1300C614503D041
:100E3000DFF80CC1ACF1180CD1F800C02CF0010C9B
:100E4000C1F800C0DFF8E4804FF0010C0168A8F1A0
:100E50001808414546D0914244D0994242D0A1421F
:100E600040D049453ED071453CD0B9423AD0334A92
:100E70001832914236D0324A603A914232D0304AEA
:100E8000483A91422ED02E4A303A91422AD02C4AEA
:100E9000183A914226D0594524D0514522D0A94232
:100EA00020D0B1421ED02A4A91421BD0284A143287
:100EB000914217D0264A2832914213D0244A3C321C
:100EC00091420FD0224A503291420BD0204A6432D4
:100ED000914207D01E4A7832914203D01C4A8C328C
:100EE000914218D1016E0A6822F480720A6090F86B
:100EF0005C20816D02F01F020CFA02F24A60D0E918
:100F000019124A60C16E31B10A6822F480720A6017
:100F1000D0E91C124A600022016D80F835C080F8CB
:100F2000342001B188470020DCE6000028000240A0
:100F3000580002407000024088000240A0000240B9
:100F40007004024088040240A0040240B804024039
:100F50000854025870B5044600F03CF90546601C80
:100F600002D004480078044400F034F9401BA04249
:100F7000FAD370BD040000202DE9F84F03247D4D05
:100F800000234FF001094FF0B04B4FF00F0AE9E09A
:100F900009FA03F73A4076D00E7906F00306012EDF
:100FA00001D0022E18D1D0F808C04FEA430ECE6807
:100FB00004FA0EF82CEA080C06FA0EF646EA0C06BD
:100FC0008660D0F804C00E792CEA070CC6F3001630
:100FD0009E4046EA0C0646600E79F643B6070BD0F3
:100FE000C6684FEA43088F6804FA08FC26EA0C0634
:100FF00007FA08F73743C7600E7906F00306022E9A
:1010000012D1DE080F694FEA437C00EB8606B64634
:10101000366A4FEADC6C0AFA0CF807FA0CF726EA93
:1010200008063743CEF820700F7906684FEA430868
:1010300007F0030704FA08FC07FA08F726EA0C068B
:10104000374307604E6816F4403F1CD04A4E37685D
:1010500047F00207376036689F0706F002060096E1
:1010600023F0030606F1B046B6463F0FD6F80864F3
:10107000DFF808810AFA07FC404526EA0C0603D18E
:101080004FF0000C41E06CE0DFF8F4C0604502D1A5
:101090004FF0010C39E0DFF8ECC0604502D14FF0B1
:1010A000020C32E0DFF8E0C0604502D14FF0030CE3
:1010B0002BE0DFF8D8C0604502D14FF0040C24E0EB
:1010C000DFF8CCC0604502D14FF0050C1DE0DFF821
:1010D000C4C0604502D14FF0060C16E0DFF8B8C07E
:1010E000604502D14FF0070C0FE0DFF8B0C060455B
:1010F00002D14FF0080C08E0DFF8A4C0604502D12F
:101100004FF0090C01E04FF00A0C0CFA07FC4CEA16
:10111000060CCEF808C44F68DBF80060FF0226EA30
:10112000020600D516435F46CBF80060D1F804C034
:10113000DBF804605FEA8C2C26EA020600D5164331
:101140007E606E684F6826EA0206BF0300D516432C
:101150006E602E684F6826EA0206FF0300D516432C
:101160002E605B1C0A6832FA03F67FF411AFBDE80B
:10117000F88F000080000058F44402580000025824
:101180000004025800080258000C025800100258CF
:101190000014025800180258001C0258002002587F
:1011A000002402580069084000D0012070474269BD
:1011B00021EA02030A4043EA0241816170470AB111
:1011C000816170470904FBE701480068000C704723
:1011D0000010005C01488068704700000400002097
:1011E0000248816802781144816070470400002041
:1011F000032010B500F0D0FA01F00EF90F4A1049A3
:1012000014681368C4F3032203F00F038A5CC95CFB
:1012100002F01F0201F01F01D0400A4A20FA01F13A
:101220001160094908600F2000F010F808B1012092
:1012300010BD00F083FA002010BD000018440258D1
:10124000847B0290140000201000002070B50D4D2A
:1012500004462878A0B14FF47A71B1FBF0F00A4946
:101260000968B1FBF0F001F034FC48B9102C07D24A
:1012700000222146501E00F06FFA00206C6070BD05
:10128000012070BD0400002010000020F0B590F88F
:10129000A040012C07D0012680F8A060022480F82D
:1012A000A14000251FE00220F0BD00BF03EB830436
:1012B00004EBC30400EB8404A46C062C1CD00F6860
:1012C000FCB207F47F4C44EA056407F47F0744EA64
:1012D0000C043C4307684FF0C40C0CEBC31C47F8EC
:1012E0000C40091D6D1C9542E0D3002180F8A160DF
:1012F00080F8A0100846F0BDD1F800C005EB051E2F
:101300000CF0FF040CF47F4744EA0E643C430CF4F9
:101310007F0C44EA0C04DDE72DE9F041044690F827
:10132000A00016460F4601281DD0012584F8A050C4
:10133000022084F8A10006EB860000EBC6003422F0
:1013400004EB80003830FFF737F932463946204643
:1013500001F010FE216800204D6284F8A15084F84D
:10136000A000BDE8F0810220FBE710B590F8A020B6
:10137000012A16D0012280F8A020022480F8A14082
:10138000842303EBC11350F8A01BCC5844F0100485
:10139000CC5050F8A03C00215A62427001700846BF
:1013A00010BD022010BD70472DE9F04104460068D1
:1013B00000274FF00408856B466B690715D5710748
:1013C00013D5426B22F0040242632068C0F83C80CF
:1013D000D4F8A40040F00100C4F8A40084F8A1806F
:1013E000204684F8A070FFF7DEFFA80716D5B007E7
:1013F00014D520680222436B23F002034363206864
:10140000C263D4F8A40040F00200C4F8A40084F839
:10141000A180204684F8A070FFF7C5FF05EA06000A
:101420004FF00108C0070ED021684A6B22F001027C
:101430004A632168C1F83C8084F8A180204684F882
:10144000A07000F091F8280710D530070ED520685D
:101450000822436B23F0080343632068C26384F8C7
:10146000A180204684F8A07000F018F9BDE8F08152
:101470002DE9F041040004D094F8A100002518B132
:1014800007E00120BDE8F081204684F8A05000F07C
:101490006DF83448022184F8A110012202CC8B6936
:1014A00023F070438B6194E84A001943E3681E43BC
:1014B00054F8043D31439E693143996121688B683A
:1014C00003408B602168A68AA7698B683B4343EA87
:1014D00006438B602168CB680340CB602168A38BF7
:1014E000276ACE683E4346EA0346CE6021680B6910
:1014F00003400B612368A68CA76A1969394341EA46
:101500000641196121684B6903404B612068A38D36
:10151000266B4169314341EA03414161236894F8F4
:10152000351094F83600DE6A000406F07F46DE626D
:10153000236840EA012094F83460D96A31430143BA
:10154000D9622068416B41F00601416320688169DE
:1015500041F001018161C4F8A45084F8A120002069
:1015600090E7000000F800F070470000F0B587B089
:10157000044614216846FFF751F841492068884223
:101580007BD14048016841F008010160006800F02B
:10159000080005903B48001F016841F0040101600C
:1015A000016801F004010591016841F00101016049
:1015B000016801F001010591016841F0020101603B
:1015C000016801F002010591016841F0100101601C
:1015D000016801F010010591016841F00801016006
:1015E000016801F008010591016841F008010160FE
:1015F00000680E210024029400F0080005900220EB
:101600000125C122CDE90351CDE900201E486946DC
:10161000FFF7B2FC7A2000901C486946FFF7ACFC4B
:101620004FF4784000901A486946FFF7A5FC194E20
:101630004FF47060694600903046FFF79DFC164FEE
:101640004FF48960694600903846FFF795FC032007
:1016500000900921304604916946FFF78DFCEE03A6
:10166000384600223146FFF7AAFD00966946CDE9CB
:10167000015438460394FFF77FFC07B0F0BD00002B
:1016800000100050E44402580008025800000258BC
:101690000010025800040258000C02587047000065
:1016A000154BF0B5083B427813491A600B680A1FC6
:1016B00023F001030B6043681360057BC67A827ACE
:1016C000437B2D07847B45EA0665C77B90F809C0FC
:1016D000067A90F800E045EAC24040EA834040EADA
:1016E000444040EA074040EA0C2040EA460040EA15
:1016F0000E000860F0BD0000A0ED00E0BFF35F8FBA
:10170000044800210368034A23F4803303607032E5
:101710001160704724ED00E0074A40F001000649DF
:1017200070321060086840F480300860BFF34F8F5B
:10173000BFF36F8F7047000024ED00E0054808B547
:10174000016841F002010160006800F002000090B1
:1017500008BD0000F44402580E4BF0B41B680D465F
:10176000C3F30223C3F10706042E00D90426191D72
:10177000072901D2002300E0DB1E012404FA06F150
:101780009C40491E2940641E994014402143F0BCEE
:1017900002F069BA0CED00E0064900F0070210B54E
:1017A0004FF6FF040868044B204040EA022018432B
:1017B000086010BD0CED00E00000FA05134970B59B
:1017C0000A68D243520705D5096801F00701814232
:1017D00013D118E00A6822F0070202430A60FFF7FB
:1017E000F9FC0A4D4FF47A760446083D07E000BF45
:1017F000FFF7F0FC001BB04201D9012070BD286842
:10180000C0438004F4D4002070BD00000C4802588E
:101810002DE9FE4F0546DFF8E48350F8081B00244D
:10182000F64FC943019005F12800264608F1240827
:10183000009008011DD4A86E50B1B0F5801F0CD0E7
:10184000B0F5001F0ED0B0F5401F1ED001240FE0F0
:10185000386840F40030386017E00198022101F048
:101860005FFD03E00098022101F0EAFD04000CD0C6
:1018700026462888C043C00523D4A86D05281ED25B
:10188000DFE800F00C11161B1B00AA6ED8F8001040
:1018900021F440111143C8F80010EAE7386840F419
:1018A0000030386009E00198002101F039FD03E0C3
:1018B0000098002101F0C4FD044674B100E0012449
:1018C00026462888C043800528D4E86D80281ED08D
:1018D0000CDC90B140280ED114E0AA6DD8F80010AD
:1018E00021F007011143C8F80010EAE7C02813D01F
:1018F000B0F5807F10D001240FE0386840F400304C
:10190000386009E00198002101F00AFD03E0009829
:10191000002101F095FD04469CB126462888DFF899
:10192000DC92C04309F12C0940052CD4D5F8A8005D
:10193000B0F5800F20D00DDCA0B1B0F5001F0FD1A5
:1019400015E0EA6DD8F8001021F4E0711143C8F8F1
:101950000010E3E7B0F5C00F13D0B0F5000F10D0C2
:1019600001240FE0386840F40030386009E0019845
:10197000002101F0D5FC03E00098002101F060FD9A
:1019800004467CB126462888C04300052DD4D5F8EE
:10199000AC00B0F1007F21D00EDCA8B1B0F1807FA7
:1019A00010D116E0D5F8A820D9F8001021F4600174
:1019B0001143C9F80010E6E7B0F1407F13D0B0F151
:1019C000806F10D001240FE0386840F40030386098
:1019D00009E00198002101F0A3FC03E00098002138
:1019E00001F02EFD044674B126462868C0438001EC
:1019F0001FD4E86CD8B110280FD0202812D030287E
:101A000015D0012414E0D5F8AC20D9F8001021F04D
:101A1000E0611143C9F80010E7E7386840F400308E
:101A2000386004E00198022101F07AFC044674B1A8
:101A300026462888C043C0042BD4286EB0F5005F2A
:101A400020D00DDCA0B1B0F5805F0FD115E06B4860
:101A5000EA6C2030016821F0300111430160E8E7B1
:101A6000B0F5405F13D0B0F5804F10D001240FE0E7
:101A7000386840F40030386009E00198002101F036
:101A80004FFC03E00098002101F0DAFC04468CB121
:101A900026462888C043800429D4686EB0F5403FAC
:101AA00023D010DC08B3B0F5803F14D0B0F5003F70
:101AB0000FD115E02A6ED8F8001021F4E04111434F
:101AC000C8F80010E5E7B0F5802F0ED0B0F5A02FD4
:101AD0000BD001240AE00198012101F021FC03E070
:101AE0000098012101F0ACFC044694B126462888F8
:101AF000C04340042AD4D5F8B000B0F1405F23D0F1
:101B000010DC08B3B0F1805F14D0B0F1005F0FD1EA
:101B100015E06A6ED8F8001021F4E0211143C8F8EE
:101B20000010E4E7B0F1804F0ED0B0F1A04F0BD021
:101B300001240AE00198012101F0F2FB03E0009882
:101B4000012101F07DFC044674B126462888C0437B
:101B500000041FD4286FD8B1B0F1805F0ED0B0F16F
:101B6000005F10D0012414E0D5F8B020D9F800109F
:101B700021F0E0411143C9F80010E7E7386840F46C
:101B80000030386004E00198012101F0C9FB0446EF
:101B900074B126462868C043C0011ED4A86CD0B1D9
:101BA00001280ED0022811D0032814D0012413E0FC
:101BB0002A6FD8F8001021F040511143C8F80010E6
:101BC000E8E7386840F40030386004E0019802210A
:101BD00001F0A6FB0446ACB126462868DFF81CB02D
:101BE000C043ABF11C0B400252D40548016841F4DC
:101BF00080710160FFF7EEFA824611E02C44025832
:101C000000480258FA48AA6C016821F00301114308
:101C10000160E2E7FFF7DEFAA0EB0A00642835D89E
:101C2000F4480068C005F5D58CBBDFF8C4A3B5F84F
:101C3000B4100AF1240ADAF8000001F4407100F44B
:101C40004070884211D0DAF80010DAF8002021F450
:101C5000407142F48032CAF80020DAF8002022F401
:101C60008032CAF80020CAF80010D5F8B400B0F5E8
:101C7000807F1AD1FFF7AEFA029012E0FFF7AAFABE
:101C80000299411A41F2883081420AD9032426463A
:101C90002878DFF85CA3C0430AF1080AC00721D006
:101CA0003CE0DAF800008007E8D5D5F8B410C1F3BD
:101CB0000120032858460DD0016821F47C510160B1
:101CC000B5F8B420DAF80010C2F30B021143CAF8D9
:101CD0000010DDE7C84A036802EA111223F47C51C0
:101CE0001143ECE7E86F182816D005DCA0B10828EE
:101CF00008D0102804D10AE020280DD028280BD0C5
:101D000001240AE00198012101F00AFB03E0009898
:101D1000012101F095FB044664B126462878C043B2
:101D200080071ED4A86F062819D2DFE800F0160C31
:101D300011161616EA6FDAF8001021F03801114377
:101D4000CAF80010EAE70198012101F0E9FA03E07E
:101D50000098012101F074FB04467CB100E00124ED
:101D600026462878C04340071FD4D5F8940006289B
:101D700019D2DFE800F0160C11161616AA6FDAF861
:101D8000001021F007011143CAF80010E9E701989B
:101D9000012101F0C5FA03E00098012101F050FB98
:101DA0000446A4B100E0012426462878C0438006FA
:101DB0002BD4D5F89000B0F1405F24D011DC10B3E3
:101DC000B0F1805F15D0B0F1005F10D116E0D5F80A
:101DD0009420D9F8001021F007011143C9F8001030
:101DE000E3E7B0F1804F0ED0B0F1A04F0BD001244B
:101DF0000AE00198002101F093FA03E00098022123
:101E000001F01EFB044694B126462878C0434006E4
:101E10002BD4D5F89C00B0F5406F24D011DC10B362
:101E2000B0F5806F15D0B0F5006F10D116E0D5F881
:101E30009020DAF8001021F0E0411143CAF80010B8
:101E4000E3E7B0F5805F0ED0B0F5A05F0BD00124C2
:101E50000AE00198002101F063FA03E000980221F2
:101E600001F0EEFA044694B126462878C0430006F5
:101E70002BD4D5F8A000B0F5C04F24D011DC10B39E
:101E8000B0F5005F15D0B0F5804F10D116E0D5F851
:101E90009C20D9F8001021F4E0511143C9F800103A
:101EA000E3E7B0F5004F0ED0B0F5204F0BD0012482
:101EB0000AE00198002101F033FA03E000980221C2
:101EC00001F0BEFA044654B126462878C043000704
:101ED0001ED4D5F88400B0F5805F0AD00FE0D5F8A5
:101EE000A020D9F8001021F460411143C9F8001076
:101EF000EBE70098022101F0A3FA00B10126D5F822
:101F00008420DAF8001021F440511143CAF800107F
:101F10002878C043C00613D4D5F89800B0F5807F68
:101F200005D10098022101F08BFA00B10126D5F805
:101F30009820D9F8001021F440711143C9F800101D
:101F40002868C043000316D4D5F8A40038B1B0F512
:101F5000803F09D0B0F5003F0BD001240AE0019882
:101F6000002101F0DDF903E00098022101F068FA98
:101F700004468CB126462868C043400322D4D5F8D5
:101F80008800B0F5801F11D0B0F5001F13D0B0F558
:101F9000401F15D0012414E0D5F8A420D9F8001072
:101FA00021F440311143C9F80010E4E7386840F4E7
:101FB0000030386004E00098012101F041FA044645
:101FC0005CB126462868C043C00323D4286DA8B15D
:101FD000B0F5803F17D001241BE0D5F88820DAF84F
:101FE000001021F440111143CAF80010EAE7000084
:101FF0004C44025800480258CFFFFF00386840F4B4
:102000000030386004E00198022101F089F90446AB
:10201000E4B126462868C043800005D40098022118
:1020200001F00EFA00B101262868C04380031BD4DA
:10203000D5F88000B0B1B0F5807F0FD0B0F5007F4B
:1020400010D0B0F5407F0DD001240CE05A482A6D25
:10205000016821F4803111430160DBE7386840F406
:1020600000303860ECB326462868C043C00207D46D
:102070006A6FD8F8001021F000411143C8F8001031
:102080002868C043C00008D4D5F8B820DBF8001099
:1020900021F480411143CBF800102868C04380022E
:1020A00007D4EA6ED8F8001021F080711143C8F807
:1020B00000102868C04340000CD4DBF8001021F465
:1020C0000041CBF80010DBF80010D5F8BC2011431C
:1020D000CBF800102868C04308D437486A6D0168FF
:1020E00000E018E021F04051114301602868C0432E
:1020F000000208D4D5F88C20DAF8001021F4400151
:102100001143CAF8001028790024C04300F00100F0
:1021100020430AD00FE0D5F88020DAF8001021F42F
:1021200040711143CAF800109EE70198002101F0A8
:10213000F7F800B106462879C04300F002002043BA
:1021400005D10198012101F0EBF800B1064628798C
:10215000C04300F00400204305D10198022101F0A2
:10216000DFF800B106462879C04300F0080020439C
:1021700005D10098002101F063F900B106462879E5
:10218000C04300F01000204305D10098012101F068
:1021900057F900B106462879C04300F020000443F7
:1021A00004D10098022101F04BF900B916B10120C9
:1021B000BDE8FE8F0020FBE74C4402582DE9F05F9C
:1021C00004000F467ED0DFF83882D8F8000000F017
:1021D0000F00B8420CD2D8F8001021F00F0139439B
:1021E000C8F80010D8F8000000F00F00B84269D11C
:1021F0002078844D40070AD52069296801F07001D4
:10220000884204D9296821F07001014329602078AF
:102210007C4E361D00070AD56069316801F07001F7
:10222000884204D9316821F070010143316020787F
:10223000C0060AD5A069316801F4E061884204D97A
:10224000316821F4E061014331602078DFF8B4B1F6
:1022500080060BF1080B0CD5E1695846DBF800202D
:1022600002F07002914204D9026822F070020A431F
:102270000260207880070AD5E068296801F00F0124
:10228000884204D9296821F00F0101432960207890
:10229000C0073ED05B49A2682868183920F47060F6
:1022A000104328606068022818D0032819D00968F4
:1022B000012819D0490700294ADADFF848A1AAF114
:1022C000080A00E044E0DAF8002022F007020243A6
:1022D000CAF80020FEF77EFF814612E009688903F4
:1022E000E9E709688901E6E7C905E4E7FEF772FF57
:1022F000A0EB090141F28830814202D90320BDE8F8
:10230000F09F6168DAF8000000F03800B0EBC10F10
:10231000ECD1207880070AD5E068296801F00F0128
:10232000884204D2296821F00F0101432960D8F8BE
:102330000010404601F00F01B9420BD9016821F0AD
:102340000F0139430160006800F00F00B84201D06E
:102350000120D4E7207840070AD52069296801F0D8
:102360007001884204D2296821F07001014329607C
:10237000207800070AD56069316801F07001884251
:1023800004D2316821F07001014331602078C00629
:102390000AD5A069316801F4E061884204D231684D
:1023A00021F4E06101433160207880060CD5E169B9
:1023B0005846DBF8002002F07002914204D2026815
:1023C00022F070020A43026000F026F80E492A68E3
:1023D0002B68C2F3032203F00F038A5CC95C02F08E
:1023E0001F0201F01F01D040084A20FA01F11160DC
:1023F0000749086007480068BDE8F05FFEF726BFA0
:102400000020005218440258847B029014000020DF
:102410001000002008000020454970B545480968B3
:10242000434B103B11F0380208D00111082A03D0A9
:10243000102A0BD0182A0BD0084670BD19688906DF
:10244000FBD51968C1F3C101C84070BD3A4870BDE1
:102450003749374D18310C1D24350A68096826683C
:102460002D6802F0030406F00102C1F30511C5F363
:10247000CC0515FB02F200EE102AB8EE400AE9B3D3
:102480002F4ADFED2E0AB7EE001A6CB1DFED2D1AE0
:10249000012C01D0022C43D002EE101A1068F8EE85
:1024A000422A81EEA22A1EE01C68A40611D51B68F0
:1024B00001EE901A1168C3F3C103F8EE612AD84007
:1024C00001EE900AC1F30800F8EE611A81EEA22A2B
:1024D0000BE001EE901ADFED1C2A00BFF8EE611A46
:1024E000106882EEA12AC0F3080001EE900AF8EE0F
:1024F000611A40EE201A31EE810A00E015E022EE6A
:10250000000A1068C0F34620401C00EE900AF8EE66
:10251000600A80EE201ABCEEC10A10EE100A70BDEF
:1025200001EE901ADFED092AD8E7002070BD000007
:10253000104402580090D00340787D01000000391B
:10254000304402580024744A0024744C20BCBE4B12
:102550002DE9F05F04007DD0FF4F2078FE4D183745
:10256000DFF8F493103DC00748D0D9F8000039686F
:1025700000F03800102815D0182803D101F003000E
:1025800002280FD06068B0F5803F12D010B1B0F5CE
:10259000A02F18D0286820F480302860286820F404
:1025A000802009E02868800328D560680028D2D000
:1025B00024E0286840F480302860606888B1FEF725
:1025C00009FE064609E0286840F480202860F0E70C
:1025D000FEF700FE801B64286FD828688003F7D5BB
:1025E0000CE0FEF7F7FD064605E000BFFEF7F2FD42
:1025F000801B6428F0D828688003F7D4207841F243
:102600000308D54E0C3E800769D5D9F8000039681B
:1026100010F038000ED0182801D188070AD0E068E1
:1026200090B3296821F0190101432960FEF7D2FD1A
:10263000824631E02868400702D5E06800288AD049
:10264000E168286820F0190008432860FEF7C2FD01
:10265000824607E0DFE000BFFEF7BCFDA0EB0A000A
:102660000228B9D828684007F6D500BFFEF7ACFDB0
:1026700040451BD82069402812D0316821F47C31B4
:1026800041EA003030602AE018E000BFFEF7A2FD0A
:10269000A0EB0A0002289FD828684007F6D5E5E796
:1026A000306820F47C3040F40030EBE7207C316867
:1026B00021F0FE4141EA0060E4E70DE1286820F0E6
:1026C00001002860FEF786FD824605E0FEF782FDE8
:1026D000A0EB0A0002288DD828684007F6D420789D
:1026E000C0065DD5D9F80000DFF86CB2396800F09B
:1026F0003800ABF1040B082810D0182803D101F0E2
:10270000030001280AD0E0690028286838D040F08A
:1027100080002860FEF75EFD824623E02868C00541
:1027200023D5E069802876D11FE0206A202821D0B7
:10273000316821F0F84141EA8060306030E000BF4C
:1027400094F82010DBF8002022F07C5242EA01616C
:10275000CBF8001024E000BFFEF73CFDA0EB0A0020
:10276000022898D82868C005F6D5FEF72DFD40450B
:10277000E6D8DAE7306820F0F84040F08040DCE747
:1027800020F080002860FEF725FD064605E000BF2A
:10279000FEF720FD801B02289DD82868C005F7D4CD
:1027A0002078000729D56C4861696430002980468B
:1027B000016811D041F001010160FEF70BFD0646F2
:1027C00005E000BFFEF706FD801B0228C9D8D8F837
:1027D00000008007F6D510E021F001010160FEF74E
:1027E000F9FC064605E000BFFEF7F4FC801B02285A
:1027F00072D8D8F800008007F6D42078800623D558
:10280000A0690028286810D040F480502860FEF7A6
:10281000E1FC064605E036E1FEF7DCFC801B022801
:102820005AD828688004F7D50EE020F4805028603C
:10283000FEF7D0FC064604E0FEF7CCFC801B022825
:102840004AD828688004F7D4207840074FD5DFF8AD
:102850000C81D8F8001041F48071C8F80010FEF720
:10286000B9FC064605E000BFFEF7B4FC801B6428F7
:1028700032D8D8F80000C005F6D5374EA0686036CB
:1028800001280AD008B1052813D0306820F00100D3
:102890003060306820F0040002E0306840F0010051
:1028A0003060A06841F2883A90B1FEF793FC804610
:1028B0000AE0306840F004003060EEE7FEF78AFC82
:1028C000A0EB0801514507D830688007F6D50EE027
:1028D000FEF780FC804607E084E000BFFEF77AFC4C
:1028E000A0EB080151457DD830688007F6D4606AB6
:1028F000B0B3DFF86480D9F8001008F120084FF673
:10290000F87B08F10409C1F3C2010329A8F1040A04
:1029100069D00228286820F08070286003D0FEF774
:1029200059FC044684E0FEF755FC064605E000BF6E
:10293000FEF750FC801B022877D828688001F7D466
:10294000E26A40F2F331386854F8283F884340EA9D
:1029500002101843386004E010440258004802583E
:10296000B5E0217B434622894FF4FE0C208A4FF0CC
:10297000FE474902267D521E401EA1F50071C2F39A
:1029800008088AB2761E0CEA004042EA08020243B6
:10299000504607EA06610A431A60DAF8002022F07E
:1029A0000102CAF80020D9F80020266A22EA0B02A8
:1029B00042EAC602C9F80020DAF80010A26921F044
:1029C0000C011143CAF800100168E26921F002010C
:1029D00011430160016841F480310160016841F4F4
:1029E000003101E021E027E00160016841F480212D
:1029F0000160016841F001010160286840F08070C9
:102A00002860FEF7E7FB044605E000BFFEF7E2FBA7
:102A1000001B022809D828688001F7D557E000BFBD
:102A2000FEF7D8FB001B022802D90320BDE8F09F67
:102A300028688001F4D44AE039680128D8F80000F9
:102A400021D0A26A01F0030393421CD1E26AC1F3D0
:102A500005118A4217D1216BC0F30802491E8A4230
:102A600011D1616BC0F34622491E91420BD1A16B7B
:102A7000C0F30642491E914205D1E16BC0F30660E6
:102A8000491E814201D00120D0E7A16C4E46D9F801
:102A90000000C0F3CC00814219D0DAF8000055469E
:102AA00020F00100CAF80000FEF794FB4FEA00078F
:102AB000FEF790FBB842FBD0A26C306820EA0B0016
:102AC00040EAC2003060286840F001002860002021
:102AD000ACE7401EB0F1807F10B501D3012010BDDE
:102AE0004FF0E02460610F21601701F0BCF8002076
:102AF000A0610721216110BD704770477047704782
:102B0000704700002DE9F04107680025044640F6B3
:102B10000F030226F8693968BA6818420AD1830699
:102B20007ED501F0200302F0805C53EA0C0377D0DD
:102B3000616F74E1CF4BDFF840C3134001EA0C0C26
:102B400053EA0C0C6CD05FEAC07C0CD05FEAC15C2D
:102B500009D54FF0010CC7F820C0D4F8907047F0A9
:102B60000107C4F89070870709D5D70707D02768F1
:102B70003E62D4F8906046F00406C4F890604607C0
:102B80000AD5D60708D0276804263E62D4F890609C
:102B900046F00206C4F8906006070CD501F0200646
:102BA0001E4308D0266808233362D4F8903043F0DF
:102BB0000803C4F8903003050BD54B0109D52668EE
:102BC0004FF400633362D4F8903043F02003C4F82C
:102BD0009030D4F89030002B3DD0800609D501F01C
:102BE000200002F08051084303D0616F09B12046F4
:102BF00088472168D4F890008968490602D410F00B
:102C0000280F2AD0204600F0FDFF2068806840068B
:102C10001ED52068083050E8001F21F0400100E078
:102C200021E040E80012002AF3D1D4F8800078B106
:102C300092490165D4F88000FEF74AF800280AD0CE
:102C4000D4F88000016D00E02046BDE8F04108475F
:102C50002046FFF755FFBDE8F0812046FFF750FF03
:102C6000C4F89050F7E7D4F86CC02023BCF1010FF2
:102C70007ED15FEAC06C7BD55FEAC16C78D510204D
:102C8000386220688068400673D5D4F880107C4A8A
:102C90000868904234D07A4A1832904230D0784A4C
:102CA000303290422CD0764A4832904228D0744A32
:102CB0006032904224D0724A7832904220D0704ADA
:102CC000903290421CD06E4AA832904218D06D4A81
:102CD000904215D06B4A1832904211D0694A303276
:102CE00090420DD0674A4832904209D0654A60321E
:102CF000904205D0634A7832904201D0614A9032C6
:102D000040680004000CA6D0B4F85C208242A2D92E
:102D1000A4F85E00C869B0F5807F2FD0216851E823
:102D2000000F20F4807041E80002002AF6D12068EC
:102D3000083050E8001F21F0010140E80012002A8D
:102D4000F5D12068083050E8001F21F0400140E82C
:102D50000012002AF5D1C4F88C30E566216851E8EC
:102D6000000F20F0100041E80002002AF6D101E037
:102D700040E00BE0D4F88000FDF7FAFD2667B4F8D8
:102D80005C00B4F85E10401A81B22FE0B4F85C0029
:102D9000B4F85E10B4F85E20401A81B2002AB2D0B6
:102DA0000029B0D0226852E8000F20F4907042E869
:102DB0000007002FF6D1344F206800F1080050E8DA
:102DC000002F02EA070240E8002CBCF1000FF3D10B
:102DD000C4F88C30E5666567206850E8002F22F063
:102DE000100240E80023002BF6D126672046FFF7AB
:102DF00083FE30E7C60209D5560207D54FF480108E
:102E000038622046BDE8F041FFF779BE06060AD5D4
:102E100001F0800602F40002164304D0A16F0029DD
:102E20007FF412AF17E7420611D54A060FD52046A8
:102E3000026852E8001F21F0400142E80014002C13
:102E4000F6D1C0F88830856700F020F803E7020269
:102E500006D54A0004D52046BDE8F041FFF74EBE36
:102E6000C001C6D50029C4DA2046BDE8F041FFF70D
:102E700044BE00000100001020010004F13B00905E
:102E80001000024010040240FEFFFFEF7047FEE713
:102E900000B587B014216846FDF7C0FB0A480168F9
:102EA00041F00401016000680021012200F00400EB
:102EB00005904FF400508DE8070004486946FEF77E
:102EC0005BF807B000BD0000E0440258000802585B
:102ED000F0B5114C01EBC10707EB0117059E00256A
:102EE000216843EA0243C2F5487200EB471021F023
:102EF0000101216005212560E16125612264E66010
:102F000000F11050E0636364206840F0010020602D
:102F10002068C007FCD1F0BD0010005210B586B08B
:102F200014216846FDF77AFB0D48016841F0040161
:102F30000160006800220B4C022100F004000590A3
:102F40002046FEF73CF90021022000900122204695
:102F5000CDE9012103916946FEF70EF806B010BDD8
:102F6000E0440258000802580148FEF71DBA00006C
:102F7000A80B00202DE9FE4F814600688824934667
:102F80008D888C2204EBCB178A46C3689421BE46F9
:102F9000C459C3F30B432B4404F470441F0401973A
:102FA00002EBCB1240F80E4001EBCB13DAF80070C5
:102FB0009C214FF0AC0C01EBCB1440F20771029155
:102FC0000CEBCB11D9F800C098250020CDF800C03B
:102FD000A02605EBCB15DCF80CC006EBCB16CCF32A
:102FE0000B4C0CF1010C07EB0C08DDF800C0019F45
:102FF00048EA07084CF80E80D9F80070BAF80CC0FF
:10300000B846FF68C7F30A0767444FEA074E58F807
:10301000027007F4704C48F802C0D9F800C0DAF822
:103020000870DCF80C80C8F30A0808F10108B844FD
:1030300048EA0E084CF80280D9F80020D75827F04B
:103040000707D750D9F80070DAF81020FA509AF82C
:1030500031209AF818304FEA022C9AF832201204E4
:1030600042EA0362D9F800301F5918519AF83030FB
:1030700043EA0C031343D9F800201351D9F8002078
:10308000535923F0FF035351D9F80020DAF81430D4
:103090005351D9F800209359029CA3439351D9F876
:1030A0000030DAE9072422439A51D9F80020535816
:1030B0005050D9F80020DAF824005050DAF8100007
:1030C000C8B301283AD004283AD0022838D00328BF
:1030D00036D0072834D00120D9F80030B02505EBD0
:1030E000CB11B42284245D5802EBCB1205F0E0250D
:1030F0005D50DAE9003504EBCB14EB1ABAF828502E
:1031000043434543D9F80000DB1D43EA05434350E0
:10311000D9F8000081586FF30A018150D9F80000F6
:10312000DAF82C108150D9F80000015941F0010162
:103130000151BDE8FE8FFFE70420CDE70320CBE778
:103140000220C9E71FB5FEF7D9FA00208DF80F005D
:1031500001218DF80E1012228DF8082003238DF81E
:103160000B308DF800104FF010548DF80D008DF8D5
:103170000A0001948DF801008DF809008DF80C000B
:103180006846FEF78DFA0420FEF7C6FA1FBD000060
:10319000F0B5ADF23C4D002434210DF58060FDF713
:1031A0003DFA3748016841F01001016000680025D0
:1031B00035495022334B00F01000CDF83404022082
:1031C0004FF45C7640F20A270B602A234D604FF4DF
:1031D000087E8D604FF4876CCD600D614D611831B4
:1031E00081E8CD508D774D7727480D77FEF740F970
:1031F0000522CDF810244FF4F071CDF80C14CDF861
:1032000020240DF585624FF44870CDF800544FF03E
:103210001057CDF80404CDF82474FF23CDF80854DA
:103220004FF4806603C20DF2144000220DF5806158
:1032300080E868008DF830548DF8315412488DF8CC
:103240003254FEF769F86D46204600F089F9611C9A
:1032500045F824008CB2FF2CF6D90B4800234FF41C
:1032600080726946FEF712F807480021FEF77DF8E4
:1032700001220648D103FDF7A2FF0DF23C4DF0BD3F
:10328000D444025800100050A80B0020000C025833
:10329000FEE7FEE710B586B014216846FDF7BEF9DB
:1032A0001B48016841F010010160016801F0100144
:1032B0000591016841F01001016000680221154C80
:1032C000102200F0100005900020CDE901016946B0
:1032D000009203902046FDF74FFE082069460090BB
:1032E0002046FDF749FE4FF47A6000F053FA0821BA
:1032F0002046FDF757FF012808D010212046FDF792
:1033000051FF012802D004490120087006B010BD09
:10331000E0440258001002580000002070470000EE
:103320002DE9F047454D044689464FF0000A2868CC
:10333000C04380070AD0414E283E306820F08060AC
:103340003060FDF747FF0746B04608E00120BDE8C2
:10335000F08700BFFDF73EFFC01B022867D8D8F8F2
:1033600000000001F6D4206829684FF4FE0721F41C
:103370007C313E0241EA00302860207AA389B4F80B
:1033800004C040022D4D2D495B1E227CACF1010C86
:103390001035091DA0F5007080B2521ECCF3080C48
:1033A00007EA034340EA0C00184306EA02621043AE
:1033B00028600868626920F0C000104308600A684D
:1033C000A06922F0200202430A60281D0A6822F048
:1033D00010020A6002684FF6F873E4699A4342EA01
:1033E000C40202600868B9F1000F40F010020A60E0
:1033F00011D00868B9F1010F11D040F40010086035
:10340000D8F80000444640F08060C8F80000FDF79E
:10341000E1FE05460DE0086840F40020EFE740F4C7
:103420008010ECE7FDF7D6FE401B022801D90320EF
:103430008DE720680001F5D5504688E728440258FA
:103440002DE9F047454D044689464FF0000A2868AB
:10345000C04380070AD0414E283E306820F080509B
:103460003060FDF7B7FE0746B04608E00120BDE832
:10347000F08700BFFDF7AEFEC01B022867D8D8F862
:1034800000008000F6D4208829684FF4FE0721F060
:103490007C713E0241EA00502860207AA389B4F88A
:1034A00004C040022D4D2D495B1E227CACF1010C65
:1034B0001835091DA0F5007080B2521ECCF3080C1F
:1034C00007EA034340EA0C00184306EA026210438D
:1034D00028600868626920F44060104308600A6848
:1034E000A06922F4007202430A60281D0A6822F4CF
:1034F00080720A6002684FF6F873E4699A4342EA00
:10350000C40202600868B9F1000F40F480720A60DA
:1035100011D00868B9F1010F11D040F08070086037
:10352000D8F80000444640F08050C8F80000FDF78D
:1035300051FE05460DE0086840F48000EFE740F4D6
:103540000000ECE7FDF746FE401B022801D90320EE
:103550008DE720688000F5D5504688E7284402585A
:1035600000F0E00100F01C030904820741EAC321D6
:1035700041EA126070477047FDF732BEF0B5CDB03A
:103580004C2130A8FDF74AF8202143A8FDF746F862
:10359000C0216846FDF742F80220FEF70FF92A48DD
:1035A00000242A49026842F44042026002680A6824
:1035B00042F001020A60096801F001014B910168C3
:1035C0008904FCD52249022508260868012320F039
:1035D00003071A040520BF1C0F60C0213995CDE9EF
:1035E0003A50CDE93C15CDE940643F9530A8CDE98E
:1035F00030323E954294FEF7ABFF40204A903F2187
:103600000301CDE946600322CDE9480343AB43A85B
:1036100083E816000421FEF7D1FD19274FF4A572A7
:103620000A970A230B480021CDE90B250EAA0D9518
:10363000061582E858001F94CDE9000168461194F0
:10364000FEF7E6F84DB0F0BD184802582C040058BB
:1036500028440258010000202E48F0B52E4A016887
:1036600041F470010160106800F00F00072804D2D7
:10367000106820F00F00C01D106028490020274C62
:1036800010340B68264D43F001030B6020600B687B
:103690002B400B60136803F00F03072B04D913684A
:1036A00023F00F03DB1D13601C4C1E4A18341E4B05
:1036B000261D371D2060194C1C4D28343060261DF6
:1036C0003860371D23603B1D35601C1D3A60251D89
:1036D0002E1D1860331D22602860326018600A6851
:1036E0000E4B134C22F4802260330A60186020686D
:1036F0006FF30F00B0F1005F03D20E490120C1F853
:10370000080143F2D2000C49024BC206803B08601C
:103710001A60F0BD88ED00E000200052004402581D
:103720007FEDF6EA80020101000202020000FF01C3
:103730000010005C008000510040005210B5144C95
:10374000002220212046FDF73AFD142000F022F847
:10375000002220464021FDF732FD142000F01AF827
:10376000012220462021FDF72AFD142000F012F846
:10377000002220462021FDF722FD01222046402183
:10378000FDF71DFDBDE81040142000F003B8000057
:1037900000100258002208B50DE000BFADF800206F
:1037A00005E000BFBDF80010491CADF80010BDF8E1
:1037B00000100829F6D3401EF0D208BD10B586B01F
:1037C00014216846FCF72AFF2B48016841F01001DC
:1037D0000160016801F010010591016841F01001DC
:1037E0000160016801F010010591016841F01001CC
:1037F0000160016801F010010591016841F01001BC
:103800000160006820211D4C112200F0100005907D
:10381000002000916946CDE9012003902046FDF784
:10382000ABFB4020694600902046FDF7A5FB012137
:10383000019110200291694600902046FDF79CFB03
:103840000820694600902046FDF796FB012220469D
:103850002021FDF7B4FC012220464021FDF7AFFCFA
:10386000002220461021FDF7AAFC01222046082153
:10387000FDF7A5FC06B010BDE04402580010025848
:1038800010B5114C002220212046FDF798FC142091
:10389000FFF780FF012220464021FDF790FC142015
:1038A000FFF778FF012220462021FDF788FC142035
:1038B000FFF770FF002220462021FDF780FCBDE8C5
:1038C00010401420FFF766BF001002582DE9F041A8
:1038D000154E002580462C4668060122070E30460C
:1038E0002021FDF76CFC1420FFF754FF40213046E7
:1038F000FDF758FC00F0010530463D430022202131
:10390000FDF75DFC1420FFF745FF641CE4B2082CB2
:10391000E2D3B8F1010F04D0FFF7B2FF2846BDE8AB
:10392000F081FFF70BFFF9E70010025810B5104CBB
:10393000012240212046FDF742FC012220462021A1
:10394000FDF73DFC1420FFF725FF00222046402113
:10395000FDF735FC1420FFF71DFF00222046202133
:10396000FDF72DFCBDE810401420FFF713BF000049
:103970000010025810B5114C002220212046FDF7FE
:103980001EFC1420FFF706FF002220464021FDF711
:1039900016FC1420FFF7FEFE012220462021FDF731
:1039A0000EFC1420FFF7F6FE012220464021FDF711
:1039B00006FCBDE810401420FFF7ECBE00100258D2
:1039C00010B5154C012240212046FDF7F8FB1420CC
:1039D000FFF7E0FE012220462021FDF7F0FB142036
:1039E000FFF7D8FE40212046FDF7DCFB00284FF012
:1039F00000024FF02001204606D0FDF7E0FB142026
:103A0000FFF7C8FE002010BDFDF7D9FB1420FFF71B
:103A1000C1FE012010BD00000010025870B5164E06
:103A200000240546280601D5012200E00022304688
:103A30004021FDF7C4FB1420FFF7ACFE0122304605
:103A40002021FDF7BCFB1420FFF7A4FE0022304626
:103A50002021FDF7B4FB072C04D101223046402180
:103A6000FDF7ADFB6806641C050EE4B2082CD9D343
:103A7000BDE87040FFF7A4BF0010025800B585B044
:103A800014216846FCF7CAFD002001901021029025
:103A90000390034800916946FDF76EFA05B000BD3A
:103AA0000010025800B585B014216846FCF7B6FD39
:103AB000012000211022CDE90020CDE902010348B8
:103AC0006946FDF759FA05B000BD00000010025824
:103AD0001FB500248DF80040FFF7DCFBFFF76EFEFA
:103AE000FCF762FE0B2148F2401001AAFCF731FE00
:103AF00001216A4648F24700FCF72BFE9DF80400BE
:103B0000392802D0012004B010BD9DF80B209DF88B
:103B10000A10084801EB0221B1F5806F03D0B1F51E
:103B2000487F03D003E00121017000E00470002011
:103B3000E9E700000000002030B58BB048F24E15D8
:103B400000246A462A212846FCF703FE0021284665
:103B5000FCF75AFE20499DF8000000F00F00487065
:103B60004878A8B3487805282BD932E0684600EB9E
:103B7000C40201EB44009388838152884280174A33
:103B80001278012A1BD182899FED152B00EE102A95
:103B90009FED151BB8EE400B20EE020BBCEEC00BE8
:103BA00010EE102A8281428800EE102AB8EE400BF7
:103BB00020EE010BBCEEC00B10EE102A4280641CFC
:103BC000E4B24878A042D1D8012008700BB030BDD3
:103BD000FFE70020F9E70000500C00200000002063
:103BE0009A9999999999E93FF6285C8FC2F5E83F2F
:103BF00010B5806B0021A0F85E10A0F85610FEF7FB
:103C00007FFF10BD10B5026852E8001F21F49071CB
:103C100042E80013002BF6D10E4B0268083252E83E
:103C2000001F194042E80014002CF6D1C16E012992
:103C300008D1026852E8001F21F0100142E8001389
:103C4000002BF6D100212022C0F88C20C1664167EC
:103C500010BD0000FEFFFFEF0148FEF753BF00005C
:103C6000AC0A0020FEE7090700284FEA116104DBD7
:103C700000F1E02080F80014704700F00F0000F120
:103C8000E02080F8141D704770B5002504466FF0E1
:103C90002F0608E0206805EB8502411C216006EB39
:103CA0004202007885182068007800F004F80028A7
:103CB000F0D1284670BD3038092801D8012070475E
:103CC000002070470848402110B501F08DF80748E2
:103CD00000221E211EF0D6FB054CA06002F0ECF87D
:103CE0000020207010BD0000E40D0020615F0090F6
:103CF0008001002070B5B1F90040B2F900309C425B
:103D000000DD23460380B1F90250B2F90240A5421A
:103D100000DD2C464480B1F90460B2F90450AE4293
:103D200000DA35468580B1F90610B2F906209142D5
:103D300000DB1146C180AB424FF0010001DC8C4238
:103D400000DD002070BDF8B50D46B1F90010044645
:103D5000B0F900001646884247DBB4F90210B5F905
:103D60000220914241DBB4F90410B5F904209142DC
:103D70003BDCB4F90610B5F90620914235DC96B368
:103D8000ADF80000324660886946ADF8020028466A
:103D900000F099F8002827D0A0883246ADF800003E
:103DA00069466088ADF80200284600F08CF80028CB
:103DB0001AD020883246ADF800006946E088ADF898
:103DC0000200284600F07FF800280DD0A088324677
:103DD000ADF800006946E088ADF80200284600F022
:103DE00072F8002800D00120F8BD0020F8BDB0F91D
:103DF0000020B1F904309A4213DCB0F90420B1F983
:103E000000309A420DDBB0F90220B1F906309A4237
:103E100007DCB0F90600B1F90210884201DB01208D
:103E2000704700207047F8B50D46B1F90010044600
:103E3000B0F904001646884243DBB4F90600B5F930
:103E4000021088423DDBB4F90000B5F90410884245
:103E500037DCB4F90210B5F90620914231DC76B3B3
:103E6000ADF80000324660886946ADF80200284689
:103E700000F029F818BBA0883246ADF8000069466A
:103E80006088ADF80200284600F01DF8B8B9208817
:103E90003246ADF800006946E088ADF802002846D9
:103EA00000F011F858B9A0883246ADF80000694614
:103EB000E088ADF80200284600F005F808B10020BF
:103EC000F8BD0120F8BD2DE9FC410546B1F900001F
:103ED0000E461446B5F9001088423ADBB5F9047075
:103EE000B84236DCB6F90200B5F90230984230DB50
:103EF000B5F9062090422CDC002C75DD781AD21A18
:103F0000401C521C00B212B200EBD07002EBD27215
:103F100040105210904200DB1046844200DD0446FF
:103F2000ADF800102888002231462044ADF8040086
:103F30006888ADF8020068882044ADF8060068463D
:103F4000FFF7C1FF40B1BDF804002044ADF8040004
:103F50003FE00020BDE8FC81E88800223146001BDC
:103F6000ADF80200E888ADF806006846FFF7ABFF41
:103F700028B1BDF804002044ADF8040011E0A88881
:103F800000223146001BADF80000A888ADF80400FF
:103F90006846FFF798FF50B1BDF80000001BADF870
:103FA0000000BDF80200001BADF8020016E06888B2
:103FB0000022ADF80200314668882044ADF80600C2
:103FC0006846FFF780FF70B1BDF80000001BADF838
:103FD0000000BDF806002044ADF8060031466846F2
:103FE0001BF05EFCB6E7FFE70120B3E710B5B1F9BF
:103FF0000040B2F900309C4200DA23460380B1F958
:104000000240B2F902309C4200DA23464380B1F903
:104010000440B2F904309C4200DD23468380B1F9AC
:104020000610B2F90620914200DC1146C18010BD95
:10403000FEB507461EF0CCF9354C00250646009526
:1040400037B1F868606038461EF0EAFA606802E04E
:1040500011F0F8F8606000691BF0CCFB6068406903
:1040600008B11BF0C7FB6068C0691BF0C3FB606848
:10407000006A1BF0BFFB60680169E1B31BF052FEF0
:104080001BF0CCFD6068B0F8501199B30168097C51
:10409000890715D511F034F9401E07B2606811F098
:1040A000E9F8401E009703B2002201A811460EF065
:1040B00005FF606801688A6B01A9516004F034FB58
:1040C00060684FF48071303017F07CF9606820210F
:1040D00000F5987017F076F96068A0F850513046F6
:1040E0001EF06FF9009060680068436A13B122689F
:1040F0000099984700E007E016F0B2FF00F036F8AC
:10410000BDE8FE4000F006B8A0F85051FEBD00002A
:104110004400002070B50A4D5FF00004C4EBC406F3
:1041200055F8260008B117F00FF81C2105EB8600A2
:1041300017F048F9641CE4B2042CEFD370BD000002
:10414000C00E0020084949680AE04A68824202D04D
:104150000A68824203D10A7E42F001020A76496966
:104160000029F2D1704700001800002070470000BD
:104170000148042100F038BED80D002001481C2160
:1041800000F032BEF00D00202DE9F84F8146DDE948
:104190000A0A13B9B0F5807F7ED0BAF900604FF0FB
:1041A000FF350224C6F10006002B06FB00F605EBE6
:1041B000262636B2A9F80060BAF90270C7F10007E6
:1041C00007FB00F705EB27252DB2A9F80250BAF935
:1041D0000070A1EB070101FB00F104EB212109B202
:1041E000A9F80410BAF90270A2EB070202FB00F270
:1041F00004EB222000B2A9F806007ED00A2593FB2A
:10420000F5F67042771C00EB800003EB400430B2FF
:104210001EF048FB804638B21EF044FB5A36009030
:1042200030B21EF03FFB5A37834638B21EF03AFBDD
:10423000C4F10A01DDF800C0B9F9003001FB08F64D
:1042400001FB0BF100FB04100CFB046690FBF5F086
:1042500096FBF5F1B9F90220B9F904C04FEA601BE9
:1042600049110BFB03F401FB03F80BFB0CF001FB02
:104270000CF301FB12450BFB028601FB12070BFB43
:10428000023CB9F9062001FB124401FB12010BFBB1
:1042900002880BFB023200E022E0BAF8000000EBDB
:1042A000A52300EBA42400EBA72500EBA12118B265
:1042B000BAF8023024B203EBAC2703EBA82C03EBD3
:1042C000A62603EBA22832B23BB22DB209B20FFAF6
:1042D0008CF60FFA88F7844224DAA44623E00CE037
:1042E0000020491EA9F80410521EA9F80620A9F8BA
:1042F0000000A9F80200BDE8F88FBAF800203244A7
:10430000A9F80020BAF802202A44A9F80220BAF835
:1043100000201144A9F80410BAF802100844A9F8C2
:104320000600E8E78446A94201DA884600E0A8468C
:10433000C44505DA844201DAA44606E0844604E076
:10434000A94201DA8C4600E0AC46A9F800C08442DC
:1043500001DDA44600E08446A94201DD884600E074
:10436000A846C44503DD844206DD204604E0A94298
:1043700001DD084600E02846A9F80400964201DA6B
:10438000304600E010469F4201DA394600E0194607
:10439000884205DA964201DA304606E0104604E02B
:1043A0009F4201DA384600E01846A9F8020096421A
:1043B00001DD304600E010469F4201DD394600E055
:1043C0001946884203DD964206DD324604E09F42EC
:1043D00001DD3A4600E01A46A9F806208BE72DE9F0
:1043E000FC5F0446B0F90800081AB4F90A50E389E2
:1043F000511BD4F800B0B3F5807FD4E9093238D02E
:10440000A589002DA56B05FB00F040D0D4E90B7603
:1044100040114D4306FB00FC07FB00F1681107FB50
:1044200010C506FB001103EBA52902EBA120B4F98E
:1044300004104FEA292780460612B94249DD002FB1
:1044400047DBB4F90600B04243DD002E41DB94F8AF
:104450003400420740D5820704F114001DD401FB4B
:1044600006754FF0010A0BEB0501524616F066FF88
:1044700022E0D4E90B6505FB00F7704306FB1176DB
:1044800005FB010103EBA60902EBA100CFE74D43B9
:1044900003EB601902EB6510C9E701FB06724FF0F0
:1044A000020A550001220BEB050116F047FFA81C7C
:1044B000584410F8010C607594F83400C0071ED001
:1044C0000022FF21104610F081F9217DC0B2814207
:1044D00015D10020BDE8FC9F32B2236939B2002516
:1044E0008B4604F11800AA46CDE9000214F0C8F981
:1044F00020755946DDE9000214F050F9DBE7A07C95
:1045000078B1A4F83C902046A4F83E80A4F840700E
:10451000A4F84260656484F848A0BDE8FC5F00F040
:1045200002B80120D6E72DE9F04F044690F83C0090
:1045300087B04FF0FF36C1B294F83E207029D4F80E
:104540000090D0B207DAB4F940203546012A00D5F0
:10455000002580310DE0902916DDB4F940200125B9
:10456000B4F90430521C9A4200DB0025A1F27F11FD
:104570004942C9B27028884609DAB4F942100129C3
:1045800000D50026803010E00025FF21F2E79028BA
:104590000DDDB4F942100126B4F90620491C914200
:1045A00000DB0026A0F27F104042C7B201E00026E7
:1045B000FF2794F8341060694FF0000B0090DA4642
:1045C000607D4907CDE904B042D594F84800012246
:1045D000616C10FB051101A8494416F0AFFEA088DC
:1045E00094F84820616C10FB02F0012206FB0011D8
:1045F00002A8494416F0A2FEA18894F84800626C13
:1046000011FB00F310FB059006FB0321012201447E
:1046100003A816F093FE94F83400800760D5A288B2
:1046200094F84800616C12FB00F210FB050310FBCC
:10463000051506FB021148440B442A1801444B445B
:1046400012F801BC11F8010C049013F8010C46E0BB
:10465000B4F84000B4F942202844236901B204F1BF
:104660001800814614F00CF90190B4F84200B4F936
:104670004010304402B2484654F8103F14F000F99C
:104680000290608E2368304402B2208E284401B22A
:10469000484614F0F5F8039094F82400103C800785
:1046A0001ED5B4F84000B4F942204034284401B289
:1046B000484614F073F883466088B4F9001030441B
:1046C00002B2484614F06AF804906088304402B29E
:1046D00034F84009284401B2484614F05FF8824695
:1046E00094F8340042464546800736D50598C7F110
:1046F000FF0310FB08FC049810FB08F6C8F1FF004C
:104700001BFB00CC1AFB0060CCF30721C0F3072091
:1047100011FB07F6022910FB03614FEA11216175B5
:1047200007D8022803D8002007B0BDE8F08F002783
:1047300002E0022800D8FF270598022800D80022AE
:10474000BBF1020F00D8FF220498022800D80025F0
:10475000BAF1020F03D8FF2501E0FF206075CAB14E
:10476000FF2A19D0DDE9000110F07EF80646ADB150
:10477000FF2D15D0DDE902012A4610F075F801463B
:1047800087B1FF2F10D03A46304610F06DF82075F3
:104790000120C9E7019EEAE7009EE8E70399EFE7F9
:1047A0000299EDE72175F3E72675F1E72DE9F0476A
:1047B0000446B0F908000A27B4F90C100202B4F953
:1047C0000A3091FBF7F51802C4E9092068426B42F0
:1047D00000EB800218B205F1010801EB42061EF061
:1047E00061F88146E84300B21EF05CF88246C5F1EC
:1047F0005A0000B21EF056F80546C8F15A0000B241
:104800001EF050F80246C6F10A0000FB09F36843A7
:104810000AFB063102FB060291FBF7F092FBF7F16F
:1048200040114911C4E90B01607C14F0CCF894F8F4
:10483000341060F3000184F83410607C14F0B4F894
:10484000024694F83400617C042962F3410084F844
:10485000340025D0052923D0062921D020F00400DA
:1048600084F83400A0694FF40017E28920F0E000DA
:10487000A588E68861F3040094F810C007EB5201A4
:104880002368B1FBF2F1236265F39420FF2767757B
:1048900066F35F50A163A06184F814C0BDE8F0879F
:1048A00040F00400DCE700002DE9F041124C154611
:1048B0000E4607461DF08CFD80462B463246394693
:1048C000204614F0E7FB20B1E1690020A06251B15D
:1048D00010E02C21204616F075FD4FF00040A0623C
:1048E0000020BDE8F08140461DF06BFDE06108B995
:1048F0000120E0612046F4E7140E0020084814214E
:1049000010B500F071FA14F08BFB40B1054901605D
:1049100005494160054981600549C16010BDFEE758
:10492000FC0D0020858A0190D98D01903D8F01906A
:10493000518A019070B50D4604461021284616F0A4
:1049400041FD20680078012804D0022807D00428FF
:1049500007D008E0208A2880608A688003E0E06849
:1049600000E00A20686020684268002A03D02946D7
:10497000BDE87040104770BDFEB5866A0446BEB9FA
:10498000A08A218AE28A638A0844A0822046D1183C
:10499000E1820AF00AF9060079D020460CF0B4FD55
:1049A00000223046092113F043FA607880076ED464
:1049B000208A10B9608A002869D00025ADF804501B
:1049C000ADF8085094F83C0000F00F000328304682
:1049D00016D018F09FFA0746304618F055F90346EE
:1049E0003A460C200090B4F91210304609F0CAFC87
:1049F000ADF80800304618F099F9C10712D017E059
:104A000018F01CFA0746304618F0B8F902463B4643
:104A100003200090B4F91010304609F0B3FCADF853
:104A20000400E7E7BDF90410002901DDADF80450EA
:104A3000810705D4BDF90410002901DAADF804504E
:104A4000410705D4BDF90810002901DDADF8085073
:104A5000000705D4BDF90800002801DAADF80850B8
:104A600002AA01A920461FF0E8FEBDF90820002394
:104A7000BDF9041030461AF039FAA08ABDF80420B6
:104A8000E18A1044A082BDF808000844E082FEBD1F
:104A90002DE9FC5F0446806A5FEA000B71D094F850
:104AA0003C0000076DD014F0BBFE0190402100686F
:104AB000457E584619F0D6F94FF0000818B9A4F809
:104AC0001A80A4F81880584618F016FA82465846FC
:104AD00018F019FA064694F83C004FF0640900F00B
:104AE0000F000C2802D003284CD09AE0A4F81880BC
:104AF00056B1B4F91A50002714F092FE01684846E6
:104B0000497EC1F1640122E0618BC5F1640211FBB1
:104B100002F191FBF9F06083584618F0B5F80546AC
:104B2000584618F0F7F902462B460C200090B4F9CD
:104B30001A10584609F026FC0023024660831EE046
:104B400011FB05F27B1992FBF0F21FB215B2002D9A
:104B5000F6D1ADF8007000216A462046A4F81A800C
:104B60001FF06BFE41F6FF72BDF90030514258460E
:104B70000AF080F9BDF800100123084402B20021B8
:104B80004CE09BE0BAF1000FA4F81A800AD0B4F907
:104B90001850002714F044FE00684946407EC0F1DA
:104BA000640022E0218BC5F1640211FB02F191FB4C
:104BB000F9F02083584618F0E1F80546584618F0F9
:104BC0003DF903462A4603200090B4F918105846D0
:104BD00009F0D8FB0023014620831EE010FB05F2FC
:104BE0007B1992FBF1F21FB215B2002DF6D1ADF890
:104BF0000070002269462046A4F818801FF01DFEB0
:104C000041F6FF72BDF90030514258460AF0AAF849
:104C1000BDF800100123084401B2002258461AF0E2
:104C200065F9208B002849D1608B002846D1C6B990
:104C3000584618F06FF90546584618F025F8002D2B
:104C400006DC00280DDD002D02DA01232A4604E0EF
:104C5000002806DA0123404202B2584600211AF029
:104C600045F9BAF1000F19D1584618F087F80546F2
:104C7000584618F0E3F8002D07DC00280EDD002D63
:104C800003DA01232946002205E0002806DA012381
:104C90000022404201B258461AF028F9019A0A212E
:104CA000584613F0C5F86078800707D494F83C1094
:104CB000C4F8288021F00F0184F83C10BDE8FC9F67
:104CC0007FB504000E4603D110F0BCFA040025D0D5
:104CD0004FF000051EB3ADF80050ADF8025010F0D3
:104CE000C9FA401EADF80400204610F009FB401E32
:104CF0006A463146ADF8060002A8FEF7FBFF002821
:104D00000CD02068017C89070CD5DDE900126068B1
:104D10000123A4F85031C4E90C1278BB7FBDA0F880
:104D200050517FBD82690AB102A9904700260AE06E
:104D300004EBC6010022303102A8FFF704F8002876
:104D4000EFD1761CB6B2B4F85001B042F0D880B2C0
:104D5000202804D204EBC000303002A904E004F1A2
:104D600030006946A4F850510DF0FCFFB4F8501122
:104D70006068491CA4F850110028D2D01DF05CFCDA
:104D80007FBD70B5054600F012F804460CE02146E0
:104D9000284600F01EF806462146284600F071F825
:104DA000204616F0D1F93446002CF0D170BD002811
:104DB00000D0406870470022034600B5FFF7F7FFB8
:104DC00003E0521C184600F004F80100F9D1104627
:104DD00000BD0068091D4058704700684058704782
:104DE000002800D08068704700224260C91C8260A1
:104DF00021F003010160704770B504460068083077
:104E000016F018F9050013D00022014620461EF0C6
:104E1000E9FB6268294620461EF0DEFB616819B195
:104E20002A4620461EF0DEFBA068656000B9A5603A
:104E3000284670BD70B504460068083016F0FAF8D0
:104E4000050013D00022014620461EF0C5FBA268D3
:104E5000294620461EF0C6FBA16819B12A46204605
:104E60001EF0BAFB6068A56000B96560284670BD99
:104E700028B1416809B9806808B100207047012055
:104E8000704770B504000ED0FFF791FF88424FF0D5
:104E90000002204608D1FFF79CFF011E606001D090
:104EA00000221EE0A26070BDFFF79AFF88422068D2
:104EB00008440AD10168A16029B12046BDE87040CC
:104EC00000221EF089BB626070BD05682046FFF7B6
:104ED00080FF06460246294620461EF07DFB2A46F4
:104EE00031462046BDE870401EF07CBB10B504463C
:104EF000006882680AB1214690472068006800284F
:104F000001D02060F5E710BD8068002801D0B0F91D
:104F1000160070472DE9F04790B00746408C99463F
:104F200090468A46189E40F00400788438463A84B9
:104F3000328918F00BFEA7F82090054632895146B9
:104F4000384618F003FE0446788CA54220F0040091
:104F5000788403D12906B1EB046F68D0A7F82080CC
:104F600051463289384618F0F1FD054680465146D3
:104F70003846A7F820900BF047F900682A46318997
:104F80001CF04AF83089602823D147F6FF794D4557
:104F900001D04C451DD1384618F01BFF00EBD070F6
:104FA0004510384618F015FF00EBD0704010C8458A
:104FB00006D1691C431C994200DA00E01946884674
:104FC0004C4506D1691C421C914201DA6C1C00E080
:104FD00014461948FFF710FF05002BD02F60C5E9D4
:104FE00003843089A8806846C5F808A00DF0BEF992
:104FF0001248FF21CDE9005011480290114803905A
:105000000020CDE90801079030880A9070889DF84B
:105010003E1040420B90F0680690002060F30001C3
:105020008DF83E103069059068460DF013FA10B007
:10503000BDE8F087FEE70000080E0020957302909F
:10504000D57502903175029001481421FFF7CCBE4E
:10505000080E00202DE9FC5F0427924600258B46B0
:10506000064643F60F082C4643F60E0900E100BF42
:10507000F16807EBC400085882017DD480B230EAA1
:105080000B0212D05FF0000230EA0A000FD00020BD
:10509000824271D051F8340001AA41F6100100900B
:1050A0001BF0B2FD002868D103E00122ECE70120EB
:1050B000EEE7009801AA41F611011BF0A5FD0028BA
:1050C00073D1009801AA41F612011BF09DFD002842
:1050D0006BD1009801AA41F613011BF095FD002841
:1050E00063D1009801AA41F615011BF08DFD00283F
:1050F0005BD1009801AA41F614011BF085FDE0BBCD
:10510000009801AA41F269011BF07EFDA8BB00983E
:1051100001AA43F20C011BF077FD70BB009801AAB5
:1051200043F20D011BF070FD38BB009801AA41F25B
:1051300001011BF069FD00BB009801AA41F20401C6
:105140001BF062FDC8B9009801AA41F202011BF0F0
:105150005BFD90B9009801AA41F203011BF054FDD8
:1051600058B9009801AA41F205011BF04DFD20B984
:1051700001AA41F2060101E079E016E000981BF077
:1051800043FD90B9009801AA41F232011BF03CFDA9
:1051900058B9009801AA41461BF036FD28B900987D
:1051A00001AA49461BF030FD10B10320BDE8FC9F69
:1051B000009801AA40F60A011BF026FDF0BB0098FA
:1051C00001AA40F60B011BF01FFDB8BB009801AA15
:1051D00041461BF019FD88BB009801AA49461BF007
:1051E00013FD58BB009801AA40F63C011BF00CFDD2
:1051F00020BB009801AA40F63D011BF005FDE8B96F
:10520000009801AA40F63A011BF0FEFCB0B90098E4
:1052100001AA4FF404611BF0F7FC78B9009801AAC9
:1052200040F645011BF0F0FC40B9009801AA40F699
:1052300041011BF0E9FC08B901AA00E013E0009865
:1052400040F642011BF0E0FC68B9009801AA40F664
:1052500043011BF0D9FC30B9009801AA40F649017E
:105260001BF0D2FC08B1022501E005B90125641C40
:10527000708CC0F3C500A0423FF6FAAE284695E711
:105280000148406870470000440000207047C0F3A8
:105290000410072800D9072070470000044818218F
:1052A00010B5FFF7A1FD03490120087010BD0000F3
:1052B000B40D0020AC0100202DE9F041050090461E
:1052C0000C4615D0FBF714F90A4F0646214628462E
:1052D000BA689047BA680446281941469047014683
:1052E000701A03E06218AA5C2A55641CA042F9D225
:1052F000BDE8F081C00100202DE9F041094D904644
:105300000E461C46074619466A689047306020B131
:10531000206800216A6838449047C8F80000BDE85A
:10532000F0810000C00100202DE9F04F87B01F463A
:1053300093468A4604464FF00001DDE9105805B156
:10534000298064B1207800280AD0BAF1000F06D075
:1053500018F0060F4FF0000615D0002004E00020E2
:1053600007B0BDE8F08F401C215C0A2904D00D294C
:1053700002D00029F7D100E0401C002DF0D04FF002
:10538000FF312980ECE75FEA887001D541F6FF77AD
:10539000894608468DF81410049126E00498CDF84B
:1053A000189060B3002351460DF1180C05AACDE901
:1053B0000223CDE9008C20443B465A461DF09CFA5E
:1053C0000699A7EB0102314417B20EB288B10499D5
:1053D0000144049120780A280BD00D2809D0605C84
:1053E0000A280ED00D280CD00846205C08B1002FEA
:1053F000D4DC049840B105B12E800498B0E70123B5
:10540000D1E7481C0490F4E7064A04A920465268F4
:105410009047002D0146F0D00022504612F0E4FDE6
:1054200006B2E9E7C00100202DE9F0410600174669
:1054300088461ED0002F1CD0FBF75AF80446384689
:10544000FBF756F8050014D00B4A2C444146304671
:1054500092689047411903E0621BB25C3255641EAA
:10546000A142F9D930442A463946BDE8F04115F049
:1054700071BFBDE8F0810000C0010020027823293F
:105480004FF0000302D0012A0ED012E032B1012AFF
:105490004FF0000104D0022A04D00AE0012106E006
:1054A000017006E00123FBE7202901D102210170F0
:1054B0000123184670472DE9F0410E468046002131
:1054C0003346024608461DF05FFC00270446401C98
:1054D00015F0B0FD050008D0611C334642462F553B
:1054E0001DF052FC2846BDE8F081FEE72DE9F047AB
:1054F0001E4614460D468246DDF8209015E000BF9A
:105500004FEA54084A46504608FB0657394690472A
:10551000002808DD44F30000C0EB540407EB060547
:10552000A4F1010401E005DA4446002CE8D120464C
:10553000BDE8F0873846FBE72DE9FC5F9B468146D6
:105540000CAB8A46DDE91160DDE90F5793E81210D4
:105550005FEA80784FF030031AD45EB15FEAC0781A
:1055600008D000F00C0858EA0C0803D0761E01E0C1
:105570000B55641CBC4204D2202CF9D301E00B551E
:10558000641C5FEAC07803D0B44201D2202CF6D369
:105590005FEAC06825D55FEA40580AD44CB1BC42E6
:1055A00001D0B44205D1641E03D0102D03D1641E76
:1055B00004E0102D02D0022D0AD00EE0850603D49F
:1055C000202C1ED2782506E0202C1AD2582502E085
:1055D000202C16D262250D55641C202C11D20B559F
:1055E000641C202C0DD2BCF1000F01D02D2306E04D
:1055F000430701D52B2302E0030702D520230B55D7
:10560000641CC846CDE900BA15468B468146AA46B9
:10561000800714D1274607E02A46C4466D1C202087
:10562000DDE90031E0477F1CB742F5D307E02A46A9
:105630006D1C641EDDE900311BF80400C047002C1E
:10564000F5D15FEA897006D409E02A466D1C202056
:10565000DDE90031C047A5EB0A00B042F5D328468A
:10566000BDE8FC9F2DE9F04F8FB099468B469246DE
:1056700086464FF00002DDE91818DDE91C63DDE91C
:105680001A4709B923F0100307AD580500D5C9B171
:10569000B1FBF4F004FB1010C0B20A2801D2303084
:1056A00009E05FEA836C02D54FF0410C01E04FF056
:1056B000610C60440A38B1FBF4F1A854521C09B1E2
:1056C000202AE5D3CDF808805946CDE90563CDE918
:1056D0000052CDE903474B4652467046FFF72CFF78
:1056E0000FB0BDE8F08F2DE9FF4F8FB01CACDDE9A6
:1056F000239594E8030820AC94E8C004002450EA01
:10570000010201D125F010050DF11C086A0502D532
:1057100050EA010217D032463B46FAF74EFED2B2AB
:105720000A2A01D2303206E0AB0601D5412300E05F
:1057300061231A440A3A08F80420641C50EA010262
:1057400001D0202CE7D3CDE900840FAFCDF808B00D
:10575000CDE90595CDE9036A97E80F00FFF7ECFE68
:1057600013B0BDE8F08F9A4200D28854704770475A
:10577000704700002DE9FF4F89B0054692464FF073
:1057800000040A98002800D1F74D6EE1252804D0C6
:105790000A992246641C53462DE2491C4FF000082A
:1057A00008460C9101782B2919D004DC202919D046
:1057B000232904D119E02D290ED0302909D0002643
:1057C000C8B2FEF778FAB0B10CA8FEF75DFA06464B
:1057D0001FE048F001010AE048F0020107E048F04C
:1057E000040104E048F0080101E048F01001401C09
:1057F00088460C90D6E70C9908782A2809D1169883
:1058000040C81690002E02DA764248F00208491C81
:105810000C910C984FF0000B01782E2919D1401CE7
:105820000C9048F480680078FEF745FA20B10CA887
:10583000FEF72AFA83460CE00C9801782A2908D151
:10584000169904C91691002A00DC0022401C9346D8
:105850000C900C9801786C290AD004DC68290FD0D0
:105860006A2919D128E0742929D07A2914D126E08F
:10587000401C0C9048F4807801786C291CD00BE017
:10588000401C0C9048F080080178682904D148F049
:105890004001401C88460C9002460078692822D0BE
:1058A00015DC62281FD00DDC252872D050281AD0B4
:1058B00058287FF46DAF16E048F40071E9E748F42A
:1058C0008071E6E763287DD06428F2D10BE073286D
:1058D00079D004DC6F2806D07028EAD103E075285F
:1058E00001D07828E5D178280DD058280BD0702821
:1058F0000BD0502809D06F2816D0622816D00A2164
:1059000028F0100816E0102107E05378102148F421
:105910008878562B04D1521C0C921078582807D046
:105920001078502804D005E0082108E0022106E0A4
:1059300048F020081078692803D0642801D028F0A6
:105940000C085FEA485001D528F001081078692852
:1059500020D064281ED056287ED05FEA88507CD59F
:10596000169804ABC01D002283E8060820F007004B
:105970000292CDE9076800F10801534602681691CA
:105980004068CDE9002022460A992846FFF7ABFE81
:1059900067E02BE15FEA885028D516984FF0000C9D
:1059A000C01D20F0070202F108001690D2E90002A3
:1059B000CDE9041CCDF818B0002ACDE9076803DA58
:1059C000012602E09AE0C4E0002602960023194670
:1059D0001B1A914101DA114603E00021404261EBBC
:1059E000020153462246CDE90001CDE75FEAC850E7
:1059F0000FD5169A01CA1692CDE9021BC10F0028D5
:105A0000CDE9046800DC40425346CDE9000122465E
:105A100020E05FEA486005D5169810F8042B169030
:105A2000D0B20BE05FEA086005D5169830F8042B79
:105A3000169010B202E0169A01CA1692CDE9021B26
:105A4000C70F0028CDE9046800DC40425346CDE989
:105A500000072246284601E010E01FE00A99FFF700
:105A600001FE04460C98401C0C900C990878002804
:105A70007FF48CAE544576D22246C0E01699AAEB4C
:105A8000040201C9169141680968009103680A98E7
:105A900001192846FFF76EFE0444E3E75FEAC850A9
:105AA0000DD5CDE9021B16980022CDE90468011D31
:105AB000169153460068CDE900022246CAE75FEA24
:105AC000486005D5169810F8042B1690D0B20BE05C
:105AD0005FEA086005D5169830F8042B169090B24E
