:0200000490006A
:10000000A0250120350400902BAB0090EF920090CA
:1000100029AB0090E53C0090F5DE00900000000068
:10002000000000000000000000000000B7C40090C5
:10003000474200900000000089B20090B9C40090CF
:100040004F0400904F0400904F0400904F04009024
:100050004F0400904F0400904F0400904F04009014
:100060004F0400904F0400904F0400904F04009004
:100070004F0400904F0400904F0400904F040090F4
:100080004F0400904F0400904F0400904F040090E4
:100090004F0400904F0400904F0400904F040090D4
:1000A0004F0400904F0400904F0400904F040090C4
:1000B0004F0400904F040090CDC600904F04009074
:1000C0004F0400904F0400904F0400904F040090A4
:1000D0004F0400907DDC00904F04009089DC00907C
:1000E0004F0400904F040090000000004F04009067
:1000F0004F0400904F0400904F0400904F04009074
:100100004F04009051B600904F0400904F040090AF
:1001100019D000904F0400904F0400904F040090BD
:100120004F0400904F0400904F0400904F04009043
:100130004F0400904F0400904F0400904F04009033
:1001400000000000000000000000000000000000AF
:100150004F0400904F0400904F0400904F04009013
:100160004F0400904F0400904F0400904F04009003
:100170004F0400904F0400904F0400904F040090F3
:100180004F0400904F04009025D0009031D0009093
:100190004F0400904F0400904F0400904F040090D3
:1001A000759900904F040090413D00904F040090DD
:1001B0004F0400904F0400904F0400904F040090B3
:1001C0004F0400904F0400904F0400904F040090A3
:1001D0004F0400904F0400904F0400904F04009093
:1001E0004F0400904F0400904F0400904F04009083
:1001F0004F0400904F0400904F0400904F04009073
:100200004F0400904F0400904F0400904F04009062
:100210004F0400904F0400904F0400904F04009052
:100220004F0400904F0400904F0400900000000025
:100230004F0400904F040090000000004F04009015
:100240004F0400904F0400904F0400904F04009022
:100250004F0400904F0400904F0400904F04009012
:100260004F0400904F0400904F0400904F04009002
:100270004F0400904F0400904F04009000000000D5
:100280004F0400904F0400904F04009000000000C5
:10029000000000004F04009000F002F800F0BBF8EE
:1002A0000AA090E8000C82448344AAF10107DA45D1
:1002B00001D100F0B0F8AFF2090EBAE80F0013F068
:1002C000010F18BFFB1A43F001031847A0A3030056
:1002D000C0A303000A444FF0000C10F8013B13F0D8
:1002E000070408BF10F8014B1D1108BF10F8015B8F
:1002F000641E05D010F8016B641E01F8016BF9D182
:1003000013F0080F1EBF10F8014BAD1C0C1B09D1D8
:100310006D1E58BF01F801CBFAD505E014F8016B4A
:1003200001F8016B6D1EF9D59142D6D370470000DC
:100330000023002400250026103A28BF78C1FBD8EE
:10034000520728BF30C148BF0B6070476E2901F0CB
:100350008681702900F0E982662935F0A38265293B
:1003600035F0A082672935F09D82612935F09C82A5
:1003700003681B0A28BF41F08001692900F05A82F6
:10038000642900F05782752900F054826F2901F02A
:100390009484782900F0B582E92901F02F84E429BA
:1003A00001F02C84F52901F02984EF2901F09184D2
:1003B000F82900F0B4820368DB0928BF41F080010E
:1003C000632901F09E83732901F0A383E32902F0DE
:1003D000A782F32902F0AC82002070471FB535F0E8
:1003E0001DFA9DE8030001F077F801F055F80400CC
:1003F0000020002135F090F9401C606000200021B1
:1004000035F0A0F9E0600020002135F06FF920619F
:100410001FBD10B510BD02F0F9FC1146FFF7DEFF5D
:100420002FF032F802F042FF03B4FFF7F2FF03BCF3
:100430000FF02AFD0948804709480047FEE7FEE71C
:10044000FEE7FEE7FEE7FEE7FEE7FEE7FEE7FEE784
:1004500004480549054A064B70470000E9C500906D
:1004600099020090A0E50020A0250120A0F5002021
:10047000A0F50020704770B5064601F009F8056840
:1004800006F10B0020F00704B4429CBF002070BDB1
:100490002B466A68BAB11068A04210D304F1080173
:1004A00088423CBF5068586007D3516810194160BA
:1004B0001168091B016058601460101D70BD13465F
:1004C0005268002AE7D12146284600F0F1FF0028B3
:1004D000DED170BD70B50446051F00F0D9FF00687D
:1004E000002C14BF446870BD002C18BFAC423CBF48
:1004F00020466468F8D301680A18AA4218BF45600C
:1005000003D12A6805461144016028684119A142B7
:100510001CBF6C6070BD6168696021680844286018
:1005200070BD70B50D460646041F00F0B1FFD0F84F
:1005300000C0C5B1E6B105F10B0020F00703AB42E6
:100540003CBF002070BD2068984238BFDCF8042012
:1005500013D3C11A08292FD3E01840F8041B2360D5
:10056000FFF7B8FF28E03046FFF7B4FF002070BD6A
:100570002846BDE87040FFF77EBF002A18BFA242A0
:100580003CBF94465268F8D30119914216D11168C4
:100590000844984212D3C11A08293CBF2060506811
:1005A00008D35168E0184160216812681144C91AE3
:1005B00001602360CCF80400201D70BD181FFFF7F8
:1005C0005AFF050007D021680A1F211D00F0EDFB2E
:1005D000201DFFF77FFF284670BD53EA020C00F094
:1005E00069802DE9F04B4FF00006002B1FBFB3FAD6
:1005F00083F503FA05F424FA05F65E4012BF1643AC
:10060000B2FA82F502FA05F4C5F120051EBF22FAFE
:1006100005FC44EA0C04203556EA044C4FEA144425
:1006200018BF641C4FF000084FF00009904271EBB6
:10063000030C39D3002919BFB1FA81F701FA07F683
:10064000B0FA80F700FA07F6C7F120071EBF20FABC
:1006500007FC46EA0C062037B6FBF4FCA7EB0507BF
:10066000103F07F01F0BCBF120060CFA0BFB2CFA06
:1006700006F644BFB3460026202FA4BF5E464FF0C7
:10068000000B5BEA060C08BF4FF0010B19EB0B09DE
:10069000ABFB027C48EB0608C01B06FB02CC0BFB45
:1006A00003CC71EB0C01C1E70B46024641464846BC
:1006B000BDE8F08B13B54FF000004FF00001AFF331
:1006C0000080BDE81C40704710B5044600F0D8FE1D
:1006D0000068005DC00602D504F1200010BD204670
:1006E00010BD00007CB51D4616460C00009001D0E0
:1006F0002044401E074B7B442A4669460190304601
:1007000001F0D5F905461CB10020694601F0E2F977
:1007100028467CBDE51300000FB4044910B503AAB8
:10072000029801F0FBF910BC5DF814FB10000020EA
:100730000FB41CB5084B06AA7B4469460090059887
:1007400001F0B5F904460020694601F0C3F92046DE
:100750001CBC5DF814FB0000991300000FB47CB5BD
:100760000C0009AA009001D02044401E084B7B4495
:1007700069460190089801F09AF905461CB10020DD
:10078000694601F0A7F928467CBC5DF814FB00001F
:100790006D13000070B5044685690068C10601D577
:1007A000302600E02026C00707D070BDD4E9012123
:1007B00030469047206A401C20626D1EF6D570BD01
:1007C00070B5044685690078C00707D170BDD4E9CB
:1007D000012120209047206A401C20626D1EF6D522
:1007E00070BD70B50C460546012A05D028788006F4
:1007F00000D5EA69002302E0012305E05B1C934277
:1008000002D2E05C0028F9D1A869E618C01AA861F4
:10081000286A184428622846FFF7BCFF04E0D5E99F
:10082000012114F8010B9047B442F8D32846FFF792
:10083000C7FF70BD2DE9F0410646002410687529F8
:10084000314616A510D000F09FFE002802DA404283
:1008500013A507E031688A0701D512A502E0490710
:1008600004D511A5012401E000F097FE00210A2221
:1008700006F1240709E0B0FBF2FCB0FBF2F302FB47
:100880001C00303078541846491C0028F3D1234608
:100890002A463046BDE8F04100F088BE0000000066
:1008A0002D0000002B00000020000000F0B40D46D9
:1008B0000188090502D5214C7C4402E01F4C7C4490
:1008C0000E34002100F1240608E002F00F0712099F
:1008D000E75D42EA03721B097754491C52EA030799
:1008E000F3D102780023120704D5702D06D009B188
:1008F000022311342246F0BC00F058BE012310340C
:10090000F8E770B504460D462146106800F045FE34
:10091000024629462046BDE870400023C6E7D21DA6
:1009200022F00703D3E90023C0E70368126843F00D
:10093000200303600823C3610023B7E72C9603005C
:100940002DE9F05F894604464FF0000ADFF874B1E4
:10095000FB44C0F820A02046E1688847002874D0F6
:10096000252806D0D4E901219047206A401C206246
:10097000F1E700265F462046E168884720280546C3
:1009800007DB312D05D2781910F8200C08B1064389
:10099000F1E7B00701D526F00406C4F81CA0002733
:1009A000C4F818A02A2D09D028460DF00BFC38B346
:1009B00004EB8708303DC8F8185019E059F8041BBB
:1009C000204604EB87029161E1688847012F0546C4
:1009D00018D1E069002820DA26F020061DE0D8F8BA
:1009E000180000EB800005EB40003038C8F8180014
:1009F0002046E168884705460DF0E4FB0028EED16B
:100A0000012F0AD02E2D08D12046E16888477F1C8F
:100A10000546022F46F02006C4DBA069002803DA51
:100A2000404246F00106A061F00701D026F0100612
:100A30006C2D0BD0682D09D04C2D39D06A2D35D0B6
:100A4000742D35D07A2D33D016E038E0E1682F468A
:100A500020468847B842054609D16C2F26D04FF46E
:100A60008060E168064320468847054604E06C2F15
:100A70001AD04FF4807006430DB3A5F14100192838
:100A800002D8203546F400664A46294620462660AC
:100A90004E46FFF75BFC80B101280BD0F61D26F017
:100AA000070000F1080956E74020E4E78020D8E776
:100AB0000020D6E706F104094DE7284652E7206AF0
:100AC000BDE8F09FBC9503000FB400B58DB010A930
:100AD000099000910B904FF0FF300A9000200C908D
:100AE000064878440690064878446A4607900F996D
:100AF00009A801F07BFB0DB05DF814FB271700007F
:100B00003F17000070B5064600F0CAFC04680546B1
:100B100030460A22002101F03BFC2C6070BD2DE91B
:100B2000F05F93460F4680460446002600F0B8FC6E
:100B3000D0F80090824614F8015B2DB100F0A0FCC3
:100B40000068405DC007F6D12B2D02D02D2D1AD0A4
:100B5000641E0021CAF800105A463946204601F0AA
:100B600075FB014627B13868A04201D1C7F8008063
:100B7000DAF80000022809D0CAF80090700505D5FF
:100B80004842BDE8F09F46F48066E2E70846F8E791
:100B9000401ECAB210F8011F8A4202D00029F9D1C2
:100BA0000020704710B5431E13F8014F002CFBD1F5
:100BB00005E011F8014B002C03F8014B03D0521E45
:100BC000F7D20021197010BD30B505460B462A46F4
:100BD00013F8014B12F8010B08B1A042F8D01CB178
:100BE000002802D06D1CF1E7284630BD40EA010321
:100BF000024630B59B0710D14FF0013400E008C227
:100C000008C91D1B9D4315EAC41FF8D013F0FF014E
:100C100002F8011B0DD01B0AF8E711F8013B002B6D
:100C200002F8013B05D011F8013B002B02F8013B13
:100C3000F3D130BD10B5431C02E010F8011B71B1B7
:100C40008107FAD14FF0013202C88C1A8C4314EAA2
:100C5000C211F9D0C01A0A0603D0C01E10BDC01AB6
:100C600010BD0A0401D0801E10BD0902FCD0401E38
:100C700010BD40EA010370B59B072ED14FF001363D
:100C8000042A2AD308C810C99D1B9D43121F15EAC8
:100C9000C61517D0D8B2E1B2401A50EA056110D19A
:100CA00098B2A1B2401A50EA05410AD123F07F4020
:100CB00024F07F41401A50EA052102D1180EA0EB22
:100CC000146070BDA342DBD018BA21BA884201D9A2
:100CD000012070BD4FF0FF3070BD0AB9002070BD1B
:100CE00010F8013B11F8014B63B1A3420AD1521E27
:100CF00008D010F8013B11F8014B1BB1A34201D100
:100D0000521EEDD1181B70BD421E12F8013F002B80
:100D1000FBD111F8013B002B02F8013BF9D17047E0
:100D2000032A40F2308010F0030C00F0158011F817
:100D3000013BBCF1020F624498BF11F801CB00F8EF
:100D4000013B38BF11F8013BA2F1040298BF00F843
:100D500001CB38BF00F8013B11F0030300F0258000
:100D6000083AC0F0088051F8043B083A51F804CB27
:100D7000A0E80810F5E7121D5CBF51F8043B40F8ED
:100D8000043BAFF30080D20724BF11F8013B11F8F8
:100D900001CB48BF11F8012B24BF00F8013B00F83C
:100DA00001CB48BF00F8012B704710B5203AC0F0C6
:100DB0000B80B1E81850203AA0E81850B1E818505C
:100DC000A0E81850BFF4F5AF5FEA027C24BFB1E899
:100DD0001850A0E8185044BF18C918C0BDE810400A
:100DE0005FEA827C24BF51F8043B40F8043B08BF13
:100DF0007047D20728BF31F8023B48BF11F8012BDA
:100E000028BF20F8023B48BF00F8012B70474FF085
:100E100000020429C0F0128010F0030C00F01B80C7
:100E2000CCF1040CBCF1020F18BF00F8012BA8BFD5
:100E300020F8022BA1EB0C0100F00DB85FEAC17C99
:100E400024BF00F8012B00F8012B48BF00F8012B4C
:100E500070474FF0000200B513469446964620397D
:100E600022BFA0E80C50A0E80C50B1F12001BFF463
:100E7000F7AF090728BFA0E80C5048BF0CC05DF8C9
:100E800004EB890028BF40F8042B08BF704748BF17
:100E900020F8022B11F0804F18BF00F8012B70478B
:100EA00010B5044610F0030F08BF11F0030F40F017
:100EB00015804FF0013E121FC0F20E8051F8043B26
:100EC000A3EB0E0C2CEA030C1CEACE1C08BF40F866
:100ED000043BF0D0A1F1040102F10402521E08DB30
:100EE00011F8013B002B00F8013BF7D11146FFF749
:100EF0008EFF204610BD00004FF0013C50F8042B3F
:100F000051F8043B9A4215D1A2EB0C03934313EA28
:100F1000CC130BD150F8042B51F8043B9A4209D161
:100F2000A2EB0C03934313EACC13E7D04FF000007D
:100F3000704700BFD01A01BAB1FA81F101F018016F
:100F400022FA01F0CB40C1F12001DBB2C0B2C01ADD
:100F50002CFA01F3D11A914311EAC311E6D170477B
:100F6000014901F04DBA000010E5002010B50368FA
:100F70001C1404EB21449BB289B2194494FBF2F394
:100F800002FB134394FBF2F401EB034393FBF2F1F6
:100F900002FB113193FBF2F301E05B1E11440029C7
:100FA000FBDB016003EB044010BDF0B504464FF0DD
:100FB000FF3585B00068049060680290A0680390D7
:100FC000E068019020690090666906F18040B0F108
:100FD000004F7CD83C22002104A8FFF7C7FF3C2229
:100FE000014602A8FFF7C2FF1822014603A8FFF737
:100FF000BDFF411E40F2B55201A8FFF7B7FF0C221A
:10100000074668460021FFF7B1FF414B00EB870020
:10101000304400267B4411E0511A01910099491C8B
:101020000229009102D00C2908D105E0810705D0E2
:101030000199491C019101E0401C00960099019A18
:10104000595C9142E8DD0099012906D11C2A04D19E
:10105000810702D00221CDE90016A0F146018B29BB
:101060003CD2DDE90061002202E09F5C521C394461
:10107000B242FADB012E02DD820700D0491E40F2A7
:10108000B55340F26D16C21700EB927292105A439C
:1010900000F0030303FB062283070A4400D1521E1B
:1010A000039E02EB4203049F06EBC303029EC3EBC5
:1010B000031306EB8303174E33441E149BB2C6EB97
:1010C0000616C3EB0313B60007EB830300E005E04D
:1010D00006EB134666F31F43360C02D0284605B0D4
:1010E000F0BD80C4029E40C4039E40C4019E761C95
:1010F00044F80C6B009E44E902600720521C92FBEE
:10110000F0F600FB162084E823001846E7E700000D
:10111000148F0300A039CEFD70B5054601B9072133
:10112000541A241DB4F5B67F09DD286800F05DF976
:10113000A04204DC2868401C2860012070BD002CFF
:1011400005DA2868401E286000F04FF904440720A3
:1011500094FBF0F0401C70BD2DE9F04F1F46154682
:101160008B468246002689B000F096F9D0F81080B0
:101170000024BBF1000F70D015F8010B10B1252829
:101180000DD10FE024B1641E06A850F82450F3E7F7
:10119000002130460AF8061009B0BDE8F08F0AF8C1
:1011A0000600C7E0E94615F8010B592870D023DC8A
:1011B00049286ED014DC44286DD008DC2528EED0F8
:1011C00041283ED0422849D043282CD156E045281A
:1011D000E9D0462869D0472876D0482823D17AE03C
:1011E0004D380C281FD2DFE800F0881E061E1E9B1B
:1011F000A0A9B3B5C1CFD6E75A38212813D2DFE86A
:1012000000F0111212121212121A263745501259FA
:101210002612741212797E128012891296A212B3CB
:10122000BDCB1100A8E725200AF80600761C5E4514
:1012300013D26D1EA0E7D8F80010BA69D8F82400C0
:1012400011E0D8F80410BA69D8F828000BE0D8F8F3
:1012500008103A69D8F82C0005E0B2E0D8F80C1074
:101260003A69D8F8300002FB001101EB0809AAE046
:1012700006A840F82450D8F818108AE0796964204C
:1012800091FBF0F21332484668A192E0FA6889E0D7
:101290008AE022E0FFE706A840F8245065A5641C18
:1012A0006AE7FA6866A1484683E006A840F8245039
:1012B00064A5F4E7384600F0ADF8642190FBF1F244
:1012C00001FB120258E0FFE7384600F0A3F802469F
:1012D0005FA168466DE0BA6864E0B8680C210B3025
:1012E00090FBF1F201FB120205E0FA6959A14846B0
:1012F000521C5EE03A694DA1F9E77A6852E00A2192
:1013000016E0B8680C2802DAD8F81010ADE7D8F863
:101310001410AAE706A840F82450D8F8341038E092
:1013200006A840F824504DA5B9E73A683AE00921EB
:101330000AF80610761C5E45B2D342E006A840F8D3
:10134000245048A5ABE7BA6902B9072248A1AAE729
:1013500000210CE0786900F26C700890D7E9061261
:1013600008A8FFF7D9FE06E0BA69EFE70121D7E93F
:10137000062000F02EF802462CA1AAE706A840F8A5
:101380002450D8F81C1004E006A840F82450D8F8DF
:10139000201001EB080582E77969642091FBF0F2E7
:1013A00000FB121221A17EE77A69484628A102F2C9
:1013B0006C7200F0D3F806E00AF80600761C5E4571
:1013C00001D30020E8E619F8010B00283FF4DFAE56
:1013D000F2E7511A00D5C91D401A01D50020704707
:1013E000072190FBF1F0401C704781070CD164216C
:1013F00090FBF1F201FB120151B94FF4C87190FB5F
:10140000F1F201FB120018B1002000F26D107047DC
:101410000120FAE708B5416901F26C710091D0E949
:1014200006126846FFF778FE009808BD252E326444
:1014300000000000256D2F25642F25790000000095
:101440002532640025592D256D2D256400000000EE
:1014500025640000252E33640000000025483A254D
:101460004D00000025483A254D3A25530000000064
:10147000252E3164000000007047704770477047A8
:1014800010B500F009F8001D10BD00BF8D4203002B
:101490000048704744E50020004870475CE50020A4
:1014A000004870473CE50020704770477047704720
:1014B00038B504460A4600206946AFF3008000288C
:1014C00008BF38BD02460099204600F0F9FF012010
:1014D00038BD012001F093BCF8B5AFF3008005469C
:1014E00000200C46102000BF0646A819A0420DD9C6
:1014F000324669460020AFF30080070008BF01F0C4
:101500007EFC0098A04218BF0546C419FFF7C0FF33
:1015100005600746F01D20F007004619284600F038
:101520000AF8B44208BFF8BDA21B31463868BDE8CE
:10153000F84000F0C5BF00210160C0E9011070470C
:101540001020704710B5FFF7ABFF006810BD10B555
:101550000446FFF7A5FF046010BD00000FB41CB5E2
:10156000084B06AA7B4469460090059800F09FFA54
:1015700004460020694600F0ADFA20461CBC5DF828
:1015800014FB00006D05000009684A0501D540B252
:101590007047C905FCD500B2704709684A0501D5F6
:1015A000C0B27047C905FCD580B270472DE9F0473D
:1015B0000D4699469246044600F1240801688806C3
:1015C00004D5E06921F01001216000E00120A8426B
:1015D00001DD471B00E00027A1697A1902EB090031
:1015E000081AA0612078C00602D42046FFF7D2F87E
:1015F000002608E0D4E901211AF806009047206A85
:10160000401C761C20624E45F4DB2078C0060AD5CB
:101610002046FFF7BFF806E0D4E9012130209047CB
:10162000206A401C2062381EA7F10107F4DC07E0A5
:10163000D4E9012118F805009047206A401C206277
:10164000281EA5F10105F3DC2046FFF7B9F8207844
:10165000000602D50220BDE8F0870120FBE71168F3
:101660000268006A530501D508700AE0D30501D568
:10167000088006E0130603D5C217C1E9000200E0A6
:1016800008600120704770472DE9FF4F0C461E4649
:101690004FF0FF378BB0D2E90001DDF860800A908F
:1016A0008A46C1F30A5505B93D46002108464FF068
:1016B0000000BAF1000F00F4400005DA00EB8000F2
:1016C0004FF4400101EA50004FEA9059B9F1010F7F
:1016D00000DDB9460A9850EA4A000ED044F6105090
:1016E000A5F2FF3545432F14B8F1000F1ED0754207
:1016F000291E1EDDC9F100021CE0B8F1010F4FF0F8
:10170000000001D0302103E0F24305E02154401CE9
:10171000B042FBDB30460022002121540B99C1F876
:101720000880C1E900200FB0BDE8F08FBD1B6D1C23
:10173000DEE74A4600DA694206A801F0C5FA06ABC0
:1017400093E8070003AB83E8070050460A9901F0CD
:101750000AFE8DE80700A0F500501F38009003989E
:10176000002D0ADD42F21F014A460844002303A966
:101770000390684602F0B6F809E0A0F500504A462A
:101780001F38002303A90390684602F0D5F88DE8BE
:1017900007000004000C03D04FF0FF30410800E0C8
:1017A0001046B8F1000F03D00022009215461EE04B
:1017B000751E05D400F09EFE303262556D1EF9D5BF
:1017C000B3460122084302D000227F1C04E02078A7
:1017D000302801D100227F1E002A099784D01DE005
:1017E000112D07DA00F086FE303262556D1C50EA8A
:1017F0000102F5D1084302D00098C8B10EE00021E3
:10180000681E05E0235C625C63542254401E491C40
:101810008142F7DBAB46A81B401E0990002004F86C
:101820000B000B98099AC0F80880C0E9002B7AE7F2
:1018300011264FF0000857E72DE9F04F884604467F
:10184000D21D22F0070191B0D1E90001CDE90A01D2
:101850000CF051FB02460B98C00F01D02D2007E081
:101860002068810701D52B2002E0202101EAC00079
:10187000032A099001D0072A05DB0346414620468A
:1018800001F004F80BE12078800601D5E06900E062
:101890000620B8F1650F814606D0B8F1660F18D062
:1018A000B8F1670F70D131E00020B9F1110F00904D
:1018B00001DB112301E009F101030AAA01A90CA827
:1018C000FFF7E2FEDDE90C70002609F10105834611
:1018D00047E001204B4600904FF000470AAA01A9BB
:1018E0000CA8FFF7D1FEDDE90DB00C995D4600268E
:1018F00010B909F101000D18B9EB050003D4C0F1CE
:10190000FF3609F10105A5EB09002BE0B9F1010F44
:1019100001DA4FF001090020B9F1110F009048469B
:1019200001DD112300E003460AAA01A90CA8FFF774
:10193000ABFEDDE90C704D4600268346207800079B
:101940000AD4AB4500DA5D4601A8012D04DD41193A
:1019500011F8011C302907D04F4502DA17F1040FA6
:1019600004DA012082460FE06D1EEEE7002F02DC54
:10197000ED1B3E4403E0781CA84200DD7D1CB81B33
:1019800000F1010A4FF000472078000703D4AA4570
:1019900001DB4FF0FF3A0021B7F1004F0DF1430892
:1019A0008DF8431024D002202B23002F01DA7F4230
:1019B0002D230A21021EA0F1010000DC5FB197FB7C
:1019C000F1FC97FBF1F201FB1C7C17460CF1300C8B
:1019D00008F801CDEEE7A8F10100037021880905A0
:1019E00001D5452100E06521A0F1010800F8011CA6
:1019F00009980FA9A1EB0807FF1D00B101204119AB
:101A000001EBEA70A1693844081A401EA0612078F1
:101A1000C00602D42046FEF7BDFE099828B1D4E9DD
:101A200001219047206A401C20622078C00622D500
:101A30002046FEF7AFFE1EE0002E04DBB34502DDBC
:101A400001A8805D00E03020D4E901219047206AA0
:101A5000401C2062761CAAF101005FEA000A0AD14C
:101A6000FFF71AFDC0680168405CD4E90121904786
:101A7000206A401C2062281EA5F10105DCDC07E07D
:101A8000D4E9012118F8010B9047206A401C20621C
:101A9000381EA7F10107F3DC2046FEF791FE032074
:101AA00011B041E601694A1C02610878704700B52F
:101AB0008FB0CDE901310021059105497944CDE987
:101AC000031011466846FEF73BFF0FB000BD000053
:101AD000E5FFFFFF0A6802F8010B0A607047D1E9D1
:101AE00000239A4202D2531C0B601070704710B54D
:101AF000436913B1AFF3008001E0FEF772FE0120ED
:101B000010BD127800F124010A7000224A700122EF
:101B1000EDE711684FF0FF32E9E70000074B70B5C1
:101B20000D467B44FFF7C3FF0446284601F03EF90B
:101B300010B14FF0FF3070BD204670BD2B980100F2
:101B40002DE9FF5F15468A460446DFF8AC80F8446D
:101B50000027D8E900103E46CDE9001010E03AF821
:101B600016106A4602A801F025F9411C07D0217819
:101B7000890603D5E269391891420DD80744761CCD
:101B80002078800602D5E069B84205DDAE42E6DB8A
:101B90003AF816000028E2D1A069C01BA0612046D7
:101BA000FEF7F8FDD8E90010CDE90010002017E09D
:101BB0003AF818106A4602A801F0FCF8B0F1FF3FAD
:101BC00081460BD000250DF1080B05E0D4E9012179
:101BD0001BF8050090476D1C4D45F7D308F1010037
:101BE000B0428046E4DB206A384420622046FEF79B
:101BF000E7FDBDE8FF9F0000D28303002DE9F0411F
:101C00008046D21D22F007020025D2E90002F52904
:101C100015A614D0011E72F1000106DA0023D0EBE4
:101C2000030063EB020211A608E0D8F800108B074E
:101C300001D50FA602E0490701D50EA601251146E0
:101C4000002408F1240704E000F054FC30323A5537
:101C5000641C50EA0102F7D12B4632462146404629
:101C6000BDE8F041FFF7A2BC000000002D0000001D
:101C70002B0000002000000030B4002100F12404FB
:101C800008E002F00705D208303542EA4372DB086B
:101C90006554491C52EA0305F3D10468002310A2DD
:101CA000250707D5A40600D421B1C46901230DA2DC
:101CB000641EC46130BCFFF779BC10B504462146F0
:101CC0001068FFF76AFC02462046BDE8104000237A
:101CD000D2E7D21D22F00701D1E90023CCE70000B2
:101CE00000000000300000002DE9FF4F06468BB0D9
:101CF0000878FF2806D0491C2D2805D000244FF075
:101D0000000908E000200CE00124F8E709EB890352
:101D1000491C00EB43090878FF28F7D114B1C9F139
:101D200000008146107800252C46AA4629462D2819
:101D300001D02B2804D1521C2D2813D0002082461C
:101D40008B461078FF280FD04FF0000C0A21521C50
:101D5000A5FB017804FB018105FB0C11C5194BEBB8
:101D60000104EEE70120EAE7002108464FF00000F9
:101D7000BAF1000F02D000EB80004008C0F3815799
:101D8000012F01DD4FF0FF370E9955EA040009EBF2
:101D900001080BD04FF0020918F5FA7F16DA4FEA66
:101DA000CA70002F706008DD012007E04FEACA709A
:101DB000C6E900B00FB0BDE8F08F00203060FFF73B
:101DC0006FFBC0F800901821084616E0B8F5FA7FBE
:101DD00018DD002F02DAF748784401E0F64878442D
:101DE000D0E90010C6E9001040EACA707060FFF741
:101DF00057FBC0F80090142108460FB0BDE8F04F23
:101E000033F011BD002108464FF00000B8F1000189
:101E1000099002DAC7F1000200E03A4601DAC8F19F
:101E2000000106A800F050FF06AB93E8070003ABE3
:101E300083E8070044F23E005BEA04010090584644
:101E400004D144F21E012C465D460091210C090488
:101E5000014306D10099240444EA15442D041039A5
:101E6000009104F07F41014306D10099240244EA25
:101E700015642D020839009104F07041014306D128
:101E80000099240144EA15742D01091F009104F002
:101E90004041014306D10099A40044EA9574AD0085
:101EA000891E009104F00041084304D100986D1987
:101EB0006441401E00904FF001033A466846B8F175
:101EC000000FCDE9014503A902DD01F04AFD01E063
:101ED00001F01DFDBAF1000F04460D4601D084F05B
:101EE0000044002108464FF00000099940F2FF77B6
:101EF000484010F00C0F07D124F00040284303D0D5
:101F0000C4F30A50B84212D1FFF7CAFAC0F80090E1
:101F1000C4F30A50B8420AD1A8487844D0E9001066
:101F2000C6E9001004F000410843706042E7C6E9CA
:101F300000543FE72DE9FF4F1F464FF0000A4FF0D6
:101F4000FF38454691B0D7E90146CDF83CA0FFF7F0
:101F5000A3FAC0680168405C1090B96912986D1CC2
:101F60008847396A814688470028F6D1B9F1FF3F92
:101F70000AD0002E24F4D06411DDB9F12B0F08D063
:101F8000B9F12D0F0BD102E0404615B013E744F430
:101F90008064B96912986D1C8847761E8146600579
:101FA00004A901D52D2000E02B20002E01F1010B0A
:101FB0000DF130088DF810003FDDB9F1690F08D040
:101FC000B9F1490F05D0B9F16E0F02D0B9F14E0F3A
:101FD0001CD13B4601A8009580E85002DDE91212B1
:101FE0006FF0020033F0C6FCC11CCED10EE0B9691F
:101FF00012986D1C884781461398761E44F400742D
:1020000005600F98401C002E0F9016DDB9F1300FBF
:10201000EDD0B9F1780F02D0B9F1580F0DD10F986A
:1020200001280AD13B46CDE90054DDE91212001F18
:10203000029633F09DFCC11CA7D1109989453ED171
:1020400044F0800406E01399681CAAF1010A44F4E4
:1020500000740860B9696D1C1298761E8847302894
:102060008146F0D02BE01099894505D1200603D494
:10207000761E44F0800418E048460CF0A3F808B33C
:10208000761E0DF123018B4544F4007408D2A9F1AA
:1020900030000BF8010B200607D5AAF1010003E080
:1020A000200602D40AF101008246A00502D5139948
:1020B000681C0860B96912986D1C88478146002E1B
:1020C000D1DC53E0002E51DDB9F1650F02D0B9F13A
:1020D000450F4BD1A00549D5B9696D1C1298761EE4
:1020E00024F440748847002E81460CDD2B2804D050
:1020F000B9F12D0F07D144F48074B96912986D1CA1
:102100008847761E8146E00501D52D2100E02B2170
:1021100008F8011BCDF8008021E0761E0DF1390191
:10212000884544F400740CD2A9F1300010F0FF008F
:1021300088F8000002D10099884509D908F1010802
:1021400006E0E00501D51E4801E042F20F7082462C
:10215000B96912986D1C8847814613980560002E56
:1021600004DD48460CF02EF80028D6D1F969129803
:102170008847FF2053468BF8000088F800000020B5
:102180000A900B9004AA0CA90AA8FFF7ADFDA005C0
:1021900002D46FF00100F8E614F0240F12D0E0072B
:1021A0001CD13868DDE90A12031D3B600068C0E9F4
:1021B000001213E0B8880300AA8803006E870300AA
:1021C000F1D8FFFF0AA968460BF076FFE00705D1BA
:1021D0003868009A011D3960006802602846D4E61C
:1021E000026811441378016018467047D1600549B0
:1021F0007944516104497944116200211161114609
:1022000000F0A8BBEDFFFFFF85030000426842B16C
:10221000016811F8013B23B1521EC0E900121846B3
:1022200070470121C160881E704742685AB1C36877
:10223000016843B983688B4205D0491E521CC0E92E
:102240000012002070474FF0FF3070472DE9F05F1B
:10225000824615468B4600270AF10104B9460078EC
:10226000302801D09DB113E014F8010B0127782824
:1022700003D0582801D045B10AE00DB1102D07D187
:10228000002714F8010B102502E0082500E00A25BC
:102290000026B0460EE005FB080005FB06F101270D
:1022A0001FFA80F801EB1046B6F5803F00D3B9461F
:1022B00014F8010B294600F03FFB0028EBDABBF1D4
:1022C000000F05D00FB1641E00E05446CBF800406B
:1022D000B9F1000F06D0FFF7E3F802210160C81E34
:1022E000BDE8F09F48EA0640FAE700000FB400237B
:1022F00000B589B00CA900910B99CB60214B7B44B0
:102300000693214B7B44079304236FF00042CDE9F1
:1023100001321E4A7A446B4608920246002033F08E
:1023200025FB09B05DF814FB70B506464FF0FF3091
:1023300015460C46324686B00091CDE9010169464A
:102340000020049004A8FFF7D1FF0246049821184A
:1023500025B108B1084600E020462860049800280E
:102360000DD0002A02DD0098884208D03246081BB2
:1023700069460094CDE9010404A8FFF7B7FF06B051
:1023800070BD00000BFFFFFF23FFFFFF670200008F
:102390002DE9F04791460F4680460446002614F882
:1023A000015B2DB1FFF76CF80068405DC007F6D106
:1023B0002B2D02D02D2D18D0641E4A4639462046BA
:1023C000FFF744FF27B13968A14201D1C7F8008067
:1023D0004FF0020471050BD54042002803DDFFF7E2
:1023E0005FF80460A007BDE8F08746F48066E4E784
:1023F0000028F8DAFFF754F804606FF00040F2E7C5
:1024000070B50C46016800204A1C3ED03C22B1FB4E
:10241000F2F302FB1313B1FBF2F12360B1FBF2F311
:1024200002FB1313B1FBF2F118226360B1FBF2F36C
:1024300002FB1313B1FBF2F146F2E0320A4407212A
:10244000A360B2FBF1F301FB132140F2B553B2FBE1
:10245000F3F5A161B2FBF3F103FB15228900B2F59C
:10246000B77F08D39B10521EB2FBF3F52944B2FB91
:10247000F3F503FB15220F4BE261616189077B4491
:102480000CD03B2A0AD3521C08E02C212046FEF730
:10249000E0FC0120E0600AE0521A401C195C914205
:1024A000FAD9521CC4E903204FF0FF3020622046C5
:1024B00070BD0000AA7A0300004870473CE5002088
:1024C000034640688C46002818BF88423CBF03463C
:1024D0004068F8D318681844884207D00CF103000C
:1024E00020F00700001D411A521A0146081D0A601B
:1024F000FDF7F0BF30B5B0F10A024FEA900E71F16E
:1025000000034EEA817EB0EB0E0061EB91014FEAD1
:10251000101E4EEA017E10EB0E0041EB11114FEA46
:10252000102E4EEA016E10EB0E0041EB11214FEA26
:10253000104E4EEA014E10EB0E0041EB11414018D7
:1025400041F100014FEAD00040EA41704FEAD10169
:1025500010EB80054FEA810444EA907444EB0104D7
:102560006D1944EB0404521BA3414FF0000348BF14
:102570000A3200D530BD401C41F1000130BD10B51C
:102580000446FEF77DFF0068005D00F0010010BD0D
:102590002DE9F04F04460D46D21D22F0070089B008
:1025A000D0E90097484639460BF0A5FC0246F80FE3
:1025B00001D02D2307E02068810701D52B2302E0FD
:1025C000202101EAC0038DF820300BB1012000E08A
:1025D0000020032A824601D0072A04DB2946204630
:1025E00000F054F93FE12078800601D40D2500E089
:1025F000E569C7F30A560D2D49DA00214FEA175B4A
:1026000008464FF00000002F00F4400007DA00EB0E
:1026100080004FF4400100EBD07001EA60008115AA
:10262000012901DD4FF0FF3100224FEA850CBCF19A
:10263000180F06D31346ACF118004FF08052C24079
:1026400003E04FF4801323FA0CF30CF10C0CBCF1F3
:10265000200F04D3ACF1200C09FA0CF001E007FACA
:102660000CF000294FF0004801DD18B90FE00ED141
:1026700040450CD319EB02095F4121B9404502D115
:102680009F4329EA0209BBEB175F00D0761C208824
:10269000000502D57B48784402E07A48784419382E
:1026A00008AA302302F80A30037C0AF10101002E47
:1026B0000AF1020A53546A4602DC4FF0300101E08D
:1026C0004FF031014FF001088DF8001002D0A6F252
:1026D000FF3603E059EA470100D06B4E002D02DCC3
:1026E0002178090704D54FF002082E218DF801103A
:1026F000C44600210BE0C7F303433F01C35C491C00
:102700006D1E02F80830052908F1010801DA002DD4
:10271000F1DC00210CE000EB1973491C1B786D1EE5
:10272000082902F808304FEA091908F1010801DA0E
:10273000002DF0DC21688B0602D516E0A8F1010817
:10274000E04505DD02EB080313F8013C302BF5D022
:10275000B8F1000F09DD02EB080313F8013C2E2B42
:1027600003D1090701D4A8F10108002D05DD3E21A0
:1027700002F808106D1E08F10108407C002E02F8D6
:10278000080008F1010804DA2D20764202F808005A
:1027900002E02B2002F808000A214FF47A708642EA
:1027A00008F101080BDB96FBF0F3303302F8083038
:1027B00096FBF0F308F1010800FB136601E0642EBC
:1027C0000CDB642096FBF0F3303302F8083096FB04
:1027D000F0F308F1010800FB136601E00A2E06DBA6
:1027E00096FBF1F0303002F8080008F1010896FB82
:1027F000F1F001FB1060303002F80800A16908F127
:10280000010808EB050202EB0A00081AA061207813
:10281000C00602D42046FDF7BDFF216A08AE01EBD9
:102820000A00206204E0D4E9012116F8010B904768
:10283000BAF1010AF7D22078C00602D52046FDF78A
:10284000A9FF6E4609E016F8010B3E280FD0D4E927
:1028500001219047206A401C2062B8F10108F2D2A1
:102860002046FDF7ADFF09B00320BDE8F08F206AD8
:102870002844206203E0D4E90121302090476D1EF6
:10288000EBD3F8E7B178030002FCFFFF2DE9F0413C
:102890001F46044603260168072A01F4006004DB92
:1028A00008B116A505E016A503E008B115A500E0DE
:1028B00015A521F010002060A069C01EA0610FB115
:1028C000401EA0612046FDF765FF4FB1D4E901210C
:1028D00038469047206A401C2062C01C206206E0F7
:1028E000206AFAE7D4E9012115F8010B9047761E1A
:1028F000F8D22046FDF764FFBDE8F0814E414E005E
:102900006E616E00494E4600696E660010B54369FF
:1029100013B1AFF3008001E0FFF712F9012010BD01
:10292000128800F1240182840022C2840122EDE792
:1029300011684FF0FF32E9E73A2800D2303820F032
:102940002002412A01D3A2F13700884201D34FF07F
:10295000FF3070472DE9F34F4FF0000A0C46564602
:102960008DB001200C9001F10C000B9062690B9866
:1029700001219047051E2DD0252D2CD0216A884796
:10298000C0B162690B9801219047216A88470028ED
:10299000F7D16269411E0B98904700E0761CA1694F
:1029A0000D988847216A88470028F7D1E1690D987A
:1029B0008847DBE7A1690D988847A842074601D1FF
:1029C000761CD3E7E1690D9888477F1C02D1BAF1E4
:1029D000000F6FD06BE162690B9800273D463946C6
:1029E00090472A2804D162690B980121904701255C
:1029F000DFF8D08262690B9801219047A0F1300185
:102A00000A290AD24745E5DC07EB870100EB4107BD
:102A1000303FDFD445F01005ECE7E90601D46FF054
:102A200000476C280AD04C2814D0682815D06A2892
:102A30000DD074281CD07A281AD01DE062690B983A
:102A4000012190476C2802D045F0040514E045F0C0
:102A500002050DE045F020050AE062690B980121AE
:102A60009047682802D045F0080505E045F4006568
:102A700062690B9801219047C4E9015765283DD050
:102A800019DC58287AD00CDC452837D004DC2528FE
:102A900026D041289ED131E046282FD0472899D111
:102AA0002CE05B2877D0612828D063287CD064286C
:102AB00023D15AE0F6E06F2848D008DC66281DD004
:102AC00067281BD0692821D06E2816D127E07028EE
:102AD00045D0732868D0752847D078280DD14DE0AF
:102AE000A1690D988847252805463FF469AFE1693B
:102AF0000D9888476D1C3FF46AAFD8E00D992346C6
:102B00006A466FF0010032F031FFC5E045F0400049
:102B100023464FF000026060A80736D43EE0E80785
:102B20007FF447AF2068011D21600068290501D5A9
:102B300006701BE7290701D5068017E7A90703D50B
:102B4000F117C0E9006111E706600FE745F04000AA
:102B500023464FF008026060A80716D41EE040F636
:102B60000E0125EA0100606016E045F040002346B2
:102B70004FF00A026060A80707D40FE045F040005C
:102B80006060A80708D5234610220D996FF0010058
:102B9000AFF3008080E007E0102223460D996FF02C
:102BA0000100AFF3008077E04FF0000963284F4643
:102BB000C8464B46CB4602D05B2806D038E0E80634
:102BC00001D40120A060012732E06269D4F80CB082
:102BD0000B98012190475E2807D14FF00109494623
:102BE0006269D4F80CB00B989047216939B900217B
:102BF0000A4603AB43F82120491C0829FADBD8B365
:102C0000216949B308F1010862690B9801219047D5
:102C10005D28F4D1B9F1000F09D0002003A951F8C3
:102C20002020D24341F82020401C0828F7DB03ABCA
:102C30002069002820794FEA40701ED05B4622466A
:102C4000CDF80080CDE901970D9900286FF00100C3
:102C500020DAAFF300801FE0C11703AA00EBD161B7
:102C60004B1121F01F0102EB8302411A136801206E
:102C7000884003431360C7E719E00D9922460028F6
:102C80006FF00100009702DAAFF3008004E0AFF3C9
:102C9000008001E0AFF3008000280ADA401C06D172
:102CA0000C9820B14FF0FF300FB0BDE8F08F5046C8
:102CB000FAE7E90701D10AF1010A064400200C9065
:102CC00054E60000CCCCCC0C2DE9F04781461646EA
:102CD0008AB0354878440DC88DE80D0032487844F4
:102CE000801C03AC0DC884E80D0041F69B300844FD
:102CF000372190FBF1F290FBF1F5A5F1800501FB86
:102D000012041B3C02D56442012000E00020DFF8E1
:102D100098A080460027FA44AAF1BE0A0EE0E00718
:102D20000AD03246684607EB470101230AEB8101CE
:102D300000F002FE8DE8070064107F1C002CEED12D
:102D4000194F7F44AE3F19E0E80715D007EB041098
:102D50000DF1180A90E80E008AE80E00C068F042F3
:102D600001D1981908903246012306A903A800F062
:102D7000E3FD03AB83E807006D10641C002DE3D175
:102D80004FF0010332466946B8F1000F03A802D0A4
:102D900000F0A8FD01E000F0CFFDC9E90001C9F88D
:102DA00008200AB0BDE8F08704730300007B00F040
:102DB0008000704770B516460C460546FEF760FB6E
:102DC000036893F80101012806D0FF2C0FD8185D85
:102DD00068B101202C7070BDD3F80701324621463E
:102DE00003F2071303442846BDE8704018474FF02C
:102DF000FF3070BD002801D00DF046B8704710B507
:102E000000F076FABDE81040FFF7F4BF7546FFF713
:102E100053FBAE4605006946534620F00700854641
:102E200018B020B5FDF714FBBDE820404FF00006B8
:102E30004FF000074FF000084FF0000B21F00701A2
:102E4000AC46ACE8C009ACE8C009ACE8C009ACE8E5
:102E5000C0098D46704700002DE9FF4F1F464FF017
:102E60003C0987B04FF00042DDE9141001F1010880
:102E7000DDF858A002EA40500390002005908346F8
:102E8000054604460490B969461E08988847AAF189
:102E9000010A0290BAF1000F3BDD02982E2815D0EE
:102EA0001021FFF749FD00282EDB4FF0010B05999B
:102EB000014317D0B9F1000F0BDB4A46C11700F0F0
:102EC0003FFA05430C43A9F1040905E001200490F1
:102ED0000BE008B145F0010501200590049820B9E8
:102EE000361D02E0049800B1361FB969089808F150
:102EF00001088847BBF1000FAAF1010A0290C9D06E
:102F00000999C1F80080C5E70298702808D05028B8
:102F100006D0F96908988847BBF1000F14D04FE03C
:102F2000002002900120BBF1000F049009D0B96984
:102F3000089808F101088847AAF10109B9F1000FC2
:102F400007DCF969089888476FF001000BB0BDE80D
:102F5000F08F2B2804D02D280CD14FF0FF30049097
:102F6000B969089808F101088847A9F10109B9F180
:102F7000000FE6DD411CE4D00A21FFF7DDFC00284C
:102F8000DFDB029908F1010801EB810100EB410050
:102F90000290B969089888470A21FFF7CDFC099A81
:102FA000A9F10109B9F1000FC2F8008001DD002884
:102FB000E7DAF969089888470499029800FB0166E6
:102FC00055EA040004D004F04041090002D006E0B4
:102FD000039898E0A40044EA9574AD00B61E04F08E
:102FE0000041080002D16D196441761E159810F059
:102FF000240F03D04FF00B095C4803E04FF0280981
:103000006FF07D008246564507DAAAEB0601894437
:10301000B9F1410F01DD4FF0410901200021A9F173
:10302000010200F08DF9024628400B46214008437A
:1030300001D0012100E00021501E029143F1FF3137
:1030400028402140084301D0012000E000200299DF
:10305000834651EA0B014FD0002108464FF0000093
:10306000039900F4400039B100EB80004FF44001B7
:1030700000EBD07001EA60008015012802DD4FF0FE
:10308000FF3000E013D0401C36D0029860B3BBF193
:10309000000F0CD14A460120002100F051F92840D0
:1030A0002140084301D0012000E00020E0B10120D0
:1030B0004A46002100F044F9034640190A4661419E
:1030C0002D1A8C4111D3B9F1400F09DD159810F07C
:1030D000240F02D0AAF1340603E0AAF1170600E09B
:1030E000761C00254FF0004406E05B1E42F1FF32E3
:1030F00020EA030521EA0204CAF10100B04206DA1F
:103100001B49039808430190002000900EE0039AA9
:10311000C4F3D321E80A0A43164940EA44500A435B
:103120003146CDE9000268460AF0D2FF159810F04A
:10313000240F0BD01598C00715D13868DDE90012AF
:10314000031D3B600068C0E900120CE002A869465C
:103150000AF0B2FF1598C00705D13868029A011D20
:103160003960006802604046F0E6000002FCFFFFA4
:103170000000F07F0000F03F2DE9FF4F92461D4612
:1031800085B04FF00041DDE9124BDDE914727F1E7E
:1031900001EA4B50414940F0FF4940EA0108002153
:1031A00022F020004928049102D04E2828D04CE07B
:1031B0003BA0012607C88DE80700A9690698641C92
:1031C00088477F1E014606D41DF8060018B121F07D
:1031D000200181420BD0E96906988847032E34D03C
:1031E000082E32D06FF0010009B0BDE8F08F761CD8
:1031F000032E01D0082EE0D1601CCAF80000DCE7E5
:10320000A9690698641C88477F1E2AD420F02000F4
:10321000412826D1A9690698641C88477F1E20D4BE
:1032200020F020004E281CD1A9690698641C88470C
:103230007F1E48F4002849F48009CAF8004001D4F0
:10324000282806D0E969069888475FEACB7012D033
:1032500022E0A9690698641C88477F1E01D40028D3
:1032600003DAE96906988847BCE72928F1D1641C8C
:10327000CAF80040E9E71BF0240F07D0286804993A
:10328000031D2B600068C0E9001805E02868021DD6
:103290002A600068C0F800902046A5E70000F07F93
:1032A000494E46494E4954590000000010B50446A5
:1032B000AFF300802046BDE81040FDF7B5B870B50B
:1032C00005460C460A2000E06D1C0CF0DEFD35B111
:1032D00028780028F8D102E0641C0CF0D6FD14B167
:1032E00020780028F8D1BDE870400A200CF0CDBD50
:1032F00010B5012805D0002103A0FFF7E0FF012051
:1033000010BD09A1F8E7000053494752544D454DFF
:103310003A204F7574206F662068656170206D6576
:103320006D6F7279000000003A2048656170206D71
:10333000656D6F727920636F727275707465640069
:10334000B2F120030AD5C2F1200301FA02F120FAFA
:1033500003F300FA02F041EA0301704700FA03F1B7
:103360004FF0000070475FEA400C08BF91F0000F7B
:103370004FEA8C234FEAC12243EA51514FEA1C50D5
:1033800018BF00F5F0404FEA300018BF41F000418F
:103390005FEA6C5C00F02980BCF1FF3F08BF40F0A1
:1033A00080407047130C06BF12044FF0100C4FF012
:1033B000000C130E04BF12020CF1080C130F04BF13
:1033C00012010CF1040C930F04BF92000CF1020CDB
:1033D000D30F04BF52000CF1010C11464FF0000254
:1033E000A0F11F00A0EB0C00704711F0004F08BFC8
:1033F000704731F000413FF4D5AF0B0C06BF090414
:103400004FF0100C4FF0000C0B0E04BF09020CF132
:10341000080C0B0F04BF09010CF1040C8B0F04BF47
:1034200089000CF1020CCB0F04BF49000CF1010C18
:10343000CCF12003A0EB0C0022FA03F302FA0CF209
:1034400041EA030100F10100704720F07F4C80EA5F
:10345000030023F07F47ACEB070303F57C5300F038
:10346000004003F1FF032DE980494FEA154B09B4F1
:103470004FEA144325EA0B4E24EA03480FF20426D0
:1034800006EB132749083E785FEA320203FB066722
:10349000C7F5000707FB06F64FEA54374FEAD64652
:1034A00006F1020607FB066CCCF1005C4FEA1C47F4
:1034B0002CEA074C07FB06F40CFB06F504EB15465B
:1034C0004FEA961634BF00204FF000404FEAD13744
:1034D00006FB07FC4FEA1C4C0CFB0BF7D21B03FB53
:1034E0000CF761EB07010CFB0EF7B0EB074072EB3A
:1034F00017420CFB08F734BFA2EB0742B2EB0742BE
:1035000061EB17414FEA0C444FEA910706FB07FCB9
:103510004FEA1C4C0CFB0BF7B0EBC74072EB573279
:1035200003FB0CF734BFA2EBC742B2EBC74261EB1F
:1035300057310CFB0EF7B0EBC70072EB57720CFB68
:1035400008F734BFA2EBC702B2EBC70261EB5771B9
:10355000039F4FEA816141EA921104EBCC044FEAE8
:10356000D1374FEA826206FB07FC42EA90124FEA2B
:1035700080604FEA1C4C0CFB0BF7D21B03FB0CF7D3
:1035800061EB07010CFB0EF7B0EB074072EB174243
:103590000CFB08F734BFA2EB0742B2EB074261EB2A
:1035A00017414FEA8C554FEA910704EB9C2406FB28
:1035B00007FC4FEA1C4C0CFB0BF7B0EBC74072EB5F
:1035C000573203FB0CF734BFA2EBC742B2EBC74242
:1035D00061EB57310CFB0EF7B0EBC70072EB577283
:1035E0000CFB08F734BFA2EBC702B2EBC70261EBDA
:1035F000577115EB4C254FEA816141EA92114FEA70
:1036000082624FEAD13742EA901206FB07FC44F18E
:1036100000044FEA80604FEA1C4C0CFB0BF7D21BF6
:1036200003FB0CF761EB07010CFB0EF7B0EB074057
:1036300072EB17420CFB08F734BFA2EB0742B2EB68
:10364000074261EB174115EB1C154FEA813141EA46
:1036500092414FEA823242EA90424FEA80304FEA8A
:103660000C7644F1000448EA03434EEA0B484FF05D
:10367000000EB2EB080C71EB030724BF624639461B
:103680004EEB0E0E4FF0000B0018524149414BEB30
:103690000B0BB2EB080C71EB03077BF1000B24BFA3
:1036A000624639464EEB0E0E4FF0000B00185241A9
:1036B00049414BEB0B0BB2EB080C71EB03077BF1B1
:1036C000000B24BF624639464EEB0E0E51EA02074C
:1036D00018BF46F0010616EB0E7655F1000254F1C4
:1036E000000103D5BDE88901BDE80088BDE8890176
:1036F000BDE80048B619524141EB0101A3F10103B5
:10370000704780807F7E7D7C7B7A7978777676754E
:103710007473727171706F6E6E6D6C6C6B6A6A69C6
:103720006868676666656464636362616160605F60
:103730005F5E5E5D5D5C5C5B5B5A5A5959585857D9
:103740005756565555555454535352525251515041
:1037500050504F4F4F4E4E4D4D4D4C4C4C4B4B4B94
:103760004A4A4A49494948484847474747464646DA
:103770004545454444444443434343424242424115
:103780004141000046EA0646A3F570534FEA16464B
:1037900046EA42564FEAD22242EA415210B54FEA77
:1037A000D121A3F1010300F02FF820F0004000F137
:1037B000020C00F0004701EB00501146BCF5006F11
:1037C00040EA070000D210BDBAF1000F0AD01CB5C4
:1037D00003B44FF004004FF004014FF000000FBCA1
:1037E000BDE810404FF00001BBF1010FB9BF044824
:1037F0004FF0FF310348002140EA070010BD00BF31
:10380000FFFFEF7F0000F07F002B9C4630D4770055
:103810002BD01CB54FEA370703B44FF010004FF020
:103820001001BAF1000F06D0BCF1000FDCBF40F070
:10383000080040F008014FF000000FBCBDE8104048
:103840000BF1010BBBF1010F08BF5FEA170722BFA5
:1038500012F1010211F101014FF0004143F10003A7
:1038600000F0004043EA00007047F9D35708D0E762
:1038700046EA064613F1400F4FEA16461FDD13F1E4
:10388000200FDFBF16430A46002120335B42BED023
:10389000C3F1200746EA064602FA07F74FEA164642
:1038A00046EA0706C3F1200722FA03F201FA07F7F6
:1038B00021FA03F14FF0000342EA0702A7E746EAC4
:1038C000020646EA06464FEA164646EA0106BCBF2D
:1038D00046EA0646360C4FF000034FF000024FF068
:1038E000000194E72DE9804C9A46934670B491E824
:1038F000380007C831EA400C48BF34EA430C03D50E
:10390000FFF7A3FDFFF780FFF0BCBDE8008C2DE9B9
:10391000804C9A46934670B491E8380007C831EA63
:10392000400C48BF34EA430C03D5FFF78EFDFFF788
:1039300029FFF0BCBDE8008C2DE9804C9A469346E7
:1039400070B491E8380007C810F0804F08BF13F03A
:10395000804F03D100F01AF8FFF756FFF0BCBDE826
:10396000008C2DE9804C9A46934670B491E838005B
:1039700007C810F0804F08BF13F0804F03D100F04C
:1039800005F8FFF7FFFEF0BCBDE8008C20F07F4794
:1039900080EA030023F07F4C07EB0C03A3F57C5374
:1039A00000F00040A3F1FE0392F0000F00F0B3809E
:1039B00095F0000F00F077802DE901494FEA1140A2
:1039C0004FEA144621EA004800FB06FC24EA0647B9
:1039D00008FB06F607FB08F800FB07F718EB06489C
:1039E0004CEB164C4FEA124B18EB07484FEA1546C2
:1039F0004CEB174022EA0B4E0BFB06FC25EA064770
:103A00000EFB06F607FB0EFE0BFB07F71EEB064E42
:103A10004CEB164C4FF000061EEB074E4CEB174BD1
:103A200018EB0B0840F1000018EB0E0B58EB0008E8
:103A300040F100008F1A4FF000013CBFC943661BE4
:103A400014BFB5EB040C00213CBFC943F61B4FEA81
:103A500017444EEA8E0E27EA04454FEA1C4704FB42
:103A600007622CEA074C05FB07F70CFB05F604FB85
:103A70000CFC16EB074642EB174216EB0C4642EBEA
:103A80001C421BEB060658EB0202414146EA9E0629
:103A900001D5BDE80189B619524141EB0101A3F1FD
:103AA0000103BDE801894FEA14454FEA114724EAB2
:103AB000054621EA074C05FB07F406FB07F70CFB5C
:103AC00006F105FB0CFC11EB074144EB17444FEAF0
:103AD000124711EB0C4144EB1C4422EA074C05FB56
:103AE00007F206FB07F70CFB06F605FB0CFC16EBD2
:103AF000074642EB174216EB0C4642EB1C456A1890
:103B000054F1000148BF7047B619524141EB010121
:103B1000A3F10103704795F0000F37D04FEA11422F
:103B20004FEA144721EA024624EA074C02FB07F158
:103B300006FB07F70CFB06F402FB0CFC14EB074436
:103B400041EB17414FEA154714EB0C4441EB1C4184
:103B500025EA074C02FB07F506FB07F70CFB06F608
:103B600002FB0CFC16EB074645EB174516EB0C4623
:103B700045EB1C42121951F1000148BF7047B619BC
:103B8000524141EB0101A3F1010370474FEA144593
:103B90004FEA114724EA054621EA074C05FB07F1E5
:103BA00006FB07F70CFB06F24FF0000605FB0CFCCA
:103BB00012EB074241EB174112EB0C4251EB1C4157
:103BC00048BF7047921841EB0101A3F10103704710
:103BD00010B54FF0000408B1A41E05E0034803F03F
:103BE000D3FE08B16FF00304204610BD400B002047
:103BF0000649C0EB401010B501EB800003F0D6FE83
:103C0000042801D0012010BD002010BD400B002071
:103C100070B54FF0000508B1AD1E1CE000F020F8B3
:103C2000012802D06FF0060515E00C4C204608F084
:103C3000AFF9204606F010FE6FF0030628B94FF4E6
:103C40008041204603F0FCFC08B1354603E0022128
:103C5000204603F093FC284670BD0000400B002076
:103C600010B16FF0010070470120704738B564252E
:103C70004FF00004002803FB05F001D0A41E06E06D
:103C80000090044804F0D4F808B16FF00304204613
:103C900038BD0000400B00207047000038B5642597
:103CA0004FF00004002803FB05F001D0A41E06E03D
:103CB0000090044804F0B6F908B16FF00304204600
:103CC00038BD0000400B0020704700000149002073
:103CD0000860704704000020014901200860704717
:103CE00004000020FEE70000124A2DE9F041111DFA
:103CF0001768081D0E681021056887EA060080EA2B
:103D000005040D4803F095FAA04211D02A46314629
:103D1000384621F0FDF9094C2AF020FF09F020F97E
:103D20000221204601F039FA0A2001F009F9F3E7EF
:103D3000BDE8F08100E8F11FC4020020000802582D
:103D4000014800F07BBD0000180A002005A010B556
:103D500000F0B2F820B107A0BDE81040FCF7DCBCD1
:103D60000BA0F9E7737973436F6E6669672E6A7308
:103D70006F6E00004661696C656420746F206C6F23
:103D8000616420636F6E666967210D0A00000000A0
:103D9000436F6E666967206C6F616465642073753C
:103DA000636365737366756C6C79210D0A0000009E
:103DB00005A010B500F02AF920B107A0BDE8104019
:103DC000FCF7AABC0BA0F9E7737973436F6E6669C1
:103DD000672E6A736F6E00004661696C65642074BB
:103DE0006F207361766520636F6E666967210D0AC7
:103DF00000000000436F6E6669672073617665643A
:103E0000207375636365737366756C6C79210D0A35
:103E10000000000011480DA110B5FCF7E7FE0F48A7
:103E20000FA12030FCF7E2FE0C4812A14030FCF755
:103E3000DDFE0A4864210A229FED110AC0E914122E
:103E400080ED160A80ED170A10BD000064656661FA
:103E5000756C745F737369640000000078E400207F
:103E600064656661756C745F70617373776F72649B
:103E70000000000031323334353637383930310004
:103E8000000000000A480023084A9FED0A0A037058
:103E900043708370C0E902230385438580ED0C0ADB
:103EA00080ED0B0A80F834307047000000D36C3886
:103EB000D8E40020000000002DE9F041ADF5925D4E
:103EC000014601AC0122204615F0AAFD00284FF062
:103ED000FF3666D141F22C056B466D442046F20D4B
:103EE000294615F07DFE0746204615F065FD002F9A
:103EF00057D10099002954D0002228466A540CF06A
:103F0000FEFE05004DD028A10CF0E2FE20B10169B3
:103F100020222848FCF7C4FF27A128460CF0D8FE31
:103F200028B10169202223482030FCF7B9FF26A1DF
:103F300028460CF0CDFE28B1016910221D48403002
:103F4000FCF7AEFF24A128460CF0C2FE194C08B1C4
:103F50004069206525A128460CF0BAFE08B14069E9
:103F6000606524A128460CF0B3FE30B100690AF068
:103F70005BF8B7EEC00B84ED160A21A128460CF0C1
:103F8000A7FE30B100690AF04FF8B7EEC00B84ED20
:103F9000170A28460CF06CFE00200DF5925DBDE876
:103FA000F0813046F9E70000776966695F737369ED
:103FB0006400000078E40020776966695F706173CF
:103FC00073776F726400000070686F6E655F6E7566
:103FD0006D6265720000000073637265656E5F62FA
:103FE00072696768746E657373000000766F6C7534
:103FF0006D6500006C617469747564650000000093
:104000006C6F6E6769747564650000002DE9F0419E
:10401000ADF5845D80460CF007FE05004FF0FF36DD
:1040200058D0394A39A10CF0B3FD374A3AA1284695
:1040300020320CF0ADFD344A3BA1284640320CF052
:10404000A7FD314C3CA1284694ED140AB8EEC00BF4
:104050000CF086FD94ED150A3CA12846B8EEC00B85
:104060000CF07EFD94ED160A41F230076F44B7EE76
:10407000C00A1021384637A28DED000BFCF76EFB0D
:1040800094ED170A0DF5825410212046B7EEC00AB0
:1040900030A28DED000BFCF761FB30A13A462846BB
:1040A0000CF076FD30A1224628460CF071FD284622
:1040B0000CF0AAFE04000AD002AF41460A2238469C
:1040C00015F0AEFC0028204609D0FCF703FA28467C
:1040D0000CF0CEFD30460DF5845DBDE8F081FCF7B7
:1040E000A9FD41F2500302466B442146384615F0C3
:1040F00096FE384615F060FC2046FCF7EBF92846A2
:104100000CF0B6FD0020E6E778E4002077696669E8
:104110005F73736964000000776966695F7061733B
:1041200073776F726400000070686F6E655F6E7504
:104130006D6265720000000073637265656E5F6298
:1041400072696768746E657373000000766F6C75D2
:104150006D650000252E3867000000006C617469F1
:1041600074756465000000006C6F6E676974756437
:104170006500000000B5C7B00AA0694615F0E5FD6E
:1041800050B1042806D1FFF745FE0AA0FCF7C4FA97
:10419000FFF70EFE47B000BD10A0FCF7BDFAFFF719
:1041A000D5FDF7E7737973436F6E6669672E6A739F
:1041B0006F6E000044503A636F6E666967206669EF
:1041C0006C65206E6F7420666F756E642C2075733D
:1041D000652064656661756C740D0A0044503A632D
:1041E0006F6E6669672066696C6520666F756E64C0
:1041F0000D0A0000024880ED160AC0ED170A70474C
:1042000078E40020102201460148FCF749BE000076
:10421000B8E4002010B50C46014606482022FCF701
:104220003FFE044820222146BDE810402030FCF724
:1042300037BE000078E4002010B5FFF723FEBDE88C
:104240001040FFF797BF704704484FF4007110B556
:10425000FCF7DDFD02490020088010BDFC0D0020A8
:104260003C00002010B5044600F0E8F958B90C48AD
:1042700009A1FCF7A9FC30B13A21FCF789FC002820
:1042800000D0401C10BD05200EF0AFF9641E2404C0
:10429000240CE9D1002010BD4950442C000000003E
:1042A000FC0D002010B5A2B0FFF7CEFF464844A198
:1042B00009F0F0FC002407E0641C032C01DD43A19D
:1042C00069E0FA200EF091F949A14AA000F05EF9E8
:1042D0000028F1D13C4849A109F0DCFC46A14AA0E4
:1042E00000F054F9FA200EF080F943A149A000F043
:1042F0004DF9FA200EF079F933484AA109F0CAFCC9
:10430000002407E0641C032C01DD49A143E0FA20EE
:104310000EF06BF936A150A000F038F90028F1D169
:10432000294851A109F0B6FC002407E0641C032CC5
:1043300001DD51A12FE0FA200EF057F92CA158A071
:1043400000F024F90028F1D15948802159A20090A9
:10435000A0F1200301A8FCF701FA1B485BA109F0BA
:1043600099FC002407E0641C032C01DD5AA112E033
:10437000FA200EF03AF962A101A800F007F900282E
:10438000F1D1114860A109F085FC00240CE0641C07
:10439000032C06DD60A10C4809F07CFC002022B053
:1043A00010BDFA200EF021F965A167A000F0EEF82B
:1043B0000028ECD104486FA109F06CFC0120EEE765
:1043C000302E2041540D0A00F00800204572726F13
:1043D000723A204553503832363620496E6974207F
:1043E0004661696C656420284154290D0A0000006B
:1043F0004F4B000041540D0A00000000312E2052A6
:1044000053540D0A0000000041542B5253540D0A1E
:104410000000000041542B434950434C4F53450D7D
:104420000A000000322E2043574D4F44450D0A002C
:104430004572726F723A20455350383236362049F1
:104440006E6974204661696C6564202843574D4F3E
:104450004445290D0A00000041542B43574D4F4459
:10446000453D310D0A000000332E2041542B4357A7
:10447000444843500D0A00004572726F723A20455D
:1044800053503832363620496E6974204661696C63
:1044900065642028435744484350290D0A00000012
:1044A00041542B4357444843503D312C310D0A00B1
:1044B00098E4002041542B43574A41503D22257334
:1044C000222C222573220D0A00000000342E2043E6
:1044D000574A41500D0A00004572726F723A2045EA
:1044E00053503832363620496E6974204661696C03
:1044F0006564202843574A4150290D0A00000000F6
:10450000474F542049500000352E20434950535402
:104510004152540D0A0000004572726F723A2045F4
:1045200053503832363620496E6974204661696CC2
:10453000656420284349505354415254290D0A00C0
:10454000434F4E4E4543540041542B43495053541E
:104550004152543D22544350222C227076652E61E4
:10456000667261696E2E746F70222C313838330D8B
:104570000A000000362E2045535038323636204986
:104580006E6974204F4B0D0A0000000070B5C824FE
:104590000E460546FCF74EFB82B20F484FF0FF3344
:1045A000294604F04BFE0DA02946FCF7B5F80EE0B5
:1045B00000F044F840B90D483146FCF705FB18B14E
:1045C000FFF742FE002070BD0A200EF00EF8601EBC
:1045D000C4B2EDD2012070BD840900201B5B3332D0
:1045E0006D2573201B5B306D00000000FC0D00206A
:1045F00030B589B00C460546FFF726FE09A12246D4
:104600006846FCF795F80BA16846FFF7BFFF002846
:1046100005D1431E08482246294604F00FFE09B082
:1046200030BD000041542B43495053454E443D2575
:10463000640D0A003E00000084090020064801883D
:1046400031B14288914205D100210180084670476E
:10465000012070474180FBE73C00002072B6FEE776
:10466000002200F001B800000E4B70B505469C7B9F
:104670000120022C15D29E7B002403F10C009C55D6
:104680009E7B03EB860675609D7B2A54987B421CBB
:104690009A733A232F22303008704B7020468A706C
:1046A000CC7070BD30D400200A490B4810B5FFF71C
:1046B000D7FF0B48012209A115F08EF90549491EC3
:1046C000087020B107A0BDE81040FCF725B812A083
:1046D000F9E7000072020020D49E0390303A0000F7
:1046E00040D40020534420636172642066696C6585
:1046F0002073797374656D206E6F742063726561C9
:104700007465642C207374617274696E6720666FBF
:10471000726D61740D0A00000D0A53442066696CC5
:10472000652073797374656D206D6F756E74656443
:10473000207375636365737366756C6C790D0A001D
:104740002DE9F041012417460D46064608F002FB0C
:10475000304600F05FF8C0B908F0FCFABB2008F062
:1047600071FB012811D16E1E002409E0B44201D171
:10477000002000E0012008F0BDFA3855641CE4B2C6
:10478000AC42F3D308F00AFB002408F007FB2046F4
:10479000BDE8F08110B508F099FB134C0022102100
:1047A000204600F002FD01222046082100F0FDFC19
:1047B00042F2107008F002FA00222046082100F0B0
:1047C000F4FC0A4808F0FAF901222046082100F01A
:1047D000ECFC074808F0F2F908F064FBBDE8104073
:1047E00044F6206008F0EAB900100258F0490200CF
:1047F0003057050070B50D46044608F0ABFA204668
:1048000000F008F810B9284608F01CFB08F0C6FABA
:10481000002070BD10B5044608F09CFABA2008F0DC
:1048200011FB012807D1200A08F00CFB012802D156
:10483000E0B208F007FB002010BD70472DE9F047FB
:104840000446006800274FF004084FF0010946684D
:104850000568F10714D0E90512D5036823F48073C5
:104860000360606E40F0010060662068C0F8089048
:1048700084F8618084F86070616A09B120468847D5
:10488000B00615D5A80413D520682022036823F4A8
:104890000053036020688260606E40F00200606632
:1048A00084F8618084F86070616A09B120468847A5
:1048B000300715D5280513D520680822036823F48E
:1048C0000063036020688260606E40F004006066F0
:1048D00084F8618084F86070616A09B12046884775
:1048E00070070CD568050AD52068026822F480623A
:1048F00002602068C0F80880204600F02DF8B0075C
:1049000013D5A80511D520680222036823F400738B
:10491000036020688260606E606684F8619084F84D
:104920006070216A09B120468847F00612D5E80474
:1049300010D52068016821F480510160226810219F
:104940009160616E616684F86190204684F86070C1
:10495000FFF773FFBDE8F087704700002DE9F84FBF
:10496000044600F02DFC00903CB194F8350002287C
:1049700006D0802161650020E4E00120BDE8F88FC9
:10498000C74DC74EC649183520683036DFF8148346
:10499000DFF814938842DFF814A3DFF814B32ED0A5
:1049A000A8422CD0B0422AD0404528D0484526D035
:1049B000504524D0584522D0BD4A183290421ED0CE
:1049C000BC4A90421BD0BB4A1832904217D0B94A19
:1049D0003032904213D0B74A483290420FD0B54A95
:1049E000603290420BD0B34A7832904207D0B14A3D
:1049F0009032904203D0AF4AA832904209D1026867
:104A000022F01E0202602068426922F080024261A8
:104A100003E0026822F00E02026027688F423846E7
:104A20004DD0A8424BD0B04249D0404547D0484530
:104A300045D0504543D0584541D09D4A1832904208
:104A40003DD09C4A90423AD09A4A1832904236D091
:104A5000984A3032904232D0964A483290422ED014
:104A6000944A603290422AD0924A7832904226D0BC
:104A7000904A9032904222D08E4AA83290421ED064
:104A80008D4A90421BD08C4A1432904217D08A4AE9
:104A90002832904213D0884A3C3290420FD0864A46
:104AA000503290420BD0844A6432904207D0824AFE
:104AB0007832904203D0804A8C32974204D1206EE3
:104AC000026822F48072026075492068884228D00A
:104AD000A84226D0B04224D0404522D0484520D01C
:104AE00050451ED058451CD071491831884218D005
:104AF0007049884215D06F491831884211D06D49EC
:104B0000303188420DD06B494831884209D069491B
:104B10006031884205D067497831884201D06549C3
:104B20009031016821F0010101600EE000F048FBC6
:104B30000099401A052808D9202262650321002027
:104B400084F8351084F8340017E73868C007EDD1D1
:104B5000534A0121206890422ED0A8422CD0B04266
:104B60002AD0404528D0484526D0504524D0584525
:104B700022D04F4B183398421ED04E4B98421BD038
:104B80004C4B1833984217D04A4B3033984213D0CD
:104B9000484B483398420FD0464B603398420BD075
:104BA000444B7833984207D0424B9033984203D01D
:104BB000404BA833984208D194F85C703F23A06D15
:104BC00007F01F07BB40836007E094F85C30A06DDE
:104BD00003F01F0301FA03F34360206890424DD0B5
:104BE000A8424BD0B04249D0404547D0484545D077
:104BF000504543D0584541D02D4A183290423DD0BF
:104C00002C4A90423AD02B4A1832904236D0294A48
:104C10003032904232D0274A483290422ED0254A34
:104C2000603290422AD0234A7832904226D0214ADC
:104C30009032904222D01F4AA83290421ED01E4A83
:104C400090421BD01C4A1432904217D01A4A283284
:104C5000904213D0184A3C3290420FD0164A50323C
:104C600090420BD0144A6432904207D0124A7832F4
:104C7000904203D0104A8C3290420BD1D4E91902F1
:104C80004260E06E30B1026822F480720260D4E9C2
:104C90001C024260002084F8351084F834006DE670
:104CA000100002405800024070000240880002409C
:104CB000A000024010040240085402582DE9F05FA1
:104CC00028B190F83510022904D0802141650120D7
:104CD000BDE8F09F904C904B0168183C18338E4A09
:104CE000DFF83C92A1428D4CDFF838E28E4FDFF8BE
:104CF0003CB2DFF83CA28F4D8F4E31D091422FD085
:104D000099422DD0A1422BD0494529D0714527D0B9
:104D1000B94225D0DFF810C20CF1180C61451FD044
:104D2000DFF808C2ACF1600C614519D0DFF8FCC1B6
:104D3000ACF1480C614513D0DFF8F0C1ACF1300C98
:104D400061450DD0DFF8E4C1ACF1180C614507D026
:104D5000594505D0514503D0A94201D0B1422CD1CB
:104D6000DFF8B4C14FF0040880F83580ACF1180CBE
:104D700061451DD091421BD0994219D0A14217D054
:104D8000494515D0714513D0B94211D06648183045
:104D900081420DD065486038814209D06348483867
:104DA000814205D061483038814201D05F481838CF
:104DB000086820F001000860ABE0D1F800C02CF0DA
:104DC0000E08DFF854C1C1F80080ACF1180C01687E
:104DD000614527D0914225D0994223D0A14221D0CC
:104DE00049451FD071451DD0B9421BD0DFF838C1ED
:104DF0000CF1180C614515D0DFF830C1ACF1600C36
:104E000061450FD0DFF824C1ACF1480C614509D0F1
:104E1000DFF818C1ACF1300C614503D0DFF80CC1EC
:104E2000ACF1180CD1F800C02CF0010CC1F800C096
:104E3000DFF8E4804FF0010C0168A8F11808414543
:104E400046D0914244D0994242D0A14240D04945F7
:104E50003ED071453CD0B9423AD0334A18329142E3
:104E600036D0324A603A914232D0304A483A914282
:104E70002ED02E4A303A91422AD02C4A183A9142EA
:104E800026D0594524D0514522D0A94220D0B14244
:104E90001ED02A4A91421BD0284A1432914217D080
:104EA000264A2832914213D0244A3C3291420FD0F4
:104EB000224A503291420BD0204A6432914207D0AC
:104EC0001E4A7832914203D01C4A8C32914218D14A
:104ED000016E0A6822F480720A6090F85C20816D8D
:104EE00002F01F020CFA02F24A60D0E919124A607D
:104EF000C16E31B10A6822F480720A60D0E91C12D6
:104F00004A600022016D80F835C080F8342001B17C
:104F100088470020DCE600002800024058000240DC
:104F20007000024088000240A0000240700402406D
:104F300088040240A0040240B80402400854025809
:104F400070B5044600F03CF90546601C02D00448E8
:104F50000078044400F034F9401BA042FAD370BD3D
:104F6000180000202DE9F84F03247D4D00234FF059
:104F700001094FF0B04B4FF00F0AE9E009FA03F7CF
:104F80003A4076D00E7906F00306012E01D0022EAB
:104F900018D1D0F808C04FEA430ECE6804FA0EF8D4
:104FA0002CEA080C06FA0EF646EA0C068660D0F8E3
:104FB00004C00E792CEA070CC6F300169E4046EAA0
:104FC0000C0646600E79F643B6070BD0C6684FEA6A
:104FD00043088F6804FA08FC26EA0C0607FA08F76B
:104FE0003743C7600E7906F00306022E12D1DE08A1
:104FF0000F694FEA437C00EB8606B646366A4FEAF5
:10500000DC6C0AFA0CF807FA0CF726EA08063743B4
:10501000CEF820700F7906684FEA430807F00307BF
:1050200004FA08FC07FA08F726EA0C06374307607B
:105030004E6816F4403F1CD04A4E376847F00207CE
:10504000376036689F0706F00206009623F00306D5
:1050500006F1B046B6463F0FD6F80864DFF808817F
:105060000AFA07FC404526EA0C0603D14FF0000C73
:1050700041E06CE0DFF8F4C0604502D14FF0010C74
:1050800039E0DFF8ECC0604502D14FF0020C32E0AD
:10509000DFF8E0C0604502D14FF0030C2BE0DFF8F1
:1050A000D8C0604502D14FF0040C24E0DFF8CCC03A
:1050B000604502D14FF0050C1DE0DFF8C4C060452B
:1050C00002D14FF0060C16E0DFF8B8C0604502D1FF
:1050D0004FF0070C0FE0DFF8B0C0604502D14FF091
:1050E000080C08E0DFF8A4C0604502D14FF0090CBD
:1050F00001E04FF00A0C0CFA07FC4CEA060CCEF863
:1051000008C44F68DBF80060FF0226EA020600D5FB
:1051100016435F46CBF80060D1F804C0DBF80460AA
:105120005FEA8C2C26EA020600D516437E606E6884
:105130004F6826EA0206BF0300D516436E602E684C
:105140004F6826EA0206FF0300D516432E605B1C5B
:105150000A6832FA03F67FF411AFBDE8F88F000059
:1051600080000058F444025800000258000402581D
:1051700000080258000C025800100258001402588F
:1051800000180258001C025800200258002402583F
:105190000069084000D001207047426921EA0203FB
:1051A0000A4043EA0241816170470AB18161704758
:1051B0000904FBE701480068000C70470010005C20
:1051C000014880687047000018000020024881688C
:1051D000027811448160704718000020032010B548
:1051E00000F0DEFA01F0C8FC0F4A10491468136899
:1051F000C4F3032203F00F038A5CC95C02F01F02B0
:1052000001F01F01D0400A4A20FA01F1116009495A
:1052100008600F2000F010F808B1012010BD00F068
:1052200083FA002010BD000018440258D45903909E
:10523000280000202400002070B50D4D0446287879
:10524000A0B14FF47A71B1FBF0F00A490968B1FBE3
:10525000F0F002F0D5FF48B9102C07D20022214609
:10526000501E00F07DFA00206C6070BD012070BD02
:105270001800002024000020F0B590F8A040012C78
:1052800007D0012680F8A060022480F8A140002504
:105290001FE00220F0BD00BF03EB830404EBC30456
:1052A00000EB8404A46C062C1CD00F68FCB207F43D
:1052B0007F4C44EA056407F47F0744EA0C043C434E
:1052C00007684FF0C40C0CEBC31C47F80C40091DD9
:1052D0006D1C9542E0D3002180F8A16080F8A010F9
:1052E0000846F0BDD1F800C005EB051E0CF0FF0428
:1052F0000CF47F4744EA0E643C430CF47F0C44EA10
:105300000C04DDE72DE9F041044690F8A0001646B4
:105310000F4601281DD0012584F8A050022084F8F2
:10532000A10006EB860000EBC600342204EB8000EF
:105330003830FBF73AFD32463946204604F020FB70
:10534000216800204D6284F8A15084F8A000BDE8D7
:10535000F0810220FBE710B590F8A020012A16D0BA
:10536000012280F8A020022480F8A140842303EBCE
:10537000C11350F8A01BCC5844F01004CC5050F886
:10538000A03C00215A6242700170084610BD022004
:1053900010BD70472DE9F0410446006800274FF02A
:1053A0000408856B466B690715D5710713D5426BE9
:1053B00022F0040242632068C0F83C80D4F8A400C4
:1053C00040F00100C4F8A40084F8A180204684F8CD
:1053D000A070FFF7DEFFA80716D5B00714D5206828
:1053E0000222436B23F0020343632068C263D4F8B4
:1053F000A40040F00200C4F8A40084F8A180204674
:1054000084F8A070FFF7C5FF05EA06004FF0010819
:10541000C0070ED021684A6B22F001024A6321685E
:10542000C1F83C8084F8A180204684F8A07000F088
:1054300091F8280710D530070ED520680822436B55
:1054400023F0080343632068C26384F8A1802046E8
:1054500084F8A07000F018F9BDE8F0812DE9F04162
:10546000040004D094F8A100002518B107E0012041
:10547000BDE8F081204684F8A05000F06DF8344873
:10548000022184F8A110012202CC8B6923F0704321
:105490008B6194E84A001943E3681E4354F8043DC5
:1054A00031439E693143996121688B6803408B6069
:1054B0002168A68AA7698B683B4343EA06438B6051
:1054C0002168CB680340CB602168A38B276ACE6834
:1054D0003E4346EA0346CE6021680B6903400B61F8
:1054E0002368A68CA76A1969394341EA0641196104
:1054F00021684B6903404B612068A38D266B41698D
:10550000314341EA03414161236894F8351094F82E
:105510003600DE6A000406F07F46DE62236840EA59
:10552000012094F83460D96A31430143D96220687C
:10553000416B41F0060141632068816941F001013E
:105540008161C4F8A45084F8A120002090E70000F5
:1055500000F800F070470000F0B587B00446142151
:105560006846FBF776FC4149206888427BD1404879
:10557000016841F008010160006800F00800059032
:105580003B48001F016841F004010160016801F01F
:1055900004010591016841F001010160016801F019
:1055A00001010591016841F002010160016801F00B
:1055B00002010591016841F010010160016801F0EC
:1055C00010010591016841F008010160016801F0D6
:1055D00008010591016841F00801016000680E2191
:1055E0000024029400F00800059002200125C12249
:1055F000CDE90351CDE900201E486946FFF7B2FC12
:105600007A2000901C486946FFF7ACFC4FF47840C4
:1056100000901A486946FFF7A5FC194E4FF47060D8
:10562000694600903046FFF79DFC164F4FF48960A5
:10563000694600903846FFF795FC03200090092149
:10564000304604916946FFF78DFCEE033846002290
:105650003146FFF7AAFD00966946CDE90154384668
:105660000394FFF77FFC07B0F0BD0000001000506E
:10567000E444025800080258000002580010025882
:1056800000040258000C025870470000154BF0B59A
:10569000083B427813491A600B680A1F23F0010384
:1056A0000B6043681360057BC67A827A437B2D07C3
:1056B000847B45EA0665C77B90F809C0067A90F8B6
:1056C00000E045EAC24040EA834040EA444040EA04
:1056D000074040EA0C2040EA460040EA0E0008601D
:1056E000F0BD0000A0ED00E0BFF35F8F0448002193
:1056F0000368034A23F480330360703211607047FB
:1057000024ED00E0074A40F00100064970321060C5
:10571000086840F480300860BFF34F8FBFF36F8F8D
:105720007047000024ED00E0054808B5016841F02D
:1057300002010160006800F00200009008BD000056
:10574000F4440258002809DB410900F01F028900D7
:10575000012001F1E0219040C1F8000170470000F4
:105760000E4BF0B41B680D46C3F30223C3F10706CA
:10577000042E00D90426191D072901D2002300E0B8
:10578000DB1E012404FA06F19C40491E2940641ED8
:10579000994014402143F0BC08F0C5BB0CED00E07B
:1057A000064900F0070210B54FF6FF040868044BE5
:1057B000204040EA02201843086010BD0CED00E0D4
:1057C0000000FA05134970B50A68D243520705D59F
:1057D000096801F00701814213D118E00A6822F03C
:1057E000070202430A60FFF7EBFC0A4D4FF47A769A
:1057F0000446083D07E000BFFFF7E2FC001BB04293
:1058000001D9012070BD2868C0438004F4D4002071
:1058100070BD00000C4802580248016841F48071D4
:10582000016070470048025810B501F05FF9054962
:105830000968054AC1F30211515C01F01F01C8401B
:1058400010BD000020440258D45903904A4930B595
:10585000494C0B1D0A680C3409681D68246802F065
:10586000030305F00102C1F30511C4F3CC040029C0
:1058700014FB02F200EE102AF8EE400A76D0414AFC
:105880009FED3E1ADFED3E1AB7EE000A23B1012B61
:105890005AD0022B18D15CE0374C283C23689B0679
:1058A00012D5394B246801EE901A1168C4F3C10473
:1058B000F8EE612AE34001EE903AC1F30801F8EEF8
:1058C000611A81EEA22A07E002EE101A1168F8EEC2
:1058D000422A81EEA22A45E001EE901A1168F8EE04
:1058E000611A40EE811A71EE800A62EE200AC1F35D
:1058F000462101EE101AB8EE411A31EE001AC0EE40
:10590000811ABCEEE11A80ED001A1168C1F306415C
:1059100001EE101AB8EE411A31EE001AC0EE811AEB
:10592000BCEEE11A80ED011A1168C1F3066101EEC7
:10593000101AB8EE411A31EE000A80EE801ABCEE61
:10594000C10A80ED020A30BD01EE901ADFED0F2A88
:1059500003E001EE901ADFED0E2A1168F8EE611AED
:1059600082EEA12AC1F30801B6E7FFE7002101603A
:105970004160816030BD00002844025800000039B9
:105980000024744C304402580090D0030024744A20
:1059900020BCBE4B494930B5484C0B1D0A68143435
:1059A00009681D68246802F00303C5F30012C1F3FF
:1059B0000531C4F3CC04002914FB02F200EE102AD6
:1059C000F8EE400A75D03F4A9FED3D1AB7EE000A47
:1059D0006BB1DFED3D1A012B01D0022B64D002EE3A
:1059E000101A1168F8EE422A81EEA22A21E0334C07
:1059F000283C23689B0612D5344B246801EE901A8C
:105A00001168C4F3C104F8EE612AE34001EE903A54
:105A1000C1F30801F8EE611A81EEA22A0BE001EE53
:105A2000901ADFED2B2A00BFF8EE611A116882EEA2
:105A3000A12AC1F3080101EE901A1168F8EE611A6B
:105A400040EE811A71EE800A62EE200AC1F346210F
:105A500001EE101AB8EE411A31EE001AC0EE811AAA
:105A6000BCEEE11A80ED001A1168C1F3064101EEA7
:105A7000101AB8EE411A31EE001AC0EE811ABCEECF
:105A8000E11A80ED011A1168C1F3066101EE101AE6
:105A9000B8EE411A31EE000A80EE801ABCEEC10A5F
:105AA00080ED020A30BD04E001EE901ADFED092A14
:105AB000BAE70021016041608160F3E728440258A1
:105AC00000000039384402580024744A0090D00382
:105AD0000024744C20BCBE4B494930B5484C0B1DCA
