:0200000490006A
:10000000780A0120A5030090775A0090434D009094
:10001000755A0090AD190090B57600900000000070
:100020000000000000000000000000004B5F009096
:10003000BD19009000000000015B00904D5F009032
:10004000BF030090BF030090BF030090BF03009068
:10005000BF030090BF030090BF030090BF03009058
:10006000BF030090BF030090BF030090BF03009048
:10007000BF030090BF030090BF030090BF03009038
:10008000BF030090BF030090BF030090BF03009028
:10009000BF030090BF030090BF030090BF03009018
:1000A000BF030090BF030090BF030090BF03009008
:1000B000BF030090BF030090BF030090BF030090F8
:1000C000BF030090BF030090BF030090BF030090E8
:1000D000BF0300909D760090BF030090A97600902A
:1000E000BF030090BF03009000000000BF0300901A
:1000F000BF030090BF030090BF030090BF030090B8
:10010000BF030090BF030090BF030090BF030090A7
:10011000456A0090BF030090BF030090BF030090AA
:10012000BF030090BF030090BF030090BF03009087
:10013000BF030090BF030090BF030090BF03009077
:1001400000000000000000000000000000000000AF
:10015000BF030090BF030090BF030090BF03009057
:10016000BF030090BF030090BF030090BF03009047
:10017000BF030090BF030090BF030090BF03009037
:10018000BF030090BF030090516A0090BF0300902E
:10019000BF030090BF030090BF030090BF03009017
:1001A000A1530090BF030090B1190090BF030090CD
:1001B000BF030090BF030090BF030090BF030090F7
:1001C000BF030090BF030090BF030090BF030090E7
:1001D000BF030090BF030090BF030090BF030090D7
:1001E000BF030090BF030090BF030090BF030090C7
:1001F000BF030090BF030090BF030090BF030090B7
:10020000BF030090BF030090BF030090BF030090A6
:10021000BF030090BF030090BF030090BF03009096
:10022000BF030090BF030090BF03009000000000D8
:10023000BF030090BF03009000000000BF030090C8
:10024000BF030090BF030090BF030090BF03009066
:10025000BF030090BF030090BF030090BF03009056
:10026000BF030090BF030090BF030090BF03009046
:10027000BF030090BF030090BF0300900000000088
:10028000BF030090BF030090BF0300900000000078
:1002900000000000BF03009000F002F800F072F8C8
:1002A0000AA090E8000C82448344AAF10107DA45D1
:1002B00001D100F067F8AFF2090EBAE80F0013F0B1
:1002C000010F18BFFB1A43F001031847CCEB0200E3
:1002D000ECEB02000A444FF0000C10F8013B13F065
:1002E000070408BF10F8014B1D1108BF10F8015B8F
:1002F000641E05D010F8016B641E01F8016BF9D182
:1003000013F0080F1EBF10F8014BAD1C0C1B09D1D8
:100310006D1E58BF01F801CBFAD505E014F8016B4A
:1003200001F8016B6D1EF9D59142D6D370470000DC
:100330000023002400250026103A28BF78C1FBD8EE
:10034000520728BF30C148BF0B60704766292AF0AA
:100350006A82642900F03481782900F06D81732964
:1003600000F01386002070471FB52AF057FA00F0FE
:1003700023FE0400002000212AF03AFAE0601FBDAD
:1003800010B510BD00F01CFF1146FFF7EDFF25F082
:1003900073FE00F03AFF03B4FFF7F2FF03BC09F06D
:1003A00033F800000948804709480047FEE7FEE7A8
:1003B000FEE7FEE7FEE7FEE7FEE7FEE7FEE7FEE715
:1003C00004480549054A064B704700003960009013
:1003D0009902009078CA0020780A012078DA00207B
:1003E00078DA0020704753EA020C00F069802DE9AA
:1003F000F04B4FF00006002B1FBFB3FA83F503FA52
:1004000005F424FA05F65E4012BF1643B2FA82F5EF
:1004100002FA05F4C5F120051EBF22FA05FC44EAE4
:100420000C04203556EA044C4FEA144418BF641CEF
:100430004FF000084FF00009904271EB030C39D3E4
:10044000002919BFB1FA81F701FA07F6B0FA80F76F
:1004500000FA07F6C7F120071EBF20FA07FC46EA9C
:100460000C062037B6FBF4FCA7EB0507103F07F09E
:100470001F0BCBF120060CFA0BFB2CFA06F644BF3F
:10048000B3460026202FA4BF5E464FF0000B5BEA68
:10049000060C08BF4FF0010B19EB0B09ABFB027CFC
:1004A00048EB0608C01B06FB02CC0BFB03CC71EB30
:1004B0000C01C1E70B46024641464846BDE8F08BB9
:1004C00013B54FF000004FF00001AFF30080BDE81E
:1004D0001C4070470FB4044910B503AA029800F0FD
:1004E00059FD10BC5DF814FB040000200FB41CB5CE
:1004F0000C0007AA009001D02044401E074B7B440B
:1005000069460190069800F00EFD002C03D0694664
:10051000002000F01BFD1CBC5DF814FB550A000018
:1005200070B5044685690068C10601D5302600E033
:100530002026C00707D070BDD4E90121304690477E
:10054000206A401C20626D1EF6D570BD70B5044651
:1005500085690078C00707D170BDD4E9012120204A
:100560009047206A401C20626D1EF6D570BD70B5A4
:100570000C460546012A05D02878800600D5EA6990
:10058000002302E0012305E05B1C934202D2E05C01
:100590000028F9D1A869E618C01AA861286A184489
:1005A00028622846FFF7BCFF04E0D5E9012114F8D2
:1005B000010B9047B442F8D32846FFF7C7FF70BD40
:1005C0002DE9F0410646002410687529314616A52C
:1005D00010D0AFF30080002802DA404213A507E0F4
:1005E00031688A0701D512A502E0490704D511A593
:1005F000012401E0AFF3008000210A2206F1240764
:1006000009E0B0FBF2FCB0FBF2F302FB1C0030305F
:1006100078541846491C0028F3D123462A46304610
:10062000BDE8F04100F012BA000000002D0000000B
:100630002B0000002000000070B504460D46214646
:100640001068AFF300802188090502D50F4A7A446B
:1006500002E00E4A7A440E32002104F1240305E040
:1006600000F00F060009965D5E54491C0028F7D182
:1006700020780023000704D5702D02D009B1022391
:1006800011322046BDE8704000F0E0B9AAE2020055
:100690002DE9F05F894604464FF0000ADFF874B197
:1006A000FB44C0F820A02046E1688847002874D0A9
:1006B000252806D0D4E901219047206A401C2062F9
:1006C000F1E700265F462046E16888472028054676
:1006D00007DB312D05D2781910F8200C08B106433C
:1006E000F1E7B00701D526F00406C4F81CA00027E6
:1006F000C4F818A02A2D09D0284607F023F838B3EB
:1007000004EB8708303DC8F8185019E059F8041B6D
:10071000204604EB87029161E1688847012F054676
:1007200018D1E069002820DA26F020061DE0D8F86C
:10073000180000EB800005EB40003038C8F81800C6
:100740002046E1688847054606F0FCFF0028EED108
:10075000012F0AD02E2D08D12046E16888477F1C42
:100760000546022F46F02006C4DBA069002803DA04
:10077000404246F00106A061F00701D026F01006C5
:100780006C2D0BD0682D09D04C2D39D06A2D35D069
:10079000742D35D07A2D33D016E038E0E1682F463D
:1007A00020468847B842054609D16C2F26D04FF421
:1007B0008060E168064320468847054604E06C2FC8
:1007C0001AD04FF4807006430DB3A5F141001928EB
:1007D00002D8203546F400664A462946204626605F
:1007E0004E46FFF7B3FD80B101280BD0F61D26F071
:1007F000070000F1080956E74020E4E78020D8E729
:100800000020D6E706F104094DE7284652E7206AA2
:10081000BDE8F09F80E2020040EA0103024630B5E5
:100820009B0710D14FF0013400E008C208C91D1B1E
:100830009D4315EAC41FF8D013F0FF0102F8011B15
:100840000DD01B0AF8E711F8013B002B02F8013B21
:1008500005D011F8013B002B02F8013BF3D130BD6C
:1008600010B5431C02E010F8011B71B18107FAD1E9
:100870004FF0013202C88C1A8C4314EAC211F9D02D
:10088000C01A0A0603D0C01E10BDC01A10BD0A044B
:1008900001D0801E10BD0902FCD0401E10BD032AED
:1008A00040F2308010F0030C00F0158011F8013B8D
:1008B000BCF1020F624498BF11F801CB00F8013B74
:1008C00038BF11F8013BA2F1040298BF00F801CB38
:1008D00038BF00F8013B11F0030300F02580083A0F
:1008E000C0F0088051F8043B083A51F804CBA0E866
:1008F0000810F5E7121D5CBF51F8043B40F8043BBB
:10090000AFF30080D20724BF11F8013B11F801CBEF
:1009100048BF11F8012B24BF00F8013B00F801CBC0
:1009200048BF00F8012B704710B5203AC0F00B808B
:10093000B1E81850203AA0E81850B1E81850A0E8E3
:100940001850BFF4F5AF5FEA027C24BFB1E818503D
:10095000A0E8185044BF18C918C0BDE810405FEAAD
:10096000827C24BF51F8043B40F8043B08BF704729
:10097000D20728BF31F8023B48BF11F8012B28BF2E
:1009800020F8023B48BF00F8012B70474FF00002EF
:1009900000B5134694469646203922BFA0E80C5075
:1009A000A0E80C50B1F12001BFF4F7AF090728BF50
:1009B000A0E80C5048BF0CC05DF804EB890028BFCC
:1009C00040F8042B08BF704748BF20F8022B11F0F5
:1009D000804F18BF00F8012B704700004FF0013C1A
:1009E00050F8042B51F8043B9A4215D1A2EB0C03AA
:1009F000934313EACC130BD150F8042B51F8043B6A
:100A00009A4209D1A2EB0C03934313EACC13E7D02B
:100A10004FF00000704700BFD01A01BAB1FA81F15F
:100A200001F0180122FA01F0CB40C1F12001DBB244
:100A3000C0B2C01A2CFA01F3D11A914311EAC311C2
:100A4000E6D1704770477047704770472DE9F0470F
:100A50000D4699469246044600F12408016888062E
:100A600004D5E06921F01001216000E00120A842D6
:100A700001DD471B00E00027A1697A1902EB09009C
:100A8000081AA0612078C00602D42046FFF748FD6E
:100A9000002608E0D4E901211AF806009047206AF0
:100AA000401C761C20624E45F4DB2078C0060AD537
:100AB0002046FFF735FD06E0D4E9012130209047BC
:100AC000206A401C2062381EA7F10107F4DC07E011
:100AD000D4E9012118F805009047206A401C2062E3
:100AE000281EA5F10105F3DC2046FFF72FFD207835
:100AF000000602D50220BDE8F0870120FBE7704721
:100B00002DE9FF4F0C461E464FF0FF378BB0D2E960
:100B10000001DDF860800A908A46C1F30A5505B9E4
:100B20003D46002108464FF00000BAF1000F00F4E6
:100B3000400005DA00EB80004FF4400101EA50006C
:100B40004FEA9059B9F1010F00DDB9460A9850EA11
:100B50004A000ED044F61050A5F2FF3545432F143D
:100B6000B8F1000F1ED07542291E1EDDC9F100022A
:100B70001CE0B8F1010F4FF0000001D0302103E07C
:100B8000F24305E02154401CB042FBDB304600221A
:100B9000002121540B99C1F80880C1E900200FB051
:100BA000BDE8F08FBD1B6D1CDEE74A4600DA6942E6
:100BB00006A800F08BFA06AB93E8070003AB83E8C6
:100BC000070050460A9900F029FB8DE80700A0F5C0
:100BD00000501F3800900398002D0ADD42F21F01DB
:100BE0004A460844002303A90390684600F092FD9A
:100BF00009E0A0F500504A461F38002303A90390DE
:100C0000684600F09CFD8DE807000004000C03D04E
:100C10004FF0FF30410800E01046B8F1000F03D05C
:100C20000022009215461EE0751E05D400F0C8F99A
:100C3000303262556D1EF9D5B3460122084302D009
:100C400000227F1C04E02078302801D100227F1E82
:100C5000002A099784D01DE0112D07DA00F0B0F9C1
:100C6000303262556D1C50EA0102F5D1084302D0C2
:100C70000098C8B10EE00021681E05E0235C625CAC
:100C800063542254401E491C8142F7DBAB46A81B2B
:100C9000401E0990002004F80B000B98099AC0F838
:100CA0000880C0E9002B7AE711264FF0000857E7CB
:100CB0002DE9F04F88460446D21D22F0070191B07D
:100CC000D1E90001CDE90A0106F0F5FC02460B98D6
:100CD000C00F01D02D2007E02068810701D52B200F
:100CE00002E0202101EAC000032A099001D0072A6E
:100CF00005DB03464146204600F0A8F90BE12078C9
:100D0000800601D5E06900E00620B8F1650F814654
:100D100006D0B8F1660F18D0B8F1670F70D131E086
:100D20000020B9F1110F009001DB112301E009F15E
:100D300001030AAA01A90CA8FFF7E2FEDDE90C7085
:100D4000002609F10105834647E001204B4600904B
:100D50004FF000470AAA01A90CA8FFF7D1FEDDE970
:100D60000DB00C995D46002610B909F101000D186F
:100D7000B9EB050003D4C0F1FF3609F10105A5EB7D
:100D800009002BE0B9F1010F01DA4FF00109002051
:100D9000B9F1110F0090484601DD112300E0034630
:100DA0000AAA01A90CA8FFF7ABFEDDE90C704D46BD
:100DB00000268346207800070AD4AB4500DA5D465A
:100DC00001A8012D04DD411911F8011C302907D0BB
:100DD0004F4502DA17F1040F04DA012082460FE0D2
:100DE0006D1EEEE7002F02DCED1B3E4403E0781C95
:100DF000A84200DD7D1CB81B00F1010A4FF000473E
:100E00002078000703D4AA4501DB4FF0FF3A002108
:100E1000B7F1004F0DF143088DF8431024D00220A4
:100E20002B23002F01DA7F422D230A21021EA0F17D
:100E3000010000DC5FB197FBF1FC97FBF1F201FBD5
:100E40001C7C17460CF1300C08F801CDEEE7A8F138
:100E5000010003702188090501D5452100E06521C5
:100E6000A0F1010800F8011C09980FA9A1EB0807DF
:100E7000FF1D00B10120411901EBEA70A16938445E
:100E8000081A401EA0612078C00602D42046FFF751
:100E900047FB099828B1D4E901219047206A401CFA
:100EA00020622078C00622D52046FFF739FB1EE0DD
:100EB000002E04DBB34502DD01A8805D00E0302098
:100EC000D4E901219047206A401C2062761CAAF1D7
:100ED00001005FEA000A0AD100F06EF8C0680168FC
:100EE000405CD4E901219047206A401C2062281E02
:100EF000A5F10105DCDC07E0D4E9012118F8010BBC
:100F00009047206A401C2062381EA7F10107F3DCDD
:100F10002046FFF71BFB032011B041E601694A1C84
:100F200002610878704700B58FB0CDE9013100212A
:100F3000059105497944CDE9031011466846FFF74C
:100F4000A7FB0FB000BD0000E5FFFFFF0A6802F835
:100F5000010B0A607047D1E900239A4202D2531C68
:100F60000B601070704710B5436913B1AFF3008088
:100F700001E0FFF7FCFA012010BD127800F1240116
:100F80000A7000224A700122EDE711684FF0FF322B
:100F9000E9E70000074B70B50D467B44FFF7C3FF40
:100FA0000446284600F004F910B14FF0FF3070BD40
:100FB000204670BD571F01000048704734CA00200A
:100FC00030B5B0F10A024FEA900E71F100034EEA1B
:100FD000817EB0EB0E0061EB91014FEA101E4EEAEC
:100FE000017E10EB0E0041EB11114FEA102E4EEA7C
:100FF000016E10EB0E0041EB11214FEA104E4EEA4C
:10100000014E10EB0E0041EB1141401841F100017F
:101010004FEAD00040EA41704FEAD10110EB800561
:101020004FEA810444EA907444EB01046D1944EBE7
:101030000404521BA3414FF0000348BF0A3200D5FD
:1010400030BD401C41F1000130BD00002DE9F041F0
:101050001F46044603260168072A01F4006004DBEA
:1010600008B116A505E016A503E008B115A500E036
:1010700015A521F010002060A069C01EA0610FB16D
:10108000401EA0612046FFF74BFA4FB1D4E9012181
:1010900038469047206A401C2062C01C206206E04F
:1010A000206AFAE7D4E9012115F8010B9047761E72
:1010B000F8D22046FFF74AFABDE8F0814E414E00D3
:1010C0006E616E00494E4600696E66002DE9F0477C
:1010D000814616468AB0354878440DC88DE80D0023
:1010E00032487844801C03AC0DC884E80D0041F6FA
:1010F0009B300844372190FBF1F290FBF1F5A5F10C
:10110000800501FB12041B3C02D56442012000E073
:101110000020DFF898A080460027FA44AAF1BE0A12
:101120000EE0E0070AD03246684607EB470101238C
:101130000AEB810100F003FB8DE8070064107F1CBF
:10114000002CEED1194F7F44AE3F19E0E80715D0CF
:1011500007EB04100DF1180A90E80E008AE80E0063
:10116000C068F04201D1981908903246012306A9BF
:1011700003A800F0E4FA03AB83E807006D10641CD9
:10118000002DE3D14FF0010332466946B8F1000F5C
:1011900003A802D000F0BEFA01E000F0D0FAC9E9DD
:1011A0000001C9F808200AB0BDE8F087D8D80200CD
:1011B000007B00F0800070470048704714CA002090
:1011C0007546FFF7F9FFAE4605006946534620F025
:1011D0000700854618B020B5FFF7F2F8BDE82040BB
:1011E0004FF000064FF000074FF000084FF0000BE3
:1011F00021F00701AC46ACE8C009ACE8C009ACE896
:10120000C009ACE8C0098D46704710B50446AFF37D
:1012100000802046BDE81040FFF7BDB85FEA400CF3
:1012200008BF91F0000F4FEA8C234FEAC12243EA36
:1012300051514FEA1C5018BF00F5F0404FEA300002
:1012400018BF41F000415FEA6C5C00F02980BCF1FE
:10125000FF3F08BF40F080407047130C06BF1204E8
:101260004FF0100C4FF0000C130E04BF12020CF1E3
:10127000080C130F04BF12010CF1040C930F04BFF0
:1012800092000CF1020CD30F04BF52000CF1010CC0
:1012900011464FF00002A0F11F00A0EB0C007047B8
:1012A00011F0004F08BF704731F000413FF4D5AF57
:1012B0000B0C06BF09044FF0100C4FF0000C0B0E86
:1012C00004BF09020CF1080C0B0F04BF09010CF15B
:1012D000040C8B0F04BF89000CF1020CCB0F04BF70
:1012E00049000CF1010CCCF12003A0EB0C0022FA18
:1012F00003F302FA0CF241EA030100F10100704726
:1013000020F07F4C80EA030023F07F47ACEB07031B
:1013100003F57C5300F0004003F1FF032DE9804901
:101320004FEA154B09B44FEA144325EA0B4E24EA61
:1013300003480FF2042606EB132749083E785FEABC
:10134000320203FB0667C7F5000707FB06F64FEA04
:1013500054374FEAD64606F1020607FB066CCCF17D
:10136000005C4FEA1C472CEA074C07FB06F40CFB19
:1013700006F504EB15464FEA961634BF00204FF0F1
:1013800000404FEAD13706FB07FC4FEA1C4C0CFB30
:101390000BF7D21B03FB0CF761EB07010CFB0EF7FD
:1013A000B0EB074072EB17420CFB08F734BFA2EB1F
:1013B0000742B2EB074261EB17414FEA0C444FEA98
:1013C000910706FB07FC4FEA1C4C0CFB0BF7B0EB3C
:1013D000C74072EB573203FB0CF734BFA2EBC74296
:1013E000B2EBC74261EB57310CFB0EF7B0EBC70015
:1013F00072EB57720CFB08F734BFA2EBC702B2EBDB
:10140000C70261EB5771039F4FEA816141EA921174
:1014100004EBCC044FEAD1374FEA826206FB07FCAB
:1014200042EA90124FEA80604FEA1C4C0CFB0BF72B
:10143000D21B03FB0CF761EB07010CFB0EF7B0EBC3
:10144000074072EB17420CFB08F734BFA2EB0742D0
:10145000B2EB074261EB17414FEA8C554FEA910717
:1014600004EB9C2406FB07FC4FEA1C4C0CFB0BF71F
:10147000B0EBC74072EB573203FB0CF734BFA2EB63
:10148000C742B2EBC74261EB57310CFB0EF7B0EB32
:10149000C70072EB57720CFB08F734BFA2EBC70210
:1014A000B2EBC70261EB577115EB4C254FEA816136
:1014B00041EA92114FEA82624FEAD13742EA901232
:1014C00006FB07FC44F100044FEA80604FEA1C4C25
:1014D0000CFB0BF7D21B03FB0CF761EB07010CFBBA
:1014E0000EF7B0EB074072EB17420CFB08F734BF66
:1014F000A2EB0742B2EB074261EB174115EB1C155B
:101500004FEA813141EA92414FEA823242EA904207
:101510004FEA80304FEA0C7644F1000448EA034376
:101520004EEA0B484FF0000EB2EB080C71EB0307CC
:1015300024BF624639464EEB0E0E4FF0000B0018EA
:10154000524149414BEB0B0BB2EB080C71EB03071B
:101550007BF1000B24BF624639464EEB0E0E4FF076
:10156000000B0018524149414BEB0B0BB2EB080C3E
:1015700071EB03077BF1000B24BF624639464EEB4B
:101580000E0E51EA020718BF46F0010616EB0E7662
:1015900055F1000254F1000103D5BDE88901BDE811
:1015A0000088BDE88901BDE80048B619524141EB09
:1015B0000101A3F10103704780807F7E7D7C7B7AEF
:1015C0007978777676757473727171706F6E6E6DEF
:1015D0006C6C6B6A6A696868676666656464636395
:1015E00062616160605F5F5E5E5D5D5C5C5B5B5A1B
:1015F0005A59595858575756565555555454535388
:1016000052525251515050504F4F4F4E4E4D4D4DE2
:101610004C4C4C4B4B4B4A4A4A494949484848472D
:10162000474747464646454545444444444343436B
:101630004342424242414141002B9C4630D4770014
:101640002BD01CB54FEA370703B44FF010004FF012
:101650001001BAF1000F06D0BCF1000FDCBF40F062
:10166000080040F008014FF000000FBCBDE810403A
:101670000BF1010BBBF1010F08BF5FEA170722BF97
:1016800012F1010211F101014FF0004143F1000399
:1016900000F0004043EA00007047F9D35708D0E754
:1016A00046EA064613F1400F4FEA16461FDD13F1D6
:1016B000200FDFBF16430A46002120335B42BED015
:1016C000C3F1200746EA064602FA07F74FEA164634
:1016D00046EA0706C3F1200722FA03F201FA07F7E8
:1016E00021FA03F14FF0000342EA0702A7E746EAB6
:1016F000020646EA06464FEA164646EA0106BCBF1F
:1017000046EA0646360C4FF000034FF000024FF059
:10171000000194E72DE9804C9A46934670B491E815
:10172000380007C831EA400C48BF34EA430C03D5FF
:10173000FFF7E6FDFFF780FFF0BCBDE8008C2DE968
:10174000804C9A46934670B491E8380007C810F070
:10175000804F08BF13F0804F03D100F005F8FFF76A
:101760006BFFF0BCBDE8008C20F07F4780EA0300EF
:1017700023F07F4C07EB0C03A3F57C5300F00040F3
:10178000A3F1FE0392F0000F00F0B38095F0000F7C
:1017900000F077802DE901494FEA11404FEA1446E5
:1017A00021EA004800FB06FC24EA064708FB06F68F
:1017B00007FB08F800FB07F718EB06484CEB164C44
:1017C0004FEA124B18EB07484FEA15464CEB17400F
:1017D00022EA0B4E0BFB06FC25EA06470EFB06F63B
:1017E00007FB0EFE0BFB07F71EEB064E4CEB164CF1
:1017F0004FF000061EEB074E4CEB174B18EB0B0897
:1018000040F1000018EB0E0B58EB000840F100000F
:101810008F1A4FF000013CBFC943661B14BFB5EBE4
:10182000040C00213CBFC943F61B4FEA17444EEAA3
:101830008E0E27EA04454FEA1C4704FB07622CEA98
:10184000074C05FB07F70CFB05F604FB0CFC16EB3D
:10185000074642EB174216EB0C4642EB1C421BEBD1
:10186000060658EB0202414146EA9E0601D5BDE854
:101870000189B619524141EB0101A3F10103BDE811
:1018800001894FEA14454FEA114724EA054621EA47
:10189000074C05FB07F406FB07F70CFB06F105FBFD
:1018A0000CFC11EB074144EB17444FEA124711EBD4
:1018B0000C4144EB1C4422EA074C05FB07F206FBF3
:1018C00007F70CFB06F605FB0CFC16EB074642EB94
:1018D000174216EB0C4642EB1C456A1854F1000106
:1018E00048BF7047B619524141EB0101A3F1010312
:1018F000704795F0000F37D04FEA11424FEA144776
:1019000021EA024624EA074C02FB07F106FB07F72F
:101910000CFB06F402FB0CFC14EB074441EB1741F3
:101920004FEA154714EB0C4441EB1C4125EA074CE8
:1019300002FB07F506FB07F70CFB06F602FB0CFCA7
:1019400016EB074645EB174516EB0C4645EB1C42DC
:10195000121951F1000148BF7047B619524141EBCD
:101960000101A3F1010370474FEA14454FEA114703
:1019700024EA054621EA074C05FB07F106FB07F7B9
:101980000CFB06F24FF0000605FB0CFC12EB0742C5
:1019900041EB174112EB0C4251EB1C4148BF704721
:1019A000921841EB0101A3F101037047FEE700002B
:1019B000014800F085B80000C4040020704772B6EA
:1019C000FEE72DE9F041012417460D46064604F0D6
:1019D000D7FE304600F060F8C0B904F0D1FEBB205D
:1019E00004F046FF012811D16E1E002409E0B44224
:1019F00001D1002000E0012004F092FE3855641C63
:101A0000E4B2AC42F3D304F0DFFE002404F0DCFEC9
:101A10002046BDE8F081000010B504F06DFF134CC6
:101A200000221021204600F002FD0122204608215C
:101A300000F0FDFC42F2107004F0D6FD00222046BA
:101A4000082100F0F4FC0A4804F0CEFD01222046F3
:101A5000082100F0ECFC074804F0C6FD04F038FF54
:101A6000BDE8104044F6206004F0BEBD00100258EE
:101A7000F04902003057050070B50D46044604F0E9
:101A80007FFE204600F008F810B9284604F0F0FE6A
:101A900004F09AFE002070BD10B5044604F070FEFC
:101AA000BA2004F0E5FE012807D1200A04F0E0FE88
:101AB000012802D1E0B204F0DBFE002010BD704727
:101AC0002DE9F0470446006800274FF004084FF066
:101AD000010946680568F10714D0E90512D50368C5
:101AE00023F480730360606E40F00100606620683C
:101AF000C0F8089084F8618084F86070616A09B168
:101B000020468847B00615D5A80413D520682022A2
:101B1000036823F40053036020688260606E40F025
:101B20000200606684F8618084F86070616A09B1BF
:101B300020468847300715D5280513D52068082288
:101B4000036823F40063036020688260606E40F0E5
:101B50000400606684F8618084F86070616A09B18D
:101B60002046884770070CD568050AD520680268AA
:101B700022F4806202602068C0F80880204600F0ED
:101B80002DF8B00713D5A80511D5206802220368E7
:101B900023F40073036020688260606E606684F8DE
:101BA000619084F86070216A09B120468847F00688
:101BB00012D5E80410D52068016821F48051016035
:101BC000226810219160616E616684F86190204600
:101BD00084F86070FFF773FFBDE8F087704700007E
:101BE0002DE9F84F044600F02DFC00903CB194F82C
:101BF0003500022806D0802161650020E4E0012044
:101C0000BDE8F88FC74DC74EC64918352068303635
:101C1000DFF81483DFF814938842DFF814A3DFF8A9
:101C200014B32ED0A8422CD0B0422AD0404528D0A0
:101C3000484526D0504524D0584522D0BD4A1832B8
:101C400090421ED0BC4A90421BD0BB4A18329042F0
:101C500017D0B94A3032904213D0B74A4832904236
:101C60000FD0B54A603290420BD0B34A78329042DE
:101C700007D0B14A9032904203D0AF4AA832904286
:101C800009D1026822F01E0202602068426922F037
:101C90008002426103E0026822F00E0202602768BF
:101CA0008F4238464DD0A8424BD0B04249D0404533
:101CB00047D0484545D0504543D0584541D09D4A2E
:101CC000183290423DD09C4A90423AD09A4A1832FB
:101CD000904236D0984A3032904232D0964A4832BA
:101CE00090422ED0944A603290422AD0924A783262
:101CF000904226D0904A9032904222D08E4AA8320A
:101D000090421ED08D4A90421BD08C4A1432904291
:101D100017D08A4A2832904213D0884A3C329042E7
:101D20000FD0864A503290420BD0844A643290429F
:101D300007D0824A7832904203D0804A8C32974250
:101D400004D1206E026822F4807202607549206816
:101D5000884228D0A84226D0B04224D0404522D084
:101D6000484520D050451ED058451CD071491831E7
:101D7000884218D07049884215D06F49183188427E
:101D800011D06D49303188420DD06B4948318842BD
:101D900009D069496031884205D067497831884265
:101DA00001D065499031016821F0010101600EE028
:101DB00000F048FB0099401A052808D920226265E6
:101DC0000321002084F8351084F8340017E73868C0
:101DD000C007EDD1534A0121206890422ED0A8427D
:101DE0002CD0B0422AD0404528D0484526D0504576
:101DF00024D0584522D04F4B183398421ED04E4B1A
:101E000098421BD04C4B1833984217D04A4B303372
:101E1000984213D0484B483398420FD0464B60331A
:101E200098420BD0444B7833984207D0424B9033C2
:101E3000984203D0404BA833984208D194F85C7084
:101E40003F23A06D07F01F07BB40836007E094F8B5
:101E50005C30A06D03F01F0301FA03F343602068B8
:101E600090424DD0A8424BD0B04249D0404547D0D7
:101E7000484545D0504543D0584541D02D4A1832A9
:101E800090423DD02C4A90423AD02B4A1832904290
:101E900036D0294A3032904232D0274A48329042D6
:101EA0002ED0254A603290422AD0234A783290427E
:101EB00026D0214A9032904222D01F4AA832904226
:101EC0001ED01E4A90421BD01C4A1432904217D09A
:101ED0001A4A2832904213D0184A3C3290420FD00E
:101EE000164A503290420BD0144A6432904207D0C6
:101EF000124A7832904203D0104A8C3290420BD171
:101F0000D4E919024260E06E30B1026822F48072B6
:101F10000260D4E91C024260002084F8351084F885
:101F200034006DE61000024058000240700002408C
:101F300088000240A00002401004024008540258E9
:101F40002DE9F05F28B190F83510022904D08021E6
:101F500041650120BDE8F09F904C904B0168183C12
:101F600018338E4ADFF83C92A1428D4CDFF838E2FC
:101F70008E4FDFF83CB2DFF83CA28F4D8F4E31D050
:101F800091422FD099422DD0A1422BD0494529D042
:101F9000714527D0B94225D0DFF810C20CF1180CDA
:101FA00061451FD0DFF808C2ACF1600C614519D063
:101FB000DFF8FCC1ACF1480C614513D0DFF8F0C18B
:101FC000ACF1300C61450DD0DFF8E4C1ACF1180C78
:101FD000614507D0594505D0514503D0A94201D0EC
:101FE000B1422CD1DFF8B4C14FF0040880F835803D
:101FF000ACF1180C61451DD091421BD0994219D00B
:10200000A14217D0494515D0714513D0B94211D01E
:102010006648183081420DD065486038814209D049
:1020200063484838814205D061483038814201D048
:102030005F481838086820F001000860ABE0D1F86C
:1020400000C02CF00E08DFF854C1C1F80080ACF1DC
:10205000180C0168614527D0914225D0994223D0C0
:10206000A14221D049451FD071451DD0B9421BD096
:10207000DFF838C10CF1180C614515D0DFF830C11C
:10208000ACF1600C61450FD0DFF824C1ACF1480C15
:10209000614509D0DFF818C1ACF1300C614503D0BF
:1020A000DFF80CC1ACF1180CD1F800C02CF0010C19
:1020B000C1F800C0DFF8E4804FF0010C0168A8F11E
:1020C0001808414546D0914244D0994242D0A1429D
:1020D00040D049453ED071453CD0B9423AD0334A10
:1020E0001832914236D0324A603A914232D0304A68
:1020F000483A91422ED02E4A303A91422AD02C4A68
:10210000183A914226D0594524D0514522D0A942AF
:1021100020D0B1421ED02A4A91421BD0284A143204
:10212000914217D0264A2832914213D0244A3C3299
:1021300091420FD0224A503291420BD0204A643251
:10214000914207D01E4A7832914203D01C4A8C3209
:10215000914218D1016E0A6822F480720A6090F8E8
:102160005C20816D02F01F020CFA02F24A60D0E995
:1021700019124A60C16E31B10A6822F480720A6095
:10218000D0E91C124A600022016D80F835C080F849
:10219000342001B188470020DCE60000280002401E
:1021A000580002407000024088000240A000024037
:1021B0007004024088040240A0040240B8040240B7
:1021C0000854025870B5044600F03CF90546601CFE
:1021D00002D004480078044400F034F9401BA042C7
:1021E000FAD370BD080000202DE9F84F03247D4D7F
:1021F00000234FF001094FF0B04B4FF00F0AE9E018
:1022000009FA03F73A4076D00E7906F00306012E5C
:1022100001D0022E18D1D0F808C04FEA430ECE6884
:1022200004FA0EF82CEA080C06FA0EF646EA0C063A
:102230008660D0F804C00E792CEA070CC6F30016AD
:102240009E4046EA0C0646600E79F643B6070BD070
:10225000C6684FEA43088F6804FA08FC26EA0C06B1
:1022600007FA08F73743C7600E7906F00306022E17
:1022700012D1DE080F694FEA437C00EB8606B646B2
:10228000366A4FEADC6C0AFA0CF807FA0CF726EA11
:1022900008063743CEF820700F7906684FEA4308E6
:1022A00007F0030704FA08FC07FA08F726EA0C0609
:1022B000374307604E6816F4403F1CD04A4E3768DB
:1022C00047F00207376036689F0706F0020600965F
:1022D00023F0030606F1B046B6463F0FD6F8086471
:1022E000DFF808810AFA07FC404526EA0C0603D10C
:1022F0004FF0000C41E06CE0DFF8F4C0604502D123
:102300004FF0010C39E0DFF8ECC0604502D14FF02E
:10231000020C32E0DFF8E0C0604502D14FF0030C60
:102320002BE0DFF8D8C0604502D14FF0040C24E068
:10233000DFF8CCC0604502D14FF0050C1DE0DFF89E
:10234000C4C0604502D14FF0060C16E0DFF8B8C0FB
:10235000604502D14FF0070C0FE0DFF8B0C06045D8
:1023600002D14FF0080C08E0DFF8A4C0604502D1AC
:102370004FF0090C01E04FF00A0C0CFA07FC4CEA94
:10238000060CCEF808C44F68DBF80060FF0226EAAE
:10239000020600D516435F46CBF80060D1F804C0B2
:1023A000DBF804605FEA8C2C26EA020600D51643AF
:1023B0007E606E684F6826EA0206BF0300D51643AA
:1023C0006E602E684F6826EA0206FF0300D51643AA
:1023D0002E605B1C0A6832FA03F67FF411AFBDE889
:1023E000F88F000080000058F444025800000258A2
:1023F0000004025800080258000C0258001002584D
:102400000014025800180258001C025800200258FC
:10241000002402580069084000D00120704742693A
:1024200021EA02030A4043EA0241816170470AB18E
:10243000816170470904FBE701480068000C7047A0
:102440000010005C01488068704700000800002010
:1024500002488168027811448160704708000020BA
:10246000032010B500F0DEFA01F0B8FA0F4A104967
:1024700014681368C4F3032203F00F038A5CC95C79
:1024800002F01F0201F01F01D0400A4A20FA01F1B8
:102490001160094908600F2000F010F808B1012010
:1024A00010BD00F083FA002010BD0000184402584F
:1024B00052A80290180000201400002070B50D4DA5
:1024C00004462878A0B14FF47A71B1FBF0F00A49C4
:1024D0000968B1FBF0F001F0DEFD48B9102C07D21D
:1024E00000222146501E00F07DFA00206C6070BD75
:1024F000012070BD0800002014000020F0B590F805
:10250000A040012C07D0012680F8A060022480F8AA
:10251000A14000251FE00220F0BD00BF03EB8304B3
:1025200004EBC30400EB8404A46C062C1CD00F68DD
:10253000FCB207F47F4C44EA056407F47F0744EAE1
:102540000C043C4307684FF0C40C0CEBC31C47F869
:102550000C40091D6D1C9542E0D3002180F8A1605C
:1025600080F8A0100846F0BDD1F800C005EB051EAC
:102570000CF0FF040CF47F4744EA0E643C430CF477
:102580007F0C44EA0C04DDE72DE9F041044690F8A5
:10259000A00016460F4601281DD0012584F8A05042
:1025A000022084F8A10006EB860000EBC60034226E
:1025B00004EB80003830FEF7B7F932463946204642
:1025C00002F0F4FE216800204D6284F8A15084F8E6
:1025D000A000BDE8F0810220FBE710B590F8A02034
:1025E000012A16D0012280F8A020022480F8A14000
:1025F000842303EBC11350F8A01BCC5844F0100403
:10260000CC5050F8A03C00215A624270017008463C
:1026100010BD022010BD70472DE9F041044600684E
:1026200000274FF00408856B466B690715D57107C5
:1026300013D5426B22F0040242632068C0F83C804C
:10264000D4F8A40040F00100C4F8A40084F8A180EC
:10265000204684F8A070FFF7DEFFA80716D5B00764
:1026600014D520680222436B23F0020343632068E1
:10267000C263D4F8A40040F00200C4F8A40084F8B7
:10268000A180204684F8A070FFF7C5FF05EA060088
:102690004FF00108C0070ED021684A6B22F00102FA
:1026A0004A632168C1F83C8084F8A180204684F800
:1026B000A07000F091F8280710D530070ED52068DB
:1026C0000822436B23F0080343632068C26384F845
:1026D000A180204684F8A07000F018F9BDE8F081D0
:1026E0002DE9F041040004D094F8A100002518B1B0
:1026F00007E00120BDE8F081204684F8A05000F0FA
:102700006DF83448022184F8A110012202CC8B69B3
:1027100023F070438B6194E84A001943E3681E4339
:1027200054F8043D31439E693143996121688B68B7
:1027300003408B602168A68AA7698B683B4343EA04
:1027400006438B602168CB680340CB602168A38B74
:10275000276ACE683E4346EA0346CE6021680B698D
:1027600003400B612368A68CA76A1969394341EAC3
:102770000641196121684B6903404B612068A38DB4
:10278000266B4169314341EA03414161236894F872
:10279000351094F83600DE6A000406F07F46DE62EB
:1027A000236840EA012094F83460D96A3143014338
:1027B000D9622068416B41F006014163206881695C
:1027C00041F001018161C4F8A45084F8A1200020E7
:1027D00090E7000000F800F070470000F0B587B007
:1027E000044614216846FEF7D1F841492068884222
:1027F0007BD14048016841F008010160006800F0A9
:10280000080005903B48001F016841F00401016089
:10281000016801F004010591016841F001010160C6
:10282000016801F001010591016841F002010160B8
:10283000016801F002010591016841F01001016099
:10284000016801F010010591016841F00801016083
:10285000016801F008010591016841F0080101607B
:1028600000680E210024029400F008000590022068
:102870000125C122CDE90351CDE900201E4869465A
:10288000FFF7B2FC7A2000901C486946FFF7ACFCC9
:102890004FF4784000901A486946FFF7A5FC194E9E
:1028A0004FF47060694600903046FFF79DFC164F6C
:1028B0004FF48960694600903846FFF795FC032085
:1028C00000900921304604916946FFF78DFCEE0324
:1028D000384600223146FFF7AAFD00966946CDE949
:1028E000015438460394FFF77FFC07B0F0BD0000A9
:1028F00000100050E444025800080258000002583A
:102900000010025800040258000C025870470000E2
:10291000154BF0B5083B427813491A600B680A1F43
:1029200023F001030B6043681360057BC67A827A4B
:10293000437B2D07847B45EA0665C77B90F809C079
:10294000067A90F800E045EAC24040EA834040EA57
:10295000444040EA074040EA0C2040EA460040EA92
:102960000E000860F0BD0000A0ED00E0BFF35F8F37
:10297000044800210368034A23F480330360703263
:102980001160704724ED00E0074A40F0010006495D
:1029900070321060086840F480300860BFF34F8FD9
:1029A000BFF36F8F7047000024ED00E0054808B5C5
:1029B000016841F002010160006800F0020000902F
:1029C00008BD0000F4440258002809DB410900F06A
:1029D0001F028900012001F1E0219040C1F80001AF
:1029E000704700000E4BF0B41B680D46C3F3022382
:1029F000C3F10706042E00D90426191D072901D2A8
:102A0000002300E0DB1E012404FA06F19C40491E6D
:102A10002940641E994014402143F0BC04F063BE79
:102A20000CED00E0064900F0070210B54FF6FF0478
:102A30000868044B204040EA02201843086010BD9B
:102A40000CED00E00000FA05134970B50A68D243A6
:102A5000520705D5096801F00701814213D118E03A
:102A60000A6822F0070202430A60FFF7EBFC0A4DF6
:102A70004FF47A760446083D07E000BFFFF7E2FC1A
:102A8000001BB04201D9012070BD2868C0438004FA
:102A9000F4D4002070BD00000C48025810B500F0BE
:102AA00057FF05490968054AC1F30211515C01F05D
:102AB0001F01C84010BD00002044025852A80290D7
:102AC000494930B5484C0B1D0A68143409681D6823
:102AD000246802F00303C5F30012C1F30531C4F307
:102AE000CC04002914FB02F200EE102AF8EE400A92
:102AF00075D03F4A9FED3D1AB7EE000A6BB1DFED8E
:102B00003D1A012B01D0022B64D002EE101A11687D
:102B1000F8EE422A81EEA22A21E0334C283C2368B9
:102B20009B0612D5344B246801EE901A1168C4F349
:102B3000C104F8EE612AE34001EE903AC1F30801C6
:102B4000F8EE611A81EEA22A0BE001EE901ADFED99
:102B50002B2A00BFF8EE611A116882EEA12AC1F398
:102B6000080101EE901A1168F8EE611A40EE811A20
:102B700071EE800A62EE200AC1F3462101EE101ABE
:102B8000B8EE411A31EE001AC0EE811ABCEEE11A1D
:102B900080ED001A1168C1F3064101EE101AB8EE7B
:102BA000411A31EE001AC0EE811ABCEEE11A80ED36
:102BB000011A1168C1F3066101EE101AB8EE411A4C
:102BC00031EE000A80EE801ABCEEC10A80ED020AE6
:102BD00030BD04E001EE901ADFED092ABAE70021CA
:102BE000016041608160F3E7284402580000003929
:102BF000384402580024744A0090D0030024744CD6
:102C000020BCBE4B494930B5484C0B1D0A681C34EA
:102C100009681D68246802F00303C5F30022C1F3AC
:102C20000551C4F3CC04002914FB02F200EE102A73
:102C3000F8EE400A75D03F4A9FED3D1AB7EE000A04
:102C40006BB1DFED3D1A012B01D0022B64D002EEF7
:102C5000101A1168F8EE422A81EEA22A21E0334CC4
:102C6000283C23689B0612D5344B246801EE901A49
:102C70001168C4F3C104F8EE612AE34001EE903A12
:102C8000C1F30801F8EE611A81EEA22A0BE001EE11
:102C9000901ADFED2B2A00BFF8EE611A116882EE60
:102CA000A12AC1F3080101EE901A1168F8EE611A29
:102CB00040EE811A71EE800A62EE200AC1F34621CD
:102CC00001EE101AB8EE411A31EE001AC0EE811A68
:102CD000BCEEE11A80ED001A1168C1F3064101EE65
:102CE000101AB8EE411A31EE001AC0EE811ABCEE8D
:102CF000E11A80ED011A1168C1F3066101EE101AA4
:102D0000B8EE411A31EE000A80EE801ABCEEC10A1C
:102D100080ED020A30BD04E001EE901ADFED092AD1
:102D2000BAE70021016041608160F3E7284402585E
:102D300000000039404402580024744A0090D00337
:102D40000024744C20BCBE4B2DE9FE4F0546DFF835
:102D5000E48350F8081B0024F64FC943019005F1A5
:102D60002800264608F12408009008011DD4A86E0A
:102D700050B1B0F5801F0CD0B0F5001F0ED0B0F5EB
:102D8000401F1ED001240FE0386840F40030386046
:102D900017E00198022102F0B5FE03E0009802213D
:102DA00002F040FF04000CD026462888C043C0052E
:102DB00023D4A86D05281ED2DFE800F00C11161BE5
:102DC0001B00AA6ED8F8001021F440111143C8F876
:102DD0000010EAE7386840F40030386009E00198F4
:102DE000002102F08FFE03E00098002102F01AFF9C
:102DF000044674B100E0012426462888C0438005BB
:102E000028D4E86D80281ED00CDC90B140280ED16B
:102E100014E0AA6DD8F8001021F007011143C8F89A
:102E20000010EAE7C02813D0B0F5807F10D001244D
:102E30000FE0386840F40030386009E00198002164
:102E400002F060FE03E00098002102F0EBFE044671
:102E50009CB126462888DFF8DC92C04309F12C0992
:102E600040052CD4D5F8A800B0F5800F20D00DDC9B
:102E7000A0B1B0F5001F0FD115E0EA6DD8F8001031
:102E800021F4E0711143C8F80010E3E7B0F5C00F7A
:102E900013D0B0F5000F10D001240FE0386840F4D3
:102EA0000030386009E00198002102F02BFE03E0B9
:102EB0000098002102F0B6FE04467CB12646288820
:102EC000C04300052DD4D5F8AC00B0F1007F21D06F
:102ED0000EDCA8B1B0F1807F10D116E0D5F8A820A3
:102EE000D9F8001021F460011143C9F80010E6E799
:102EF000B0F1407F13D0B0F1806F10D001240FE00B
:102F0000386840F40030386009E00198002102F090
:102F1000F9FD03E00098002102F084FE044674B13C
:102F200026462868C04380011FD4E86CD8B1102819
:102F30000FD0202812D0302815D0012414E0D5F865
:102F4000AC20D9F8001021F0E0611143C9F800105D
:102F5000E7E7386840F40030386004E00198022167
:102F600002F0D0FD044674B126462888C043C00450
:102F70002BD4286EB0F5005F20D00DDCA0B1B0F5E9
:102F8000805F0FD115E06B48EA6C2030016821F0BA
:102F9000300111430160E8E7B0F5405F13D0B0F5B0
:102FA000804F10D001240FE0386840F400303860C2
:102FB00009E00198002102F0A5FD03E0009800213E
:102FC00002F030FE04468CB126462888C0438004B7
:102FD00029D4686EB0F5403F23D010DC08B3B0F5BB
:102FE000803F14D0B0F5003F0FD115E02A6ED8F81D
:102FF000001021F4E0411143C8F80010E5E7B0F5F6
:10300000802F0ED0B0F5A02F0BD001240AE001983C
:10301000012102F077FD03E00098012102F002FE99
:10302000044694B126462888C04340042AD4D5F8E3
:10303000B000B0F1405F23D010DC08B3B0F1805F86
:1030400014D0B0F1005F0FD115E06A6ED8F800100F
:1030500021F4E0211143C8F80010E4E7B0F1804FFB
:103060000ED0B0F1A04F0BD001240AE0019801214D
:1030700002F048FD03E00098012102F0D3FD044670
:1030800074B126462888C04300041FD4286FD8B1E5
:10309000B0F1805F0ED0B0F1005F10D0012414E0D9
:1030A000D5F8B020D9F8001021F0E0411143C9F85B
:1030B0000010E7E7386840F40030386004E0019819
:1030C000012102F01FFD044674B126462868C04362
:1030D000C0011ED4A86CD0B101280ED0022811D096
:1030E000032814D0012413E02A6FD8F8001021F02F
:1030F00040511143C8F80010E8E7386840F4003048
:10310000386004E00198022102F0FCFC0446ACB1F6
:1031100026462868DFF81CB0C043ABF11C0B400208
:1031200052D40548016841F480710160FFF78AF9C3
:10313000824611E02C44025800480258FA48AA6C12
:10314000016821F0030111430160E2E7FFF77AF91A
:10315000A0EB0A00642835D8F4480068C005F5D50E
:103160008CBBDFF8C4A3B5F8B4100AF1240ADAF86E
:10317000000001F4407100F44070884211D0DAF888
:103180000010DAF8002021F4407142F48032CAF8CD
:103190000020DAF8002022F48032CAF80020CAF8B1
:1031A0000010D5F8B400B0F5807F1AD1FFF74AF9C6
:1031B000029012E0FFF746F90299411A41F2883075
:1031C00081420AD9032426462878DFF85CA3C0434D
:1031D0000AF1080AC00721D03CE0DAF800008007B5
:1031E000E8D5D5F8B410C1F30120032858460DD016
:1031F000016821F47C510160B5F8B420DAF80010C0
:10320000C2F30B021143CAF80010DDE7C84A036895
:1032100002EA111223F47C511143ECE7E86F1828FD
:1032200016D005DCA0B1082808D0102804D10AE087
:1032300020280DD028280BD001240AE00198012174
:1032400002F060FC03E00098012102F0EBFC044670
:1032500064B126462878C04380071ED4A86F06288C
:1032600019D2DFE800F0160C11161616EA6FDAF81C
:10327000001021F038011143CAF80010EAE7019864
:10328000012102F03FFC03E00098012102F0CAFC9A
:1032900004467CB100E0012426462878C04340075C
:1032A0001FD4D5F89400062819D2DFE800F0160CD8
:1032B00011161616AA6FDAF8001021F00701114353
:1032C000CAF80010E9E70198012102F01BFC03E0B5
:1032D0000098012102F0A6FC0446A4B100E00124FC
:1032E00026462878C04380062BD4D5F89000B0F14C
:1032F000405F24D011DC10B3B0F1805F15D0B0F185
:10330000005F10D116E0D5F89420D9F8001021F014
:1033100007011143C9F80010E3E7B0F1804F0ED068
:10332000B0F1A04F0BD001240AE00198002102F077
:10333000E9FB03E00098022102F074FC044694B11A
:1033400026462878C04340062BD4D5F89C00B0F51B
:10335000406F24D011DC10B3B0F5806F15D0B0F5FC
:10336000006F10D116E0D5F89020DAF8001021F0A7
:10337000E0411143CAF80010E3E7B0F5805F0ED0DA
:10338000B0F5A05F0BD001240AE00198002102F003
:10339000B9FB03E00098022102F044FC044694B11A
:1033A00026462878C04300062BD4D5F8A000B0F5F7
:1033B000C04F24D011DC10B3B0F5005F15D0B0F5CC
:1033C000804F10D116E0D5F89C20D9F8001021F4D8
:1033D000E0511143C9F80010E3E7B0F5004F0ED0FB
:1033E000B0F5204F0BD001240AE00198002102F033
:1033F00089FB03E00098022102F014FC044654B15A
:1034000026462878C04300071ED4D5F88400B0F5BE
:10341000805F0AD00FE0D5F8A020D9F8001021F481
:1034200060411143C9F80010EBE70098022102F057
:10343000F9FB00B10126D5F88420DAF8001021F458
:1034400040511143CAF800102878C043C00613D475
:10345000D5F89800B0F5807F05D10098022102F0E0
:10346000E1FB00B10126D5F89820D9F8001021F42D
:1034700040711143C9F800102868C043000316D4F6
:10348000D5F8A40038B1B0F5803F09D0B0F5003FC1
:103490000BD001240AE00198002102F033FB03E085
:1034A0000098022102F0BEFB04468CB12646286833
:1034B000C043400322D4D5F88800B0F5801F11D056
:1034C000B0F5001F13D0B0F5401F15D0012414E053
:1034D000D5F8A420D9F8001021F440311143C9F8DF
:1034E0000010E4E7386840F40030386004E00098E9
:1034F000012102F097FB04465CB126462868C043D0
:10350000C00323D4286DA8B1B0F5803F17D00124A3
:103510001BE0D5F88820DAF8001021F4401111439F
:10352000CAF80010EAE700004C440258004802586C
:10353000CFFFFF00386840F40030386004E00198A5
:10354000022102F0DFFA0446E4B126462868C043AF
:10355000800005D40098022102F064FB00B101262E
:103560002868C04380031BD4D5F88000B0B1B0F503
:10357000807F0FD0B0F5007F10D0B0F5407F0DD028
:1035800001240CE05A482A6D016821F4803111436E
:103590000160DBE7386840F400303860ECB3264661
:1035A0002868C043C00207D46A6FD8F8001021F021
:1035B00000411143C8F800102868C043C00008D477
:1035C000D5F8B820DBF8001021F480411143CBF886
:1035D00000102868C043800207D4EA6ED8F80010B3
:1035E00021F080711143C8F800102868C0434000E2
:1035F0000CD4DBF8001021F40041CBF80010DBF80C
:103600000010D5F8BC201143CBF800102868C04347
:1036100008D437486A6D016800E018E021F0405195
:10362000114301602868C043000208D4D5F88C20FB
:10363000DAF8001021F440011143CAF8001028798B
:103640000024C04300F0010020430AD00FE0D5F869
:103650008020DAF8001021F440711143CAF80010FC
:103660009EE70198002102F04DFA00B10646287944
:10367000C04300F00200204305D10198012102F06F
:1036800041FA00B106462879C04300F00400204307
:1036900005D10198022102F035FA00B106462879D9
:1036A000C04300F00800204305D10098002102F03B
:1036B000B9FA00B106462879C04300F01000204353
:1036C00005D10098012102F0ADFA00B10646287933
:1036D000C04300F02000044304D10098022102F00E
:1036E000A1FA00B916B10120BDE8FE8F0020FBE76A
:1036F0004C4402582DE9F05F04000F467ED0DFF8FD
:103700003882D8F8000000F00F00B8420CD2D8F888
:10371000001021F00F013943C8F80010D8F800005C
:1037200000F00F00B84269D12078844D40070AD5D7
:103730002069296801F07001884204D9296821F0C4
:1037400070010143296020787C4E361D00070AD5A0
:103750006069316801F07001884204D9316821F054
:103760007001014331602078C0060AD5A069316834
:1037700001F4E061884204D9316821F4E061014339
:1037800031602078DFF8B4B180060BF1080B0CD55E
:10379000E1695846DBF8002002F07002914204D93A
:1037A000026822F070020A430260207880070AD57E
:1037B000E068296801F00F01884204D9296821F0E6
:1037C0000F01014329602078C0073ED05B49A26801
:1037D0002868183920F47060104328606068022857
:1037E00018D0032819D00968012819D049070029E1
:1037F0004ADADFF848A1AAF1080A00E044E0DAF862
:10380000002022F007020243CAF80020FEF71AFE49
:10381000814612E009688903E9E709688901E6E75A
:10382000C905E4E7FEF70EFEA0EB090141F288307E
:10383000814202D90320BDE8F09F6168DAF80000F8
:1038400000F03800B0EBC10FECD1207880070AD52A
:10385000E068296801F00F01884204D2296821F04C
:103860000F0101432960D8F80010404601F00F0114
:10387000B9420BD9016821F00F013943016000689A
:1038800000F00F00B84201D00120D4E720784007B3
:103890000AD52069296801F07001884204D229689C
:1038A00021F0700101432960207800070AD5606982
:1038B000316801F07001884204D2316821F0700152
:1038C000014331602078C0060AD5A069316801F44F
:1038D000E061884204D2316821F4E0610143316043
:1038E000207880060CD5E1695846DBF8002002F00C
:1038F0007002914204D2026822F070020A43026010
:1039000000F06CF80E492A682B68C2F3032203F01A
:103910000F038A5CC95C02F01F0201F01F01D04056
:10392000084A20FA01F11160074908600748006859
:10393000BDE8F05FFEF7C2BD0020005218440258F7
:1039400052A8029018000020140000200C00002053
:1039500030B500F043F80B4A0B490C4B156814685E
:10396000C5F3032204F00F048A5C095D02F01F0214
:1039700001F01F01D040064A20FA01F119601060E1
:10398000084630BD1844025852A802901800002082
:103990001400002000B5FFF7DBFF05490968054A60
:1039A000C1F30211515C01F01F01C84000BD0000CD
:1039B0001C44025852A8029000B5FFF7C9FF054900
:1039C0000968054AC1F30221515C01F01F01C8409A
:1039D00000BD00001C44025852A80290454970B531
:1039E00045480968434B103B11F0380208D00111DB
:1039F000082A03D0102A0BD0182A0BD0084670BD15
:103A000019688906FBD51968C1F3C101C84070BDAA
:103A10003A4870BD3749374D18310C1D24350A68B6
:103A2000096826682D6802F0030406F00102C1F35C
:103A30000511C5F3CC0515FB02F200EE102AB8EE15
:103A4000400AE9B32F4ADFED2E0AB7EE001A6CB137
:103A5000DFED2D1A012C01D0022C43D002EE101AFA
:103A60001068F8EE422A81EEA22A1EE01C68A40625
:103A700011D51B6801EE901A1168C3F3C103F8EE6B
:103A8000612AD84001EE900AC1F30800F8EE611AED
:103A900081EEA22A0BE001EE901ADFED1C2A00BF96
:103AA000F8EE611A106882EEA12AC0F3080001EE58
:103AB000900AF8EE611A40EE201A31EE810A00E019
:103AC00015E022EE000A1068C0F34620401C00EE0C
:103AD000900AF8EE600A80EE201ABCEEC10A10EEE1
:103AE000100A70BD01EE901ADFED092AD8E7002018
:103AF00070BD0000104402580090D00340787D0152
:103B000000000039304402580024744A0024744CE8
:103B100020BCBE4B2DE9F05F04007DD0FF4F207824
:103B2000FE4D1837DFF8F493103DC00748D0D9F8A0
:103B30000000396800F03800102815D0182803D18B
:103B400001F0030002280FD06068B0F5803F12D06A
:103B500010B1B0F5A02F18D0286820F4803028606C
:103B6000286820F4802009E02868800328D5606850
:103B70000028D2D024E0286840F4803028606068B3
:103B800088B1FEF75FFC064609E0286840F4802013
:103B90002860F0E7FEF756FC801B64286FD8286881
:103BA0008003F7D50CE0FEF74DFC064605E000BFAC
:103BB000FEF748FC801B6428F0D828688003F7D4FF
:103BC000207841F20308D54E0C3E800769D5D9F81C
:103BD0000000396810F038000ED0182801D188078D
:103BE0000AD0E06890B3296821F0190101432960E7
:103BF000FEF728FC824631E02868400702D5E068DD
:103C000000288AD0E168286820F01900084328605D
:103C1000FEF718FC824607E0DFE000BFFEF712FC6B
:103C2000A0EB0A000228B9D828684007F6D500BFE3
:103C3000FEF702FC40451BD82069402812D03168AD
:103C400021F47C3141EA003030602AE018E000BF06
:103C5000FEF7F8FBA0EB0A0002289FD8286840076F
:103C6000F6D5E5E7306820F47C3040F40030EBE72F
:103C7000207C316821F0FE4141EA0060E4E70DE17B
:103C8000286820F001002860FEF7DCFB824605E092
:103C9000FEF7D8FBA0EB0A0002288DD82868400761
:103CA000F6D42078C0065DD5D9F80000DFF86CB2F4
:103CB000396800F03800ABF1040B082810D0182840
:103CC00003D101F0030001280AD0E0690028286828
:103CD00038D040F080002860FEF7B4FB824623E035
:103CE0002868C00523D5E069802876D11FE0206AC6
:103CF000202821D0316821F0F84141EA806030600D
:103D000030E000BF94F82010DBF8002022F07C5255
:103D100042EA0161CBF8001024E000BFFEF792FBFD
:103D2000A0EB0A00022898D82868C005F6D5FEF74F
:103D300083FB4045E6D8DAE7306820F0F84040F0F1
:103D40008040DCE720F080002860FEF77BFB064621
:103D500005E000BFFEF776FB801B02289DD828688F
:103D6000C005F7D42078000729D56C486169643014
:103D700000298046016811D041F001010160FEF781
:103D800061FB064605E000BFFEF75CFB801B0228D6
:103D9000C9D8D8F800008007F6D510E021F001015D
:103DA0000160FEF74FFB064605E000BFFEF74AFB49
:103DB000801B022872D8D8F800008007F6D420783B
:103DC000800623D5A0690028286810D040F48050D0
:103DD0002860FEF737FB064605E036E1FEF732FBCA
:103DE000801B02285AD828688004F7D50EE020F4FA
:103DF00080502860FEF726FB064604E0FEF722FB13
:103E0000801B02284AD828688004F7D4207840070D
:103E10004FD5DFF80C81D8F8001041F48071C8F854
:103E20000010FEF70FFB064605E000BFFEF70AFB99
:103E3000801B642832D8D8F80000C005F6D5374E6C
:103E4000A068603601280AD008B1052813D0306870
:103E500020F001003060306820F0040002E030689B
:103E600040F001003060A06841F2883A90B1FEF75E
:103E7000E9FA80460AE0306840F004003060EEE77E
:103E8000FEF7E0FAA0EB0801514507D8306880073B
:103E9000F6D50EE0FEF7D6FA804607E084E000BFD4
:103EA000FEF7D0FAA0EB080151457DD830688007B5
:103EB000F6D4606AB0B3DFF86480D9F8001008F176
:103EC00020084FF6F87B08F10409C1F3C201032969
:103ED000A8F1040A69D00228286820F080702860C0
:103EE00003D0FEF7AFFA044684E0FEF7ABFA0646CD
:103EF00005E000BFFEF7A6FA801B022877D82868E5
:103F00008001F7D4E26A40F2F331386854F8283F70
:103F1000884340EA02101843386004E01044025815
:103F200000480258B5E0217B434622894FF4FE0C3D
:103F3000208A4FF0FE474902267D521E401EA1F501
:103F40000071C2F308088AB2761E0CEA004042EA09
:103F500008020243504607EA06610A431A60DAF88B
:103F6000002022F00102CAF80020D9F80020266AB9
:103F700022EA0B0242EAC602C9F80020DAF8001071
:103F8000A26921F00C011143CAF800100168E2692E
:103F900021F0020111430160016841F480310160A8
:103FA000016841F4003101E021E027E0016001688F
:103FB00041F480210160016841F00101016028683D
:103FC00040F080702860FEF73DFA044605E000BF2F
:103FD000FEF738FA001B022809D828688001F7D5B7
:103FE00057E000BFFEF72EFA001B022802D903207B
:103FF000BDE8F09F28688001F4D44AE039680128C0
:10400000D8F8000021D0A26A01F0030393421CD12A
:10401000E26AC1F305118A4217D1216BC0F308028D
:10402000491E8A4211D1616BC0F34622491E91425A
:104030000BD1A16BC0F30642491E914205D1E16B41
:10404000C0F30660491E814201D00120D0E7A16C77
:104050004E46D9F80000C0F3CC00814219D0DAF8FE
:104060000000554620F00100CAF80000FEF7EAF90A
:104070004FEA0007FEF7E6F9B842FBD0A26C3068C1
:1040800020EA0B0040EAC2003060286840F00100DE
:1040900028600020ACE7401EB0F1807F10B501D34E
:1040A000012010BD4FF0E02460610F21601703F084
:1040B0001AFB0020A0610721216110BDF0B590F826
:1040C0003C20012A3BD01F4E012480F83C400222B4
:1040D00080F83D2002681C4D5368B242D2F808C0F7
:1040E00001D0AA4203D14F6823F470033B430F6809
:1040F00023F070031F4357600268B24213D0B2F13D
:10410000804F10D0114B9A420DD0114B9A420AD0D9
:10411000104B9A4207D0AA4205D00F4B9A4202D0C8
:104120000E4B9A4204D189682CF0800319439160A8
:10413000002180F83D4080F83C100846F0BD022088
:10414000F0BD0000000001400004014000040040F8
:1041500000080040000C00400018004000400140F2
:1041600010B5040003D094F83D0010B107E0012021
:1041700010BD002084F83C00204600F023F8022007
:1041800084F83D002068211D01F0C8FF012084F85B
:10419000480084F83E0084F83F0084F8400084F82A
:1041A000410084F8420084F8430084F8440084F815
:1041B000450084F8460084F8470084F83D0000205C
:1041C00010BD000008B500680649884208D10648BD
:1041D000016841F004010160006800F004000090F3
:1041E00008BD000000080040E844025870B50446CD
:1041F00090F83C000025012814D03A4B012684F8A1
:104200003C60022084F83D0022689068184020F449
:104210007F409060086870282FD010DC10F00F0FDE
:1042200003D022E04FF0020070BD4FEA2012072AAF
:104230001BD2DFE802F0535353534B394100B0F126
:10424000101F4BD009DCB0F5805F0FD0B0F5005FD8
:104250001ED0B0F5801F08D140E0A0F580112039B4
:104260003CD010293AD0202938D0012584F83D606F
:10427000002084F83C00284670BD4A682068D1E9D7
:10428000021301F0B3FF2068816841F0770109E073
:104290004A682068D1E9021301F0A8FF206881680C
:1042A00041F480418160E1E7CA684968206802F012
:1042B0004BF92068502106E0CA684968206802F07E
:1042C00054F92068602101F09BFFCFE7CA68496874
:1042D000206802F039F920684021F4E7226801469D
:1042E0001046F0E788FFCEFF10B586B004461421D3
:1042F0006846FCF74BFB0E492068884215D10D48F3
:10430000016841F008010160006801AC002200F082
:1043100008000590022003238103009184E80D002A
:10432000049069460448FDF75FFF06B010BD000029
:1043300000080040E0440258000C025870B50446E2
:1043400090F83C0000260D4601280BD0012084F88F
:104350003C000C2A4AD007DC82B1042A20D0082A6B
:1043600006D131E0022070BD102A53D0142A63D048
:104370000126002084F83C00304670BD206801F022
:1043800049FF2068816941F00801816120688169E5
:1043900021F00401816120682A698169114311E0DB
:1043A000206801F089FF2068816941F40061816122
:1043B0002068816921F480618161206829698269AE
:1043C00042EA01218161D4E7206801F0C1FF206841
:1043D000C16941F00801C1612068C16921F004018F
:1043E000C16120682A69C169114311E0206801F0A8
:1043F000FBFF2068C16941F40061C1612068C169A7
:1044000021F48061C16120682969C26942EA012101
:10441000C161AEE7206802F023F82068416D41F0E9
:10442000080141652068416D21F004014165206863
:104430002A69416D114311E0206802F04BF82068B1
:10444000416D41F4006141652068416D21F4806156
:10445000416520682969426D42EA0121416588E78A
:1044600010B5040003D094F83D0010B107E001201E
:1044700010BD002084F83C00204600F022F8022005
:1044800084F83D002068211D01F048FE012084F8D9
:10449000480084F83E0084F83F0084F8400084F827
:1044A000410084F8420084F8430084F8440084F812
:1044B000450084F8460084F8470084F83D00002059
:1044C00010BD704730B590F88410012918D0012232
:1044D00080F884202421C0F888100022202401685C
:1044E0000B680D6823F0005325F001050D6042664E
:1044F00001680B60C0F8884080F88420104630BD09
:10450000022030BD7047704770B5044690F88400B3
:1045100001281DD0012284F884202420C4F88800BA
:1045200020680568026822F0010202602068826843
:1045300022F060620A438260204602F08FFA22680D
:10454000202100201560C4F8881084F8840070BD14
:10455000022070BD70B5044690F8840001281DD07B
:10456000012284F884202420C4F88800206805688B
:10457000026822F0010202602068826822F0604234
:104580000A438260204602F069FA22682021002056
:104590001560C4F8881084F8840070BD022070BDD6
:1045A00070477047704700002DE9F041076800250B
:1045B000044640F60F030226F8693968BA681842C3
:1045C0000AD183067ED501F0200302F0805C53EA15
:1045D0000C0377D0616F74E1CF4BDFF840C3134019
:1045E00001EA0C0C53EA0C0C6CD05FEAC07C0CD0D6
:1045F0005FEAC15C09D54FF0010CC7F820C0D4F8C0
:10460000907047F00107C4F89070870709D5D70765
:1046100007D027683E62D4F8906046F00406C4F8DC
:10462000906046070AD5D60708D0276804263E6260
:10463000D4F8906046F00206C4F8906006070CD5E6
:1046400001F020061E4308D0266808233362D4F800
:10465000903043F00803C4F8903003050BD54B01AC
:1046600009D526684FF400633362D4F8903043F0E4
:104670002003C4F89030D4F89030002B3DD0800651
:1046800009D501F0200002F08051084303D0616F8A
:1046900009B1204688472168D4F890008968490606
:1046A00002D410F0280F2AD0204602F0BDFA20686C
:1046B000806840061ED52068083050E8001F21F0B1
:1046C000400100E021E040E80012002AF3D1D4F8D4
:1046D000800078B192490165D4F88000FDF730FC84
:1046E00000280AD0D4F88000016D00E02046BDE823
:1046F000F04108472046FFF755FFBDE8F08120460E
:10470000FFF750FFC4F89050F7E7D4F86CC02023AF
:10471000BCF1010F7ED15FEAC06C7BD55FEAC16C52
:1047200078D51020386220688068400673D5D4F8A8
:1047300080107C4A0868904234D07A4A18329042FD
:1047400030D0784A303290422CD0764A483290426B
:1047500028D0744A6032904224D0724A7832904213
:1047600020D0704A903290421CD06E4AA8329042BB
:1047700018D06D4A904215D06B4A1832904211D031
:10478000694A303290420DD0674A4832904209D08F
:10479000654A6032904205D0634A7832904201D037
:1047A000614A903240680004000CA6D0B4F85C2046
:1047B0008242A2D9A4F85E00C869B0F5807F2FD0EC
:1047C000216851E8000F20F4807041E80002002ABF
:1047D000F6D12068083050E8001F21F0010140E8C0
:1047E0000012002AF5D12068083050E8001F21F09F
:1047F000400140E80012002AF5D1C4F88C30E5668B
:10480000216851E8000F20F0100041E80002002A62
:10481000F6D101E040E00BE0D4F88000FDF7E0F9CC
:104820002667B4F85C00B4F85E10401A81B22FE03D
:10483000B4F85C00B4F85E10B4F85E20401A81B29F
:10484000002AB2D00029B0D0226852E8000F20F42C
:10485000907042E80007002FF6D1344F206800F135
:10486000080050E8002F02EA070240E8002CBCF1E3
:10487000000FF3D1C4F88C30E5666567206850E816
:10488000002F22F0100240E80023002BF6D126670B
:104890002046FFF737FE30E7C60209D5560207D596
:1048A0004FF4801038622046BDE8F041FFF779BE32
:1048B00006060AD501F0800602F40002164304D071
:1048C000A16F00297FF412AF17E7420611D54A06FF
:1048D0000FD52046026852E8001F21F0400142E84F
:1048E0000014002CF6D1C0F88830856700F028FA53
:1048F00003E7020206D54A0004D52046BDE8F04190
:10490000FFF74EBEC001C6D50029C4DA2046BDE877
:10491000F041FFF7F8BD0000010000102001000485
:10492000136C00901000024010040240FEFFFFEFE5
:1049300010B5040003D0D4F8880010B107E00120BE
:1049400010BD002084F88400204600F027F82420C1
:10495000C4F888002068016821F001010160A06AA4
:1049600010B1204602F09CF8204602F0EFFB01282F
:10497000E6D02068416821F4904141602068816858
:1049800021F02A0181602068016841F00101016085
:104990002046BDE8104002F0E7B800002DE9F047DE
:1049A000B6B08046142130A8FBF7F0FFC02168465E
:1049B000FBF7ECFF6B4C03276C490226D8F800008C
:1049C000083C684D4FF00008DFF89CA188422CD1CC
:1049D0000021CDF8788002226846CDE90021FEF75B
:1049E000B3F908B1FCF7EBFF286840F40020286019
:1049F000286800F400203590206840F0080020600E
:104A000020680821309700F008003590CDE9316822
:104A1000CDE9338130A95046FDF7E6FB0022342072
:104A20001146FDF7DFFF342031E051494FF007090F
:104A3000884231D10020CDF878800221CDE90010E4
:104A40006846FEF781F908B1FCF7B9FF286840F025
:104A500080402860286800F080403590206840F051
:104A600010002060206830AB4FF4C072339700F024
:104A7000100030A9CDE9349083E844013D48FDF7AA
:104A8000B3FB002252201146FDF7ACFF5220FDF788
:104A90009BFF36B0BDE8F087374988422FD1002010
:104AA000CDF87C800121CDE900106846FEF74CF975
:104AB00008B1FCF784FF2B480830016841F0100171
:104AC0000160006800F010003590206840F001009F
:104AD0002060206830AA4FF4C061339700F00100D5
:104AE00082E84201CDE93490244830A9FDF77CFBEF
:104AF000002225201146FDF775FF2520C7E7204934
:104B00008842C6D10021CDF878800220CDE900018D
:104B10006846FEF719F908B1FCF751FF286840F420
:104B200080202860286800F480203590206840F0BC
:104B300008002060206830AA4FF4407100F008009F
:104B400082E84201CDE9349030A95046CDF8CC80BE
:104B5000FDF74AFB002227201146FDF743FF2720DF
:104B600095E70000E8440258000C0258004C004051
:104B70000078004000100258001001400000025868
:104B80000048004030B4D0F88C30202B02D00220F6
:104B900030BC7047A9B1A2B10B4D00240368C466B4
:104BA000AB420BD05B681B0208D5046854E8003F99
:104BB00043F0806344E80035002DF6D130BC02F0AC
:104BC0009BBC0120E4E70000000C005810B51D4913
:104BD00004460068884208D11B4901221B48FFF7A0
:104BE000D1FF19491AA0FBF775FC1C4920688842BF
:104BF00009D11648012214499430FFF7C3FF124926
:104C000017A0FBF767FC19492068884208D10E49B4
:104C100001221748FFF7B6FF0B4916A0FBF75AFC15
:104C20001749206888420BD1084801220649943868
:104C3000FFF7A8FFBDE81040034912A0FBF74ABCEC
:104C400010BD000000100140000000209C03002067
:104C5000553152583A25730D0A00000000480040B3
:104C6000553352583A25730D0A000000004C00409D
:104C700074020020553452583A25730D0A00000082
:104C800000780040553752583A25730D0A0000004D
:104C90002DE9F8430446D0F88800984616460D469C
:104CA000202802D00220BDE8F883A5B19EB10021E2
:104CB000C4F890102120C4F888001834FDF7C2FB16
:104CC000814654F8100CA687E6872027183CB0F5DB
:104CD000805F02D003E00120E5E7206910B12E4695
:104CE000002510E000260EE08021204602F08CFC1A
:104CF000C0B9DEB116F8010B21688862B4F856001D
:104D0000401EA4F85600B4F856004B464FF000027F
:104D1000CDF800800028E7D14FF04001204602F096
:104D200073FC48B1C4F888700320BCE735F8020B67
:104D30002168C0F30800E0E7C4F888700020B2E7FB
:104D40007047FEE770B5104D4FF480740022214685
:104D50002846FDF76CFB01F015F80C480022A10174
:104D6000FDF765FB022006F023FA012221462846C2
:104D7000FDF75DFB022006F01BFA21462846BDE840
:104D800070400022FDF753BB00000258000C02588F
:104D900030B585B014216846FBF7F8FD01AB0D4D29
:104DA0001120002102224FF48074009483E8070050
:104DB00069462846FDF718FA00F0E4FF0122214673
:104DC0002846FDF734FB012203489103FDF72FFB32
:104DD00005B030BD00000258000C025870B5104DEF
:104DE0004FF48074002221462846FDF720FB00F096
:104DF000C9FF01220B489103FDF719FB022006F0C1
:104E0000D7F9012221462846FDF711FB022006F0C2
:104E1000CFF921462846BDE870400022FDF707BBC8
:104E200000000258000C02582DE9F047002480468B
:104E300000F094FF174F0025DFF85CA04FF4807658
:104E40004FF48049314600223846FDF7F0FA02203F
:104E500006F0AEF9012231463846FDF7E8FA600661
:104E60004946040E5046FDF7D5FA08B1641CE4B279
:104E7000012006F09DF96D1CEDB2082DE2D3B8F1CA
:104E8000000F04D0FFF75EFF2046BDE8F087FFF774
:104E9000A5FFF9E700000258000C02582DE9F04781
:104EA0000024804600F084FF274E0025DFF89CA0F8
:104EB0004FF480774FF48049394600223046FDF7A1
:104EC000B6FA022006F074F9012239463046FDF7A1
:104ED000AEFA60064946040E5046FDF79BFA0128DB
:104EE00001D1641CE4B2012006F062F96D1CEDB240
:104EF000082DE1D3B8F1000F4FF0000239463046DB
:104F00001BD0FDF794FA00F067FF00224946504697
:104F1000FDF78DFA022006F04BF9012239463046A2
:104F2000FDF785FA052006F043F9002239463046A0
:104F3000FDF77DFA2046BDE8F087FDF778FA00F02E
:104F40004BFF0122E2E7000000000258000C02586B
:104F500070B5002414A0FBF7BDFA00BF00F0A4F860
:104F6000204600F02DF800F043F9054600F0ECF87B
:104F700045B10FA0FBF7AEFA64B12007B0F1704F56
:104F800005D007E00BA02146FBF7A4FAF4E70BA03D
:104F9000FBF7A0FA641CE4B2FF2CDFD3BDE870403D
:104FA00001A0FBF797BA00000D0A0D0A00000000EF
:104FB0002D2D200025303278200000000D0A000041
:104FC0002DE9F047054600F0DDFE184F4FF48076DE
:104FD000002231463846FDF72AFADFF854900024C3
:104FE0004FF48048280601D5012200E00022414606
:104FF0004846FDF71CFA6806050E022006F0D8F8B0
:10500000012231463846FDF712FA022006F0D0F8A8
:10501000002231463846FDF70AFA022006F0C8F8A9
:10502000641CE4B2082CDDD3BDE8F0870000025810
:10503000000C02582DE9F047054600F0CDFE184F50
:105040004FF48076002231463846FDF7F0F9DFF85C
:10505000549000244FF48048280601D5012200E036
:10506000002241464846FDF7E2F96806050E022097
:1050700006F09EF8012231463846FDF7D8F90220A5
:1050800006F096F8002231463846FDF7D0F90220A6
:1050900006F08EF8641CE4B2082CDDD3BDE8F0877E
:1050A00000000258000C02582DE9F04100F06AFEA1
:1050B00001220F4D940328462146FDF7B8F901223D
:1050C0000C4F160238463146FDF7B1F9042006F0C0
:1050D0006FF8002221462846FDF7A9F9042006F0C2
:1050E00067F831463846BDE8F0410022FDF79FB928
:1050F000000C0258000002582DE9F04100F06CFE4F
:1051000001220F4D940328462146FDF790F9012214
:105110000C4F160238463146FDF789F9052006F096
:1051200047F8002221462846FDF781F9062006F0BF
:105130003FF831463846BDE8F0410022FDF777B927
:10514000000C0258000002582DE9F04100F01AFE50
:10515000104D4FF48074002221462846FDF767F970
:105160000D4FA601002231463846FDF760F90420B4
:1051700006F01EF8012221462846FDF758F90122C3
:1051800031463846FDF753F9BDE8F041042006F0FA
:105190000FB8000000000258000C02582DE9F04141
:1051A00000F01AFE104F4FF4807600223146384648
:1051B000FDF73DF90D4DB401002221462846FDF7CB
:1051C00036F9012231463846FDF731F9062005F05F
:1051D000EFFF012221462846FDF729F9BDE8F041FD
:1051E000062005F0E5BF000000000258000C025840
:1051F0002DE9F041002400F0B1FD0122154E950388
:1052000030462946FDF713F9012005F0D1FF0122B0
:10521000DFF84480170240463946FDF708F90120BF
:1052200005F0C6FF08E0641CE4B2FA2C04D9FFF7CD
:105230008BFF0120BDE8F08129463046FDF7EAF8F2
:105240000028F0D1002239464046FDF7F0F8002052
:10525000F0E70000000C0258000002582DE9F04170
:105260000122174E0024950330462946FDF7DFF84A
:10527000012005F09DFF00F09BFD0122DFF8448036
:10528000170240463946FDF7D2F8012005F090FF9D
:1052900008E0641CE4B2FA2C04D9FFF77FFF012078
:1052A000BDE8F08129463046FDF7B4F80128F0D07A
:1052B000002239464046FDF7BAF80020F0E700002A
:1052C000000C02580000025800B587B0142168464F
:1052D000FBF75CFB0A48016841F0040101600068CB
:1052E0000021012200F0040005904FF400508DE8E9
:1052F000070004486946FCF777FF07B000BD0000CF
:10530000E044025800080258F0B5114C01EBC10707
:1053100007EB0117059E0025216843EA0243C2F509
:10532000487200EB471021F0010121600521256042
:10533000E16125612264E66000F11050E06363647E
:10534000206840F0010020602068C007FCD1F0BD5B
:105350000010005210B586B014216846FBF716FB0A
:105360000D48016841F004010160006800220B4C07
:10537000022100F0040005902046FDF758F80021B6
:105380000220009001222046CDE9012103916946C7
:10539000FCF72AFF06B010BDE0440258000802588E
:1053A0000148FDF739B900002C0500202DE9FE4F1A
:1053B00081460068882493468D888C2204EBCB17A5
:1053C0008A46C3689421BE46C459C3F30B432B4499
:1053D00004F470441F04019702EBCB1240F80E4016
:1053E00001EBCB13DAF800709C214FF0AC0C01EB11
:1053F000CB1440F2077102910CEBCB11D9F800C02D
:1054000098250020CDF800C0A02605EBCB15DCF8D0
:105410000CC006EBCB16CCF30B4C0CF1010C07EBDC
:105420000C08DDF800C0019F48EA07084CF80E8020
:10543000D9F80070BAF80CC0B846FF68C7F30A077D
:1054400067444FEA074E58F8027007F4704C48F86A
:1054500002C0D9F800C0DAF80870DCF80C80C8F394
:105460000A0808F10108B84448EA0E084CF802801E
:10547000D9F80020D75827F00707D750D9F800707F
:10548000DAF81020FA509AF831209AF818304FEADA
:10549000022C9AF83220120442EA0362D9F8003052
:1054A0001F5918519AF8303043EA0C031343D9F8C6
:1054B00000201351D9F80020535923F0FF03535112
:1054C000D9F80020DAF814305351D9F80020935954
:1054D000029CA3439351D9F80030DAE90724224310
:1054E0009A51D9F8002053585050D9F80020DAF8D2
:1054F00024005050DAF81000C8B301283AD004282C
:105500003AD0022838D0032836D0072834D00120DA
:10551000D9F80030B02505EBCB11B42284245D58B6
:1055200002EBCB1205F0E0255D50DAE9003504EB23
:10553000CB14EB1ABAF8285043434543D9F800007E
:10554000DB1D43EA05434350D9F8000081586FF34F
:105550000A018150D9F80000DAF82C108150D9F8EE
:105560000000015941F001010151BDE8FE8FFFE744
:105570000420CDE70320CBE70220C9E7F0B5B1B0A6
:10558000C0216846FBF702FA02214FF4A5760023FA
:10559000094A19270A97CDE90B610D0268460A24CA
:1055A0000D91CDE91053CDE90E431F93CDE90023B2
:1055B000FDF7CAFB31B0F0BD010000201FB5FDF7BB
:1055C000D5F900208DF80F0001218DF80E10122260
:1055D0008DF8082003238DF80B308DF800104FF064
:1055E00010548DF80D008DF80A0001948DF801001B
:1055F0008DF809008DF80C006846FDF789F9042044
:10560000FDF7C2F91FBD00002DE9F04F87B014214E
:105610006846FBF7BBF94348016841F0100101609F
:10562000016801F010010591016841F080010160FD
:10563000016801F080010591016841F004010160F9
:10564000016801F004010591016841F00101016068
:10565000016801F001010591016841F0020101605A
:10566000016801F002010591016841F00801016043
:10567000006801222C4E682100F008000590304699
:10568000FCF7D5FE002230461021FCF7D0FEDFF8F3
:105690009CA0002202215046FCF7C9FEDFF890B022
:1056A0004FF48048012241465846FCF7C0FE4FF4B3
:1056B0008079204801224946FCF7B9FE002469465A
:1056C000012718200090CDE9017430460394FCF7BF
:1056D0008BFD1125694660200090CDE901543046CC
:1056E0000394FCF781FD032669460220CDE90007FB
:1056F000CDE902465046FCF777FDCDF800806946BB
:1057000003965846CDE90154FCF76EFDCDF80090A4
:10571000694603960748CDE90154FCF765FD07B0DB
:10572000BDE8F08FE044025800100258000802580B
:10573000000C025800000258F0B5ADF23C4D0024B8
:1057400034210DF58060FBF721F93748016841F0FD
:10575000100101600068002535495022334B00F0EC
:105760001000CDF8340402204FF45C7640F20A2792
:105770000B602A234D604FF4087E8D604FF4876CD8
:10578000CD600D614D61183181E8CD508D774D7739
:1057900027480D77FCF7A4FF0522CDF810244FF41D
:1057A000F071CDF80C14CDF820240DF585624FF47E
:1057B0004870CDF800544FF01057CDF80404CDF8E0
:1057C0002474FF23CDF808544FF4806603C20DF211
:1057D000144000220DF5806180E868008DF8305497
:1057E0008DF8315412488DF83254FCF7CDFE6D46D9
:1057F000204600F0A7FA611C45F824008CB2FF2C6B
:10580000F6D90B4800234FF480726946FCF776FE08
:1058100007480021FCF7E1FE01220648D103FCF70E
:1058200006FE0DF23C4DF0BDD4440258001000506D
:105830002C050020000C025810B58EB000241C214D
:10584000009407A801940294039404940594069488
:10585000FBF79CF81E4840F2F311F0221B4BC0E905
:10586000024104618461C0E90032FEF779FC08B1AD
:10587000FCF7A5F84FF48050009015486946FEF7F4
:10588000B5FC08B1FCF79BF81148FEF7E9FD08B13B
:10589000FCF795F80E4804A904940694FEF70EFC54
:1058A00008B1FCF78CF807AA6020FA2182E81300FF
:1058B00007480C2207A90B94FEF740FD08B1FCF73E
:1058C0007EF80348FEF710FD0EB010BD0008004042
:1058D000280200201848002110B5164C0C224FF465
:1058E000E1330460C0E90131C160C0E904128161A3
:1058F000C161016241628162FFF71AF808B1FCF7E9
:105900005EF80D480021FEF725FE08B1FCF757F8B8
:1059100009480021FEF7F8FD08B1FCF750F80648E9
:10592000FEF7D0FD002803D0BDE81040FCF747B8D3
:1059300010BD0000004C00407402002018480021F7
:1059400010B5164C0C224FF4E1330460C0E901316C
:10595000C160C0E904128161C1610162416281627A
:10596000FEF7E6FF08B1FCF72AF80D480021FEF724
:10597000F1FD08B1FCF723F809480021FEF7C4FD4A
:1059800008B1FCF71CF80648FEF79CFD002803D080
:10599000BDE81040FCF713B810BD000000780040CF
:1059A000080300201848002110B5164C0C224FF4B3
:1059B000E1330460C0E90131C160C0E904128161D2
:1059C000C161016241628162FEF7B2FF08B1FBF77B
:1059D000F6FF0D480021FEF7BDFD08B1FBF7EFFF14
:1059E00009480021FEF790FD08B1FBF7E8FF0648E3
:1059F000FEF768FD002803D0BDE81040FBF7DFBFCD
:105A000010BD0000001001409C0300201848002138
:105A100010B5164C0C224FF4E1330460C0E901319B
:105A2000C160C0E904128161C161016241628162A9
:105A3000FEF77EFF08B1FBF7C2FF0D480021FEF71D
:105A400089FD08B1FBF7BBFF09480021FEF75CFDAB
:105A500008B1FBF7B4FF0648FEF734FD002803D079
:105A6000BDE81040FBF7ABBF10BD00000048004090
:105A700030040020FEE7FEE710B586B0142168462A
:105A8000FAF784FF1B48016841F0100101600168CA
:105A900001F010010591016841F0100101600068FA
:105AA0000221154C102200F0100005900020CDE9D5
:105AB00001016946009203902046FCF795FB0820FF
:105AC000694600902046FCF78FFB4FF47A6000F0A7
:105AD0008BFD08212046FCF79DFC012808D01021F1
