:0200000490006A
:100000006808012079030090F33D0090CF370090FD
:10001000F13D0090410700903D520090000000002B
:10002000000000000000000000000000D740009029
:1000300051070090000000007D3E0090D9400090E4
:100040009303009093030090930300909303009018
:100050009303009093030090930300909303009008
:1000600093030090930300909303009093030090F8
:1000700093030090930300909303009093030090E8
:1000800093030090930300909303009093030090D8
:1000900093030090930300909303009093030090C8
:1000A00093030090930300909303009093030090B8
:1000B00093030090930300909303009093030090A8
:1000C0009303009093030090930300909303009098
:1000D000930300903152009093030090930300909B
:1000E000930300909303009000000000930300909E
:1000F0009303009093030090930300909303009068
:100100009303009093030090930300909303009057
:100110009303009093030090930300909303009047
:100120009303009093030090930300909303009037
:100130009303009093030090930300909303009027
:1001400000000000000000000000000000000000AF
:100150009303009093030090930300909303009007
:1001600093030090930300909303009093030090F7
:1001700093030090930300909303009093030090E7
:1001800093030090930300909303009093030090D7
:1001900093030090930300909303009093030090C7
:1001A000A9380090930300904507009093030090B6
:1001B00093030090930300909303009093030090A7
:1001C0009303009093030090930300909303009097
:1001D0009303009093030090930300909303009087
:1001E0009303009093030090930300909303009077
:1001F0009303009093030090930300909303009067
:100200009303009093030090930300909303009056
:100210009303009093030090930300909303009046
:10022000930300909303009093030090000000005C
:10023000930300909303009000000000930300904C
:100240009303009093030090930300909303009016
:100250009303009093030090930300909303009006
:1002600093030090930300909303009093030090F6
:10027000930300909303009093030090000000000C
:1002800093030090930300909303009000000000FC
:10029000000000009303009000F002F800F05CF80A
:1002A0000AA090E8000C82448344AAF10107DA45D1
:1002B00001D100F051F8AFF2090EBAE80F0013F0C7
:1002C000010F18BFFB1A43F001031847E4BC0200FA
:1002D00004BD02000A444FF0000C10F8013B13F07B
:1002E000070408BF10F8014B1D1108BF10F8015B8F
:1002F000641E05D010F8016B641E01F8016BF9D182
:1003000013F0080F1EBF10F8014BAD1C0C1B09D1D8
:100310006D1E58BF01F801CBFAD505E014F8016B4A
:1003200001F8016B6D1EF9D59142D6D370470000DC
:100330000023002400250026103A28BF78C1FBD8EE
:10034000520728BF30C148BF0B6070471FB527F068
:100350005CFB1FBD10B510BD00F0C0F91146FFF7E2
:10036000F5FF23F0E5F900F0DEF903B4FFF7F2FF43
:1003700003BC06F0EDFD000009488047094800472E
:10038000FEE7FEE7FEE7FEE7FEE7FEE7FEE7FEE745
:10039000FEE7FEE704480549054A064B70470000A2
:1003A000C54100909902009068C8002068080120AB
:1003B00068D8002068D80020704753EA020C00F08B
:1003C00069802DE9F04B4FF00006002B1FBFB3FAF8
:1003D00083F503FA05F424FA05F65E4012BF1643CE
:1003E000B2FA82F502FA05F4C5F120051EBF22FA21
:1003F00005FC44EA0C04203556EA044C4FEA144448
:1004000018BF641C4FF000084FF00009904271EBD8
:10041000030C39D3002919BFB1FA81F701FA07F6A5
:10042000B0FA80F700FA07F6C7F120071EBF20FADE
:1004300007FC46EA0C062037B6FBF4FCA7EB0507E1
:10044000103F07F01F0BCBF120060CFA0BFB2CFA28
:1004500006F644BFB3460026202FA4BF5E464FF0E9
:10046000000B5BEA060C08BF4FF0010B19EB0B0900
:10047000ABFB027C48EB0608C01B06FB02CC0BFB67
:1004800003CC71EB0C01C1E70B46024641464846DE
:10049000BDE8F08B13B54FF000004FF00001AFF353
:1004A0000080BDE81C40704740EA0103024630B5B9
:1004B0009B0710D14FF0013400E008C208C91D1B92
:1004C0009D4315EAC41FF8D013F0FF0102F8011B89
:1004D0000DD01B0AF8E711F8013B002B02F8013B95
:1004E00005D011F8013B002B02F8013BF3D130BDE0
:1004F00010B5431C02E010F8011B71B18107FAD15D
:100500004FF0013202C88C1A8C4314EAC211F9D0A0
:10051000C01A0A0603D0C01E10BDC01A10BD0A04BE
:1005200001D0801E10BD0902FCD0401E10BD032A60
:1005300040F2308010F0030C00F0158011F8013B00
:10054000BCF1020F624498BF11F801CB00F8013BE7
:1005500038BF11F8013BA2F1040298BF00F801CBAB
:1005600038BF00F8013B11F0030300F02580083A82
:10057000C0F0088051F8043B083A51F804CBA0E8D9
:100580000810F5E7121D5CBF51F8043B40F8043B2E
:10059000AFF30080D20724BF11F8013B11F801CB63
:1005A00048BF11F8012B24BF00F8013B00F801CB34
:1005B00048BF00F8012B704710B5203AC0F00B80FF
:1005C000B1E81850203AA0E81850B1E81850A0E857
:1005D0001850BFF4F5AF5FEA027C24BFB1E81850B1
:1005E000A0E8185044BF18C918C0BDE810405FEA21
:1005F000827C24BF51F8043B40F8043B08BF70479D
:10060000D20728BF31F8023B48BF11F8012B28BFA1
:1006100020F8023B48BF00F8012B70474FF0000262
:1006200000B5134694469646203922BFA0E80C50E8
:10063000A0E80C50B1F12001BFF4F7AF090728BFC3
:10064000A0E80C5048BF0CC05DF804EB890028BF3F
:1006500040F8042B08BF704748BF20F8022B11F068
:10066000804F18BF00F8012B704700004FF0013C8D
:1006700050F8042B51F8043B9A4215D1A2EB0C031D
:10068000934313EACC130BD150F8042B51F8043BDD
:100690009A4209D1A2EB0C03934313EACC13E7D09F
:1006A0004FF00000704700BFD01A01BAB1FA81F1D3
:1006B00001F0180122FA01F0CB40C1F12001DBB2B8
:1006C000C0B2C01A2CFA01F3D11A914311EAC31136
:1006D000E6D170477047704770477047754600F025
:1006E0002BF8AE4605006946534620F007008546C4
:1006F00018B020B5FFF74EFEBDE820404FF00006D1
:100700004FF000074FF000084FF0000B21F00701F9
:10071000AC46ACE8C009ACE8C009ACE8C009ACE83C
:10072000C0098D46704710B50446AFF300802046DF
:10073000BDE81040FFF719BE0048704704C800200C
:10074000FEE70000014800F085B80000F402002038
:10075000704772B6FEE72DE9F041012417460D46B9
:10076000064604F0D3F8304600F060F8C0B904F053
:10077000CDF8BB2004F042F9012811D16E1E0024EF
:1007800009E0B44201D1002000E0012004F08EF81D
:100790003855641CE4B2AC42F3D304F0DBF8002417
:1007A00004F0D8F82046BDE8F081000010B504F050
:1007B00069F9134C00221021204600F002FD0122AD
:1007C0002046082100F0FDFC42F2107003F0D2FF39
:1007D00000222046082100F0F4FC0A4803F0CAFF7A
:1007E00001222046082100F0ECFC074803F0C2FF7C
:1007F00004F034F9BDE8104044F6206003F0BABFBD
:1008000000100258F04902003057050070B50D463F
:10081000044604F07BF8204600F008F810B928469A
:1008200004F0ECF804F096F8002070BD10B5044612
:1008300004F06CF8BA2004F0E1F8012807D1200A8E
:1008400004F0DCF8012802D1E0B204F0D7F800206F
:1008500010BD70472DE9F0470446006800274FF0AF
:1008600004084FF0010946680568F10714D0E9054E
:1008700012D5036823F480730360606E40F00100BA
:1008800060662068C0F8089084F8618084F8607021
:10089000616A09B120468847B00615D5A80413D56A
:1008A00020682022036823F40053036020688260DC
:1008B000606E40F00200606684F8618084F86070C9
:1008C000616A09B120468847300715D5280513D538
:1008D00020680822036823F40063036020688260B4
:1008E000606E40F00400606684F8618084F8607097
:1008F000616A09B12046884770070CD568050AD59A
:100900002068026822F4806202602068C0F80880D3
:10091000204600F02DF8B00713D5A80511D52068A2
:100920000222036823F40073036020688260606E13
:10093000606684F8619084F86070216A09B120468D
:100940008847F00612D5E80410D52068016821F424
:1009500080510160226810219160616E616684F8A7
:100960006190204684F86070FFF773FFBDE8F08760
:10097000704700002DE9F84F044600F02DFC009070
:100980003CB194F83500022806D080216165002032
:10099000E4E00120BDE8F88FC74DC74EC6491835C1
:1009A00020683036DFF81483DFF814938842DFF8CC
:1009B00014A3DFF814B32ED0A8422CD0B0422AD012
:1009C000404528D0484526D0504524D0584522D00F
:1009D000BD4A183290421ED0BC4A90421BD0BB4A3E
:1009E0001832904217D0B94A3032904213D0B74AE9
:1009F000483290420FD0B54A603290420BD0B34A91
:100A00007832904207D0B14A9032904203D0AF4A38
:100A1000A832904209D1026822F01E0202602068CA
:100A2000426922F08002426103E0026822F00E0275
:100A3000026027688F4238464DD0A8424BD0B04262
:100A400049D0404547D0484545D0504543D058450A
:100A500041D09D4A183290423DD09C4A90423AD0B3
:100A60009A4A1832904236D0984A3032904232D068
:100A7000964A483290422ED0944A603290422AD010
:100A8000924A7832904226D0904A9032904222D0B8
:100A90008E4AA83290421ED08D4A90421BD08C4A7A
:100AA0001432904217D08A4A2832904213D0884A92
:100AB0003C3290420FD0864A503290420BD0844A4A
:100AC0006432904207D0824A7832904203D0804A02
:100AD0008C32974204D1206E026822F48072026048
:100AE00075492068884228D0A84226D0B04224D038
:100AF000404522D0484520D050451ED058451CD0F6
:100B000071491831884218D07049884215D06F4910
:100B10001831884211D06D49303188420DD06B496F
:100B20004831884209D069496031884205D0674917
:100B30007831884201D065499031016821F0010186
:100B400001600EE000F048FB0099401A052808D922
:100B5000202262650321002084F8351084F83400D7
:100B600017E73868C007EDD1534A01212068904249
:100B70002ED0A8422CD0B0422AD0404528D048459B
:100B800026D0504524D0584522D04F4B1833984298
:100B90001ED04E4B98421BD04C4B1833984217D066
:100BA0004A4B3033984213D0484B483398420FD0C9
:100BB000464B603398420BD0444B7833984207D071
:100BC000424B9033984203D0404BA833984208D10F
:100BD00094F85C703F23A06D07F01F07BB40836053
:100BE00007E094F85C30A06D03F01F0301FA03F3F3
:100BF0004360206890424DD0A8424BD0B04249D0CB
:100C0000404547D0484545D0504543D0584541D050
:100C10002D4A183290423DD02C4A90423AD02B4A6D
:100C20001832904236D0294A3032904232D0274A88
:100C3000483290422ED0254A603290422AD0234A30
:100C40007832904226D0214A9032904222D01F4AD8
:100C5000A83290421ED01E4A90421BD01C4A143229
:100C6000904217D01A4A2832904213D0184A3C3288
:100C700090420FD0164A503290420BD0144A643240
:100C8000904207D0124A7832904203D0104A8C32F8
:100C900090420BD1D4E919024260E06E30B1026893
:100CA00022F480720260D4E91C024260002084F8C1
:100CB000351084F834006DE6100002405800024000
:100CC0007000024088000240A00002401004024070
:100CD000085402582DE9F05F28B190F83510022928
:100CE00004D0802141650120BDE8F09F904C904BDD
:100CF0000168183C18338E4ADFF83C92A1428D4CB3
:100D0000DFF838E28E4FDFF83CB2DFF83CA28F4DBF
:100D10008F4E31D091422FD099422DD0A1422BD06D
:100D2000494529D0714527D0B94225D0DFF810C2F6
:100D30000CF1180C61451FD0DFF808C2ACF1600C53
:100D4000614519D0DFF8FCC1ACF1480C614513D006
:100D5000DFF8F0C1ACF1300C61450DD0DFF8E4C133
:100D6000ACF1180C614507D0594505D0514503D069
:100D7000A94201D0B1422CD1DFF8B4C14FF0040830
:100D800080F83580ACF1180C61451DD091421BD024
:100D9000994219D0A14217D0494515D0714513D0B9
:100DA000B94211D06648183081420DD0654860388C
:100DB000814209D063484838814205D061483038C3
:100DC000814201D05F481838086820F001000860AF
:100DD000ABE0D1F800C02CF00E08DFF854C1C1F828
:100DE0000080ACF1180C0168614527D0914225D0F4
:100DF000994223D0A14221D049451FD071451DD031
:100E0000B9421BD0DFF838C10CF1180C614515D080
:100E1000DFF830C1ACF1600C61450FD0DFF824C1C0
:100E2000ACF1480C614509D0DFF818C1ACF1300CC9
:100E3000614503D0DFF80CC1ACF1180CD1F800C04B
:100E40002CF0010CC1F800C0DFF8E4804FF0010C79
:100E50000168A8F11808414546D0914244D0994212
:100E600042D0A14240D049453ED071453CD0B94224
:100E70003AD0334A1832914236D0324A603A9142DF
:100E800032D0304A483A91422ED02E4A303A9142DE
:100E90002AD02C4A183A914226D0594524D051459F
:100EA00022D0A94220D0B1421ED02A4A91421BD062
:100EB000284A1432914217D0264A2832914213D040
:100EC000244A3C3291420FD0224A503291420BD0F8
:100ED000204A6432914207D01E4A7832914203D0B0
:100EE0001C4A8C32914218D1016E0A6822F4807239
:100EF0000A6090F85C20816D02F01F020CFA02F289
:100F00004A60D0E919124A60C16E31B10A6822F410
:100F100080720A60D0E91C124A600022016D80F8DC
:100F200035C080F8342001B188470020DCE600009D
:100F30002800024058000240700002408800024031
:100F4000A00002407004024088040240A004024055
:100F5000B80402400854025870B5044600F03CF949
:100F60000546601C02D004480078044400F034F9BF
:100F7000401BA042FAD370BD000000202DE9F84FBD
:100F800003247D4D00234FF001094FF0B04B4FF08B
:100F90000F0AE9E009FA03F73A4076D00E7906F035
:100FA0000306012E01D0022E18D1D0F808C04FEA56
:100FB000430ECE6804FA0EF82CEA080C06FA0EF678
:100FC00046EA0C068660D0F804C00E792CEA070CBD
:100FD000C6F300169E4046EA0C0646600E79F643BC
:100FE000B6070BD0C6684FEA43088F6804FA08FCBE
:100FF00026EA0C0607FA08F73743C7600E7906F0B1
:101000000306022E12D1DE080F694FEA437C00EB83
:101010008606B646366A4FEADC6C0AFA0CF807FA1E
:101020000CF726EA08063743CEF820700F790668D9
:101030004FEA430807F0030704FA08FC07FA08F729
:1010400026EA0C06374307604E6816F4403F1CD072
:101050004A4E376847F00207376036689F0706F048
:101060000206009623F0030606F1B046B6463F0F8F
:10107000D6F80864DFF808810AFA07FC404526EA3A
:101080000C0603D14FF0000C41E06CE0DFF8F4C037
:10109000604502D14FF0010C39E0DFF8ECC060454B
:1010A00002D14FF0020C32E0DFF8E0C0604502D11F
:1010B0004FF0030C2BE0DFF8D8C0604502D14FF0B1
:1010C000040C24E0DFF8CCC0604502D14FF0050CE1
:1010D0001DE0DFF8C4C0604502D14FF0060C16E0F9
:1010E000DFF8B8C0604502D14FF0070C0FE0DFF821
:1010F000B0C0604502D14FF0080C08E0DFF8A4C092
:10110000604502D14FF0090C01E04FF00A0C0CFAD7
:1011100007FC4CEA060CCEF808C44F68DBF8006008
:10112000FF0226EA020600D516435F46CBF80060B0
:10113000D1F804C0DBF804605FEA8C2C26EA0206D2
:1011400000D516437E606E684F6826EA0206BF032C
:1011500000D516436E602E684F6826EA0206FF032C
:1011600000D516432E605B1C0A6832FA03F67FF442
:1011700011AFBDE8F88F000080000058F444025819
:10118000000002580004025800080258000C0258DF
:10119000001002580014025800180258001C02588F
:1011A00000200258002402580069084000D00120A5
:1011B0007047426921EA02030A4043EA0241816121
:1011C00070470AB1816170470904FBE70148006874
:1011D000000C70470010005C0148806870470000F8
:1011E0000000002002488168027811448160704745
:1011F00000000020032010B500F0DEFA01F0B8FA7C
:101200000F4A104914681368C4F3032203F00F0354
:101210008A5CC95C02F01F0201F01F01D0400A4A3B
:1012200020FA01F11160094908600F2000F010F860
:1012300008B1012010BD00F083FA002010BD0000AD
:10124000184402583C7A0290100000200C00002044
:1012500070B50D4D04462878A0B14FF47A71B1FBFA
:10126000F0F00A490968B1FBF0F001F0DEFD48B981
:10127000102C07D200222146501E00F07DFA0020DB
:101280006C6070BD012070BD000000200C000020CB
:10129000F0B590F8A040012C07D0012680F8A0609E
:1012A000022480F8A14000251FE00220F0BD00BF0D
:1012B00003EB830404EBC30400EB8404A46C062C4E
:1012C0001CD00F68FCB207F47F4C44EA056407F4B5
:1012D0007F0744EA0C043C4307684FF0C40C0CEB56
:1012E000C31C47F80C40091D6D1C9542E0D300213A
:1012F00080F8A16080F8A0100846F0BDD1F800C0C9
:1013000005EB051E0CF0FF040CF47F4744EA0E6465
:101310003C430CF47F0C44EA0C04DDE72DE9F0417A
:10132000044690F8A00016460F4601281DD001255E
:1013300084F8A050022084F8A10006EB860000EBA0
:10134000C600342204EB80003830FFF735F932460E
:101350003946204602F0AEFA216800204D6284F83A
:10136000A15084F8A000BDE8F0810220FBE710B591
:1013700090F8A020012A16D0012280F8A020022493
:1013800080F8A140842303EBC11350F8A01BCC5874
:1013900044F01004CC5050F8A03C00215A62427036
:1013A0000170084610BD022010BD70472DE9F041C4
:1013B0000446006800274FF00408856B466B6907F8
:1013C00015D5710713D5426B22F0040242632068E1
:1013D000C0F83C80D4F8A40040F00100C4F8A40098
:1013E00084F8A180204684F8A070FFF7DEFFA807EC
:1013F00016D5B00714D520680222436B23F00203F0
:1014000043632068C263D4F8A40040F00200C4F82B
:10141000A40084F8A180204684F8A070FFF7C5FFDF
:1014200005EA06004FF00108C0070ED021684A6B9C
:1014300022F001024A632168C1F83C8084F8A1804F
:10144000204684F8A07000F091F8280710D53007E6
:101450000ED520680822436B23F0080343632068FD
:10146000C26384F8A180204684F8A07000F018F9C7
:10147000BDE8F0812DE9F041040004D094F8A1000A
:10148000002518B107E00120BDE8F081204684F86E
:10149000A05000F06DF83448022184F8A110012218
:1014A00002CC8B6923F070438B6194E84A001943A6
:1014B000E3681E4354F8043D31439E69314399610A
:1014C00021688B6803408B602168A68AA7698B68B6
:1014D0003B4343EA06438B602168CB680340CB6003
:1014E0002168A38B276ACE683E4346EA0346CE6056
:1014F00021680B6903400B612368A68CA76A1969F0
:10150000394341EA0641196121684B6903404B6147
:101510002068A38D266B4169314341EA0341416153
:10152000236894F8351094F83600DE6A000406F05B
:101530007F46DE62236840EA012094F83460D96A6D
:1015400031430143D9622068416B41F00601416398
:101550002068816941F001018161C4F8A45084F8D8
:10156000A120002090E7000000F800F07047000084
:10157000F0B587B0044614216846FFF74FF841499B
:10158000206888427BD14048016841F00801016031
:10159000006800F0080005903B48001F016841F01A
:1015A00004010160016801F004010591016841F046
:1015B00001010160016801F001010591016841F03C
:1015C00002010160016801F002010591016841F02A
:1015D00010010160016801F010010591016841F0FE
:1015E00008010160016801F008010591016841F0FE
:1015F0000801016000680E210024029400F0080038
:10160000059002200125C122CDE90351CDE900203A
:101610001E486946FFF7B2FC7A2000901C486946D4
:10162000FFF7ACFC4FF4784000901A486946FFF78A
:10163000A5FC194E4FF47060694600903046FFF7E4
:101640009DFC164F4FF48960694600903846FFF7BD
:1016500095FC032000900921304604916946FFF76C
:101660008DFCEE03384600223146FFF7AAFD0096B6
:101670006946CDE9015438460394FFF77FFC07B073
:10168000F0BD000000100050E44402580008025869
:10169000000002580010025800040258000C0258C2
:1016A00070470000154BF0B5083B427813491A60AB
:1016B0000B680A1F23F001030B6043681360057B6E
:1016C000C67A827A437B2D07847B45EA0665C77B11
:1016D00090F809C0067A90F800E045EAC24040EA76
:1016E000834040EA444040EA074040EA0C2040EA98
:1016F000460040EA0E000860F0BD0000A0ED00E0EA
:10170000BFF35F8F044800210368034A23F480334A
:10171000036070321160704724ED00E0074A40F02A
:101720000100064970321060086840F4803008609B
:10173000BFF34F8FBFF36F8F7047000024ED00E0C1
:10174000054808B5016841F002010160006800F039
:101750000200009008BD0000F4440258002809DB94
:10176000410900F01F028900012001F1E0219040B1
:10177000C1F80001704700000E4BF0B41B680D4625
:10178000C3F30223C3F10706042E00D90426191D52
:10179000072901D2002300E0DB1E012404FA06F130
:1017A0009C40491E2940641E994014402143F0BCCE
:1017B00003F045BD0CED00E0064900F0070210B54E
:1017C0004FF6FF040868044B204040EA022018430B
:1017D000086010BD0CED00E00000FA05134970B57B
:1017E0000A68D243520705D5096801F00701814212
:1017F00013D118E00A6822F0070202430A60FFF7DB
:10180000EBFC0A4D4FF47A760446083D07E000BF32
:10181000FFF7E2FC001BB04201D9012070BD28682F
:10182000C0438004F4D4002070BD00000C4802586E
:1018300010B500F057FF05490968054AC1F30211C8
:10184000515C01F01F01C84010BD00002044025847
:101850003C7A0290494930B5484C0B1D0A68143453
:1018600009681D68246802F00303C5F30012C1F380
:101870000531C4F3CC04002914FB02F200EE102A57
:10188000F8EE400A75D03F4A9FED3D1AB7EE000AC8
:101890006BB1DFED3D1A012B01D0022B64D002EEBB
:1018A000101A1168F8EE422A81EEA22A21E0334C88
:1018B000283C23689B0612D5344B246801EE901A0D
:1018C0001168C4F3C104F8EE612AE34001EE903AD6
:1018D000C1F30801F8EE611A81EEA22A0BE001EED5
:1018E000901ADFED2B2A00BFF8EE611A116882EE24
:1018F000A12AC1F3080101EE901A1168F8EE611AED
:1019000040EE811A71EE800A62EE200AC1F3462190
:1019100001EE101AB8EE411A31EE001AC0EE811A2B
:10192000BCEEE11A80ED001A1168C1F3064101EE28
:10193000101AB8EE411A31EE001AC0EE811ABCEE50
:10194000E11A80ED011A1168C1F3066101EE101A67
:10195000B8EE411A31EE000A80EE801ABCEEC10AE0
:1019600080ED020A30BD04E001EE901ADFED092A95
:10197000BAE70021016041608160F3E72844025822
:1019800000000039384402580024744A0090D00303
:101990000024744C20BCBE4B494930B5484C0B1D4B
:1019A0000A681C3409681D68246802F00303C5F343
:1019B0000022C1F30551C4F3CC04002914FB02F248
:1019C00000EE102AF8EE400A75D03F4A9FED3D1A0E
:1019D000B7EE000A6BB1DFED3D1A012B01D0022BEF
:1019E00064D002EE101A1168F8EE422A81EEA22AA3
:1019F00021E0334C283C23689B0612D5344B2468E5
:101A000001EE901A1168C4F3C104F8EE612AE340B4
:101A100001EE903AC1F30801F8EE611A81EEA22AB4
:101A20000BE001EE901ADFED2B2A00BFF8EE611AF1
:101A3000116882EEA12AC1F3080101EE901A116823
:101A4000F8EE611A40EE811A71EE800A62EE200A09
:101A5000C1F3462101EE101AB8EE411A31EE001A18
:101A6000C0EE811ABCEEE11A80ED001A1168C1F3D4
:101A7000064101EE101AB8EE411A31EE001AC0EE1E
:101A8000811ABCEEE11A80ED011A1168C1F30661FA
:101A900001EE101AB8EE411A31EE000A80EE801AFB
:101AA000BCEEC10A80ED020A30BD04E001EE901ADE
:101AB000DFED092ABAE70021016041608160F3E7A8
:101AC0002844025800000039404402580024744A57
:101AD0000090D0030024744C20BCBE4B2DE9FE4F77
:101AE0000546DFF8E48350F8081B0024F64FC9438D
:101AF000019005F12800264608F12408009008010D
:101B00001DD4A86E50B1B0F5801F0CD0B0F5001FE9
:101B10000ED0B0F5401F1ED001240FE0386840F40D
:101B20000030386017E00198022102F0A9F903E0C3
:101B30000098022102F034FA04000CD026462888CE
:101B4000C043C00523D4A86D05281ED2DFE800F0ED
:101B50000C11161B1B00AA6ED8F8001021F44011BE
:101B60001143C8F80010EAE7386840F400303860E4
:101B700009E00198002102F083F903E000980021B8
:101B800002F00EFA044674B100E0012426462888CB
:101B9000C043800528D4E86D80281ED00CDC90B1AD
:101BA00040280ED114E0AA6DD8F8001021F00701EA
:101BB0001143C8F80010EAE7C02813D0B0F5807FC1
:101BC00010D001240FE0386840F40030386009E09C
:101BD0000198002102F054F903E00098002102F07E
:101BE000DFF904469CB126462888DFF8DC92C04322
:101BF00009F12C0940052CD4D5F8A800B0F5800FC8
:101C000020D00DDCA0B1B0F5001F0FD115E0EA6DBA
:101C1000D8F8001021F4E0711143C8F80010E3E790
:101C2000B0F5C00F13D0B0F5000F10D001240FE0B5
:101C3000386840F40030386009E00198002102F073
:101C40001FF903E00098002102F0AAF904467CB1D4
:101C500026462888C04300052DD4D5F8AC00B0F145
:101C6000007F21D00EDCA8B1B0F1807F10D116E04A
:101C7000D5F8A820D9F8001021F460011143C9F863
:101C80000010E6E7B0F1407F13D0B0F1806F10D0C4
:101C900001240FE0386840F40030386009E0019812
:101CA000002102F0EDF803E00098002102F078F93D
:101CB000044674B126462868C04380011FD4E86CEE
:101CC000D8B110280FD0202812D0302815D00124E8
:101CD00014E0D5F8AC20D9F8001021F0E0611143F0
:101CE000C9F80010E7E7386840F40030386004E0D5
:101CF0000198022102F0C4F8044674B126462888EF
:101D0000C043C0042BD4286EB0F5005F20D00DDC9A
:101D1000A0B1B0F5805F0FD115E06B48EA6C2030C0
:101D2000016821F0300111430160E8E7B0F5405F40
:101D300013D0B0F5804F10D001240FE0386840F484
:101D40000030386009E00198002102F099F803E0C2
:101D50000098002102F024F904468CB12646288818
:101D6000C043800429D4686EB0F5403F23D010DC16
:101D700008B3B0F5803F14D0B0F5003F0FD115E0A7
:101D80002A6ED8F8001021F4E0411143C8F8001081
:101D9000E5E7B0F5802F0ED0B0F5A02F0BD00124D1
:101DA0000AE00198012102F06BF803E0009801219C
:101DB00002F0F6F8044694B126462888C043400451
:101DC0002AD4D5F8B000B0F1405F23D010DC08B3BE
:101DD000B0F1805F14D0B0F1005F0FD115E06A6EF2
:101DE000D8F8001021F4E0211143C8F80010E4E70E
:101DF000B0F1804F0ED0B0F1A04F0BD001240AE01B
:101E00000198012102F03CF803E00098012102F062
:101E1000C7F8044674B126462888C04300041FD47E
:101E2000286FD8B1B0F1805F0ED0B0F1005F10D054
:101E3000012414E0D5F8B020D9F8001021F0E041D9
:101E40001143C9F80010E7E7386840F40030386003
:101E500004E00198012102F013F8044674B126460B
:101E60002868C043C0011ED4A86CD0B101280ED090
:101E7000022811D0032814D0012413E02A6FD8F8C7
:101E8000001021F040511143C8F80010E8E738680D
:101E900040F40030386004E00198022101F0F0FFC6
:101EA0000446ACB126462868DFF81CB0C043ABF14D
:101EB0001C0B400252D40548016841F48071016056
:101EC000FFF78AF9824611E02C4402580048025874
:101ED000FA48AA6C016821F0030111430160E2E7AE
:101EE000FFF77AF9A0EB0A00642835D8F4480068B7
:101EF000C005F5D58CBBDFF8C4A3B5F8B4100AF162
:101F0000240ADAF8000001F4407100F440708842BD
:101F100011D0DAF80010DAF8002021F4407142F410
:101F20008032CAF80020DAF8002022F48032CAF8A1
:101F30000020CAF80010D5F8B400B0F5807F1AD19F
:101F4000FFF74AF9029012E0FFF746F90299411AA9
:101F500041F2883081420AD9032426462878DFF8E6
:101F60005CA3C0430AF1080AC00721D03CE0DAF8BC
:101F700000008007E8D5D5F8B410C1F3012003288C
:101F800058460DD0016821F47C510160B5F8B420A9
:101F9000DAF80010C2F30B021143CAF80010DDE7B3
:101FA000C84A036802EA111223F47C511143ECE79A
:101FB000E86F182816D005DCA0B1082808D0102832
:101FC00004D10AE020280DD028280BD001240AE0F3
:101FD0000198012101F054FF03E00098012101F074
:101FE000DFFF044664B126462878C04380071ED42C
:101FF000A86F062819D2DFE800F0160C1116161685
:10200000EA6FDAF8001021F038011143CAF8001025
:10201000EAE70198012101F033FF03E00098012174
:1020200001F0BEFF04467CB100E00124264628787A
:10203000C04340071FD4D5F89400062819D2DFE822
:1020400000F0160C11161616AA6FDAF8001021F01F
:1020500007011143CAF80010E9E70198012101F0D6
:102060000FFF03E00098012101F09AFF0446A4B19C
:1020700000E0012426462878C04380062BD4D5F8FA
:102080009000B0F1405F24D011DC10B3B0F1805F5C
:1020900015D0B0F1005F10D116E0D5F89420D9F832
:1020A000001021F007011143C9F80010E3E7B0F177
:1020B000804F0ED0B0F1A04F0BD001240AE0019860
:1020C000002101F0DDFE03E00098022101F068FF2D
:1020D000044694B126462878C04340062BD4D5F850
:1020E0009C00B0F5406F24D011DC10B3B0F5806FC8
:1020F00015D0B0F5006F10D116E0D5F89020DAF8C1
:10210000001021F0E0411143CAF80010E3E7B0F5F8
:10211000805F0ED0B0F5A05F0BD001240AE00198DB
:10212000002101F0ADFE03E00098022101F038FF2C
:10213000044694B126462878C04300062BD4D5F82F
:10214000A000B0F5C04F24D011DC10B3B0F5005F93
:1021500015D0B0F5804F10D116E0D5F89C20D9F8F5
:10216000001021F4E0511143C9F80010E3E7B0F585
:10217000004F0ED0B0F5204F0BD001240AE001989B
:10218000002101F07DFE03E00098022101F008FF2C
:10219000044654B126462878C04300071ED4D5F81B
:1021A0008400B0F5805F0AD00FE0D5F8A020D9F800
:1021B000001021F460411143C9F80010EBE70098CA
:1021C000022101F0EDFE00B10126D5F88420DAF8F5
:1021D000001021F440511143CAF800102878C04380
:1021E000C00613D4D5F89800B0F5807F05D10098CB
:1021F000022101F0D5FE00B10126D5F89820D9F8CA
:10220000001021F440711143C9F800102868C04340
:10221000000316D4D5F8A40038B1B0F5803F09D03A
:10222000B0F5003F0BD001240AE00198002101F035
:1022300027FE03E00098022101F0B2FE04468CB1B3
:1022400026462868C043400322D4D5F88800B0F55C
:10225000801F11D0B0F5001F13D0B0F5401F15D06E
:10226000012414E0D5F8A420D9F8001021F440315D
:102270001143C9F80010E4E7386840F400303860D2
:1022800004E00098012101F08BFE04465CB1264673
:102290002868C043C00323D4286DA8B1B0F5803F9F
:1022A00017D001241BE0D5F88820DAF8001021F4BB
:1022B00040111143CAF80010EAE700004C440258EC
:1022C00000480258CFFFFF00386840F40030386003
:1022D00004E00198022101F0D3FD0446E4B1264652
:1022E0002868C043800005D40098022101F058FE00
:1022F00000B101262868C04380031BD4D5F88000B4
:10230000B0B1B0F5807F0FD0B0F5007F10D0B0F540
:10231000407F0DD001240CE05A482A6D016821F459
:10232000803111430160DBE7386840F400303860E9
:10233000ECB326462868C043C00207D46A6FD8F8B9
:10234000001021F000411143C8F800102868C04374
:10235000C00008D4D5F8B820DBF8001021F4804183
:102360001143CBF800102868C043800207D4EA6EFE
:10237000D8F8001021F080711143C8F800102868C7
:10238000C04340000CD4DBF8001021F40041CBF82E
:102390000010DBF80010D5F8BC201143CBF800107A
:1023A0002868C04308D437486A6D016800E018E027
:1023B00021F04051114301602868C043000208D455
:1023C000D5F88C20DAF8001021F440011143CAF846
:1023D000001028790024C04300F0010020430AD0F7
:1023E0000FE0D5F88020DAF8001021F44071114395
:1023F000CAF800109EE70198002101F041FD00B1EC
:1024000006462879C04300F00200204305D1019818
:10241000012101F035FD00B106462879C04300F0E6
:102420000400204305D10198022101F029FD00B1EB
:1024300006462879C04300F00800204305D10098E3
:10244000002101F0ADFD00B106462879C04300F03F
:102450001000204305D10098012101F0A1FD00B139
:1024600006462879C04300F02000044304D10098B8
:10247000022101F095FD00B916B10120BDE8FE8FE3
:102480000020FBE74C4402582DE9F05F04000F46A2
:102490007ED0DFF83882D8F8000000F00F00B84294
:1024A0000CD2D8F8001021F00F013943C8F8001001
:1024B000D8F8000000F00F00B84269D12078844DB0
:1024C00040070AD52069296801F07001884204D9C3
:1024D000296821F070010143296020787C4E361D67
:1024E00000070AD56069316801F07001884204D99B
:1024F000316821F07001014331602078C0060AD5AF
:10250000A069316801F4E061884204D9316821F49E
:10251000E061014331602078DFF8B4B180060BF14F
:10252000080B0CD5E1695846DBF8002002F0700278
:10253000914204D9026822F070020A4302602078B6
:1025400080070AD5E068296801F00F01884204D9A4
:10255000296821F00F01014329602078C0073ED08F
:102560005B49A2682868183920F47060104328601D
:102570006068022818D0032819D00968012819D0EA
:10258000490700294ADADFF848A1AAF1080A00E061
:1025900044E0DAF8002022F007020243CAF80020E3
:1025A000FEF71AFE814612E009688903E9E7096827
:1025B0008901E6E7C905E4E7FEF70EFEA0EB090195
:1025C00041F28830814202D90320BDE8F09F616862
:1025D000DAF8000000F03800B0EBC10FECD1207841
:1025E00080070AD5E068296801F00F01884204D20B
:1025F000296821F00F0101432960D8F800104046F6
:1026000001F00F01B9420BD9016821F00F013943E4
:102610000160006800F00F00B84201D00120D4E74B
:10262000207840070AD52069296801F070018842A6
:1026300004D2296821F07001014329602078000745
:102640000AD56069316801F07001884204D23168AE
:1026500021F07001014331602078C0060AD5A069DD
:10266000316801F4E061884204D2316821F4E0610C
:1026700001433160207880060CD5E1695846DBF8CB
:10268000002002F07002914204D2026822F070022F
:102690000A43026000F06CF80E492A682B68C2F306
:1026A000032203F00F038A5CC95C02F01F0201F0F1
:1026B0001F01D040084A20FA01F111600749086063
:1026C00007480068BDE8F05FFEF7C2BD0020005279
:1026D000184402583C7A0290100000200C000020A0
:1026E0000400002030B500F043F80B4A0B490C4BB6
:1026F00015681468C5F3032204F00F048A5C095DB1
:1027000002F01F0201F01F01D040064A20FA01F139
:1027100019601060084630BD184402583C7A029097
:10272000100000200C00002000B5FFF7DBFF05497A
:102730000968054AC1F30211515C01F01F01C8404C
:1027400000BD00001C4402583C7A029000B5FFF71F
:10275000C9FF05490968054AC1F30221515C01F02E
:102760001F01C84000BD00001C4402583C7A029082
:10277000454970B545480968434B103B11F0380294
:1027800008D00111082A03D0102A0BD0182A0BD028
:10279000084670BD19688906FBD51968C1F3C101E7
:1027A000C84070BD3A4870BD3749374D18310C1DCF
:1027B00024350A68096826682D6802F0030406F0CB
:1027C0000102C1F30511C5F3CC0515FB02F200EEC1
:1027D000102AB8EE400AE9B32F4ADFED2E0AB7EE11
:1027E000001A6CB1DFED2D1A012C01D0022C43D060
:1027F00002EE101A1068F8EE422A81EEA22A1EE0BC
:102800001C68A40611D51B6801EE901A1168C3F369
:10281000C103F8EE612AD84001EE900AC1F3080026
:10282000F8EE611A81EEA22A0BE001EE901ADFEDBC
:102830001C2A00BFF8EE611A106882EEA12AC0F3CC
:10284000080001EE900AF8EE611A40EE201A31EE0F
:10285000810A00E015E022EE000A1068C0F346206D
:10286000401C00EE900AF8EE600A80EE201ABCEEE2
:10287000C10A10EE100A70BD01EE901ADFED092AB0
:10288000D8E7002070BD0000104402580090D0032B
:1028900040787D0100000039304402580024744A19
:1028A0000024744C20BCBE4B2DE9F05F04007DD0A9
:1028B000FF4F2078FE4D1837DFF8F493103DC00726
:1028C00048D0D9F80000396800F03800102815D039
:1028D000182803D101F0030002280FD06068B0F57A
:1028E000803F12D010B1B0F5A02F18D0286820F486
:1028F00080302860286820F4802009E02868800360
:1029000028D560680028D2D024E0286840F48030C0
:102910002860606888B1FEF75FFC064609E0286819
:1029200040F480202860F0E7FEF756FC801B642806
:102930006FD828688003F7D50CE0FEF74DFC0646FB
:1029400005E000BFFEF748FC801B6428F0D828682B
:102950008003F7D4207841F20308D54E0C3E80075F
:1029600069D5D9F80000396810F038000ED0182861
:1029700001D188070AD0E06890B3296821F01901D5
:1029800001432960FEF728FC824631E028684007B1
:1029900002D5E06800288AD0E168286820F0190094
:1029A00008432860FEF718FC824607E0DFE000BF1E
:1029B000FEF712FCA0EB0A000228B9D828684007ED
:1029C000F6D500BFFEF702FC40451BD82069402821
:1029D00012D0316821F47C3141EA003030602AE0C5
:1029E00018E000BFFEF7F8FBA0EB0A0002289FD812
:1029F00028684007F6D5E5E7306820F47C3040F4DD
:102A00000030EBE7207C316821F0FE4141EA0060B4
:102A1000E4E70DE1286820F001002860FEF7DCFB08
:102A2000824605E0FEF7D8FBA0EB0A0002288DD80D
:102A300028684007F6D42078C0065DD5D9F8000094
:102A4000DFF86CB2396800F03800ABF1040B0828ED
:102A500010D0182803D101F0030001280AD0E06942
:102A60000028286838D040F080002860FEF7B4FBCA
:102A7000824623E02868C00523D5E069802876D106
:102A80001FE0206A202821D0316821F0F84141EA76
:102A90008060306030E000BF94F82010DBF8002048
:102AA00022F07C5242EA0161CBF8001024E000BF22
:102AB000FEF792FBA0EB0A00022898D82868C00510
:102AC000F6D5FEF783FB4045E6D8DAE7306820F01C
:102AD000F84040F08040DCE720F080002860FEF7FE
:102AE0007BFB064605E000BFFEF776FB801B022855
:102AF0009DD82868C005F7D42078000729D56C48F0
:102B00006169643000298046016811D041F00101FB
:102B10000160FEF761FB064605E000BFFEF75CFBC7
:102B2000801B0228C9D8D8F800008007F6D510E02D
:102B300021F001010160FEF74FFB064605E000BFF2
:102B4000FEF74AFB801B022872D8D8F800008007E5
:102B5000F6D42078800623D5A0690028286810D0F4
:102B600040F480502860FEF737FB064605E036E16A
:102B7000FEF732FB801B02285AD828688004F7D55C
:102B80000EE020F480502860FEF726FB064604E0A5
:102B9000FEF722FB801B02284AD828688004F7D45D
:102BA000207840074FD5DFF80C81D8F8001041F4A9
:102BB0008071C8F80010FEF70FFB064605E000BF65
:102BC000FEF70AFB801B642832D8D8F80000C00545
:102BD000F6D5374EA068603601280AD008B105281E
:102BE00013D0306820F001003060306820F004001D
:102BF00002E0306840F001003060A06841F2883A9D
:102C000090B1FEF7E9FA80460AE0306840F004002F
:102C10003060EEE7FEF7E0FAA0EB0801514507D877
:102C200030688007F6D50EE0FEF7D6FA804607E05A
:102C300084E000BFFEF7D0FAA0EB080151457DD833
:102C400030688007F6D4606AB0B3DFF86480D9F8E2
:102C5000001008F120084FF6F87B08F10409C1F3D1
:102C6000C2010329A8F1040A69D00228286820F0CB
:102C70008070286003D0FEF7AFFA044684E0FEF7C8
:102C8000ABFA064605E000BFFEF7A6FA801B022855
:102C900077D828688001F7D4E26A40F2F3313868C7
:102CA00054F8283F884340EA02101843386004E093
:102CB0001044025800480258B5E0217B434622895F
:102CC0004FF4FE0C208A4FF0FE474902267D521E2B
:102CD000401EA1F50071C2F308088AB2761E0CEA04
:102CE000004042EA08020243504607EA06610A43EE
:102CF0001A60DAF8002022F00102CAF80020D9F8A0
:102D00000020266A22EA0B0242EAC602C9F8002025
:102D1000DAF80010A26921F00C011143CAF8001082
:102D20000168E26921F0020111430160016841F488
:102D300080310160016841F4003101E021E027E0C9
:102D40000160016841F480210160016841F00101E6
:102D50000160286840F080702860FEF73DFA044664
:102D600005E000BFFEF738FA001B022809D82868E2
:102D70008001F7D557E000BFFEF72EFA001B0228AE
:102D800002D90320BDE8F09F28688001F4D44AE00E
:102D900039680128D8F8000021D0A26A01F00303A5
:102DA00093421CD1E26AC1F305118A4217D1216B0B
:102DB000C0F30802491E8A4211D1616BC0F346225A
:102DC000491E91420BD1A16BC0F30642491E9142AC
:102DD00005D1E16BC0F30660491E814201D001209C
:102DE000D0E7A16C4E46D9F80000C0F3CC00814278
:102DF00019D0DAF80000554620F00100CAF80000AA
:102E0000FEF7EAF94FEA0007FEF7E6F9B842FBD011
:102E1000A26C306820EA0B0040EAC20030602868EB
:102E200040F0010028600020ACE7401EB0F1807F38
:102E300010B501D3012010BD4FF0E02460610F21D7
:102E4000601702F0FCF90020A0610721216110BD8C
:102E5000F0B590F83C20012A3BD01F4E012480F8A9
:102E60003C40022280F83D2002681C4D5368B2426B
:102E7000D2F808C001D0AA4203D14F6823F47003EE
:102E80003B430F6823F070031F4357600268B24250
:102E900013D0B2F1804F10D0114B9A420DD0114B8C
:102EA0009A420AD0104B9A4207D0AA4205D00F4B43
:102EB0009A4202D00E4B9A4204D189682CF08003CA
:102EC00019439160002180F83D4080F83C1008468D
:102ED000F0BD0220F0BD00000000014000040140F0
:102EE0000004004000080040000C004000180040B2
:102EF0000040014010B5040003D094F83D0010B12B
:102F000007E0012010BD002084F83C00204600F0BE
:102F100023F8022084F83D002068211D01F0C4F947
:102F2000012084F8480084F83E0084F83F0084F8CB
:102F3000400084F8410084F8420084F8430084F89B
:102F4000440084F8450084F8460084F8470084F87B
:102F50003D00002010BD000008B500680649884209
:102F600008D10648016841F004010160006800F0E2
:102F70000400009008BD000000080040E84402582A
:102F800070B5044690F83C000025012814D03A4B57
:102F9000012684F83C60022084F83D002268906895
:102FA000184020F47F409060086870282FD010DC13
:102FB00010F00F0F03D022E04FF0020070BD4FEA77
:102FC0002012072A1BD2DFE802F0535353534B3928
:102FD0004100B0F1101F4BD009DCB0F5805F0FD07D
:102FE000B0F5005F1ED0B0F5801F08D140E0A0F51D
:102FF000801120393CD010293AD0202938D0012521
:1030000084F83D60002084F83C00284670BD4A6882
:103010002068D1E9021301F0AFF92068816841F01E
:10302000770109E04A682068D1E9021301F0A4F9A8
:103030002068816841F480418160E1E7CA6849689D
:10304000206801F047FB2068502106E0CA68496803
:10305000206801F050FB2068602101F097F9CFE76C
:10306000CA684968206801F035FB20684021F4E710
:10307000226801461046F0E788FFCEFF10B586B003
:10308000044614216846FDF7C9FA0E4920688842B3
:1030900015D10D48016841F008010160006801ACDC
:1030A000002200F008000590022003238103009114
:1030B00084E80D00049069460448FDF75FFF06B000
:1030C00010BD000000080040E0440258000C025807
:1030D00070B5044690F83C0000260D4601280BD040
:1030E000012084F83C000C2A4AD007DC82B1042A73
:1030F00020D0082A06D131E0022070BD102A53D01A
:10310000142A63D00126002084F83C00304670BDAC
:10311000206801F045F92068816941F0080181616A
:103120002068816921F00401816120682A69816930
:10313000114311E0206801F085F92068816941F4AC
:10314000006181612068816921F48061816120686A
:103150002969826942EA01218161D4E7206801F08E
:10316000BDF92068C16941F00801C1612068C169E9
:1031700021F00401C16120682A69C169114311E08D
:10318000206801F0F7F92068C16941F40061C1616C
:103190002068C16921F48061C16120682969C26920
:1031A00042EA0121C161AEE7206801F01FFA206800
:1031B000416D41F0080141652068416D21F0040135
:1031C000416520682A69416D114311E0206801F0D2
:1031D00047FA2068416D41F4006141652068416D06
:1031E00021F48061416520682969426D42EA01212C
:1031F000416588E710B5040003D094F83D0010B194
:1032000007E0012010BD002084F83C00204600F0BB
:1032100022F8022084F83D002068211D01F044F8C6
:10322000012084F8480084F83E0084F83F0084F8C8
:10323000400084F8410084F8420084F8430084F898
:10324000440084F8450084F8460084F8470084F878
:103250003D00002010BD704730B590F88410012962
:1032600018D0012280F884202421C0F88810002280
:10327000202401680B680D6823F0005325F0010538
:103280000D60426601680B60C0F8884080F88420B9
:10329000104630BD022030BD7047704770B50446FF
:1032A00090F8840001281DD0012284F88420242075
:1032B000C4F8880020680568026822F001020260F4
:1032C0002068826822F060620A438260204601F032
:1032D0007FFC2268202100201560C4F8881084F843
:1032E000840070BD022070BD70B5044690F8840063
:1032F00001281DD0012284F884202420C4F88800ED
:1033000020680568026822F0010202602068826875
:1033100022F060420A438260204601F059FC226894
:10332000202100201560C4F8881084F8840070BD46
:10333000022070BD70477047704700002DE9F041D2
:1033400007680025044640F60F030226F86939682D
:10335000BA6818420AD183067ED501F0200302F034
:10336000805C53EA0C0377D0616F74E1CF4BDFF8D8
:1033700040C3134001EA0C0C53EA0C0C6CD05FEA1A
:10338000C07C0CD05FEAC15C09D54FF0010CC7F8D6
:1033900020C0D4F8907047F00107C4F890708707F8
:1033A00009D5D70707D027683E62D4F8906046F069
:1033B0000406C4F8906046070AD5D60708D02768E7
:1033C00004263E62D4F8906046F00206C4F890608D
:1033D00006070CD501F020061E4308D026680823F6
:1033E0003362D4F8903043F00803C4F890300305FA
:1033F0000BD54B0109D526684FF400633362D4F82E
:10340000903043F02003C4F89030D4F89030002B73
:103410003DD0800609D501F0200002F0805108431C
:1034200003D0616F09B1204688472168D4F8900025
:103430008968490602D410F0280F2AD0204601F0EE
:10344000ADFC2068806840061ED52068083050E832
:10345000001F21F0400100E021E040E80012002AB6
:10346000F3D1D4F8800078B192490165D4F8800096
:10347000FDF730FC00280AD0D4F88000016D00E090
:103480002046BDE8F04108472046FFF755FFBDE85C
:10349000F0812046FFF750FFC4F89050F7E7D4F8CA
:1034A0006CC02023BCF1010F7ED15FEAC06C7BD5DC
:1034B0005FEAC16C78D510203862206880684006C9
:1034C00073D5D4F880107C4A0868904234D07A4A88
:1034D0001832904230D0784A303290422CD0764A1E
:1034E0004832904228D0744A6032904224D0724AC6
:1034F0007832904220D0704A903290421CD06E4A6E
:10350000A832904218D06D4A904215D06B4A1832BA
:10351000904211D0694A303290420DD0674A483209
:10352000904209D0654A6032904205D0634A7832B1
:10353000904201D0614A903240680004000CA6D04D
:10354000B4F85C208242A2D9A4F85E00C869B0F544
:10355000807F2FD0216851E8000F20F4807041E86F
:103560000002002AF6D12068083050E8001F21F040
:10357000010140E80012002AF5D12068083050E827
:10358000001F21F0400140E80012002AF5D1C4F8E4
:103590008C30E566216851E8000F20F0100041E80A
:1035A0000002002AF6D101E040E00BE0D4F88000F0
:1035B000FDF7E0F92667B4F85C00B4F85E10401A35
:1035C00081B22FE0B4F85C00B4F85E10B4F85E206D
:1035D000401A81B2002AB2D00029B0D0226852E845
:1035E000000F20F4907042E80007002FF6D1344F0E
:1035F000206800F1080050E8002F02EA070240E8C6
:10360000002CBCF1000FF3D1C4F88C30E56665677F
:10361000206850E8002F22F0100240E80023002B21
:10362000F6D126672046FFF737FE30E7C60209D5F8
:10363000560207D54FF4801038622046BDE8F041AD
:10364000FFF779BE06060AD501F0800602F40002F3
:10365000164304D0A16F00297FF412AF17E742068A
:1036600011D54A060FD52046026852E8001F21F006
:10367000400142E80014002CF6D1C0F8883085677C
:1036800000F0A4F803E7020206D54A0004D520465C
:10369000BDE8F041FFF74EBEC001C6D50029C4DA2F
:1036A0002046BDE8F041FFF7F8BD00000100001022
:1036B00020010004874D00901000024010040240D9
:1036C000FEFFFFEF10B5040003D0D4F8880010B15E
:1036D00007E0012010BD002084F88400204600F09F
:1036E00027F82420C4F888002068016821F001012F
:1036F0000160A06A10B1204601F08CFA204601F06A
:1037000077FB0128E6D02068416821F490414160B0
:103710002068816821F02A0181602068016841F0F9
:10372000010101602046BDE8104001F0D7BA000059
:1037300010B5B6B00446142130A8FCF76FFFC021C5
:103740006846FCF76BFF1E492068884235D100208F
:103750001F9001210446CDE900106846FEF7BEF92E
:1037600008B1FCF7F6FF1748016841F0100101604D
:10377000006800F01000359012481038016841F0E0
:103780000101016000680DF1C00C022100F0010090
:1037900035904FF4C06007238CE8130003220A48D9
:1037A000CDE9332330A9FDF7E9FB0022252011469E
:1037B000FDF7E2FF2520FDF7D1FF36B010BD000078
:1037C00000100140F0440258000002587047FEE724
:1037D00000B587B014216846FCF720FF0A4801684D
:1037E00041F00401016000680021012200F00400A2
:1037F00005904FF400508DE8070004486946FDF736
:10380000BDFB07B000BD0000E044025800080258AC
:10381000F0B5114C01EBC10707EB0117059E002520
:10382000216843EA0243C2F5487200EB471021F0D9
:103830000101216005212560E16125612264E660C6
:1038400000F11050E0636364206840F001002060E4
:103850002068C007FCD1F0BD0010005210B586B042
:1038600014216846FCF7DAFE0D48016841F00401B6
:103870000160006800220B4C022100F0040005905A
:103880002046FDF79EFC00210220009001222046E8
:10389000CDE9012103916946FDF770FB06B010BD2B
:1038A000E0440258000802580148FDF77FBD0000BF
:1038B0005C0300202DE9FE4F814600688824934672
:1038C0008D888C2204EBCB178A46C3689421BE46B0
:1038D000C459C3F30B432B4404F470441F040197F1
:1038E00002EBCB1240F80E4001EBCB13DAF800707C
:1038F0009C214FF0AC0C01EBCB1440F2077102910C
:103900000CEBCB11D9F800C098250020CDF800C0F1
:10391000A02605EBCB15DCF80CC006EBCB16CCF3E0
:103920000B4C0CF1010C07EB0C08DDF800C0019FFB
:1039300048EA07084CF80E80D9F80070BAF80CC0B5
:10394000B846FF68C7F30A0767444FEA074E58F8BE
:10395000027007F4704C48F802C0D9F800C0DAF8D9
:103960000870DCF80C80C8F30A0808F10108B844B4
:1039700048EA0E084CF80280D9F80020D75827F002
:103980000707D750D9F80070DAF81020FA509AF8E3
:1039900031209AF818304FEA022C9AF8322012049B
:1039A00042EA0362D9F800301F5918519AF83030B2
:1039B00043EA0C031343D9F800201351D9F800202F
:1039C000535923F0FF035351D9F80020DAF814308B
:1039D0005351D9F800209359029CA3439351D9F82D
:1039E0000030DAE9072422439A51D9F800205358CD
:1039F0005050D9F80020DAF824005050DAF81000BE
:103A0000C8B301283AD004283AD0022838D0032875
:103A100036D0072834D00120D9F80030B02505EB86
:103A2000CB11B42284245D5802EBCB1205F0E025C3
:103A30005D50DAE9003504EBCB14EB1ABAF82850E4
:103A400043434543D9F80000DB1D43EA0543435097
:103A5000D9F8000081586FF30A018150D9F80000AD
:103A6000DAF82C108150D9F80000015941F0010119
:103A70000151BDE8FE8FFFE70420CDE70320CBE72F
:103A80000220C9E7F0B5B1B0C0216846FCF7C6FD19
:103A900002214FF4A5760023094A19270A97CDE998
:103AA0000B610D0268460A240D91CDE91053CDE952
:103AB0000E431F93CDE90023FEF710F831B0F0BD9F
:103AC000010000201FB5FDF71BFE00208DF80F0040
:103AD00001218DF80E1012228DF8082003238DF895
:103AE0000B308DF800104FF010548DF80D008DF84C
:103AF0000A0001948DF801008DF809008DF80C0082
:103B00006846FDF7CFFD0420FDF708FE1FBD00004D
:103B1000F0B587B014216846FCF780FD3048016895
:103B200041F010010160016801F010010591016888
:103B300041F080010160016801F080010591016898
:103B400041F004010160016801F004010591016880
:103B500041F001010160016801F001010591016876
:103B600041F002010160016801F002010591016864
:103B700041F008010160006801221A4E682100F03E
:103B8000080005903046FDF71CFB0022304610214E
:103B9000FDF717FB144F002202213846FDF711FBF9
:103BA00000246946012518200090CDE901543046D3
:103BB0000394FDF7E3F9602011218DE813006946B5
:103BC00030460394FDF7DAF903210220CDE9000520
:103BD000CDE9024169463846FDF7D0F907B0F0BD9E
:103BE000E04402580010025800080258F0B5ADF247
:103BF0003C4D002434210DF58060FCF70FFD374863
:103C0000016841F01001016000680025354950222B
:103C1000334B00F01000CDF8340402204FF45C76F2
:103C200040F20A270B602A234D604FF4087E8D6016
:103C30004FF4876CCD600D614D61183181E8CD5036
:103C40008D774D7727480D77FDF714FC0522CDF8C9
:103C500010244FF4F071CDF80C14CDF820240DF59C
:103C600085624FF44870CDF800544FF01057CDF8EE
:103C70000404CDF82474FF23CDF808544FF4806673
:103C800003C20DF2144000220DF5806180E8680047
:103C90008DF830548DF8315412488DF83254FDF7B8
:103CA0003DFB6D46204600F00BFA611C45F82400F0
:103CB0008CB2FF2CF6D90B4800234FF48072694672
:103CC000FDF7E6FA07480021FDF751FB01220648FF
:103CD000D103FDF776FA0DF23C4DF0BDD444025805
:103CE000001000505C030020000C025810B58EB08C
:103CF00000241C21009407A80194029403940494C6
:103D000005940694FCF78AFC1E4840F2F311F02259
:103D10001B4BC0E9024104618461C0E90032FFF736
:103D2000E9F808B1FCF715FD4FF4805000901548F4
:103D30006946FFF725F908B1FCF70BFD1148FFF7BD
:103D400059FA08B1FCF705FD0E4804A9049406943D
:103D5000FFF77EF808B1FCF7FCFC07AA6020FA2107
:103D600082E8130007480C2207A90B94FFF7B0F96B
:103D700008B1FCF7EEFC0348FFF780F90EB010BD68
:103D800000080040140200201848002110B5164C0D
:103D90000C224FF4E1330460C0E90131C160C0E995
:103DA00004128161C161016241628162FFF78AFC94
:103DB00008B1FCF7CEFC0D480021FFF795FA08B1D9
:103DC000FCF7C7FC09480021FFF768FA08B1FCF7C7
:103DD000C0FC0648FFF740FA002803D0BDE81040B9
:103DE000FCF7B7BC10BD00000010014060020020CD
:103DF000FEE7FEE710B586B014216846FCF70EFC1E
:103E00001B48016841F010010160016801F01001D8
:103E10000591016841F01001016000680221154C14
:103E2000102200F0100005900020CDE90101694644
:103E3000009203902046FDF7A1F808206946009003
:103E40002046FDF79BF84FF47A6000F093FC0821C0
:103E50002046FDF7A9F9012808D010212046FDF7DA
:103E6000A3F9012802D004490120087006B010BD52
:103E7000E04402580010025814000020704700006F
:103E80002DE9F047454D044689464FF0000A286861
:103E9000C04380070AD0414E283E306820F0806041
:103EA0003060FDF799F90746B04608E00120BDE80B
:103EB000F08700BFFDF790F9C01B022867D8D8F83B
:103EC00000000001F6D4206829684FF4FE0721F4B1
:103ED0007C313E0241EA00302860207AA389B4F8A0
:103EE00004C040022D4D2D495B1E227CACF1010C1B
:103EF0001035091DA0F5007080B2521ECCF3080CDD
:103F000007EA034340EA0C00184306EA0262104342
:103F100028600868626920F0C000104308600A68E1
:103F2000A06922F0200202430A60281D0A6822F0DC
:103F300010020A6002684FF6F873E4699A4342EA95
:103F4000C40202600868B9F1000F40F010020A6074
:103F500011D00868B9F1010F11D040F400100860C9
:103F6000D8F80000444640F08060C8F80000FDF733
:103F700033F905460DE0086840F40020EFE740F40F
:103F80008010ECE7FDF728F9401B022801D9032037
:103F90008DE720680001F5D5504688E7284402588F
:103FA0002DE9F047454D044689464FF0000A286840
:103FB000C04380070AD0414E283E306820F0805030
:103FC0003060FDF709F90746B04608E00120BDE87A
:103FD000F08700BFFDF700F9C01B022867D8D8F8AA
:103FE00000008000F6D4208829684FF4FE0721F0F5
:103FF0007C713E0241EA00502860207AA389B4F81F
:1040000004C040022D4D2D495B1E227CACF1010CF9
:104010001835091DA0F5007080B2521ECCF3080CB3
:1040200007EA034340EA0C00184306EA0262104321
:1040300028600868626920F44060104308600A68DC
:10404000A06922F4007202430A60281D0A6822F463
:1040500080720A6002684FF6F873E4699A4342EA94
:10406000C40202600868B9F1000F40F480720A606F
:1040700011D00868B9F1010F11D040F080700860CC
:10408000D8F80000444640F08050C8F80000FDF722
:10409000A3F805460DE0086840F48000EFE740F41F
:1040A0000000ECE7FDF798F8401B022801D9032037
:1040B0008DE720688000F5D5504688E728440258EF
:1040C00000F0E00100F01C030904820741EAC3216B
:1040D00041EA12607047704710B5FDF783F8BDE8FC
:1040E000104001201EF0FCBD70B59CB04C2168460C
:1040F000FCF794FA202113A8FCF790FA0220FDF7B0
:104100006DFB2D4900242D480A6822F001020A6047
:104110000A68026842F440420260026802F44042C7
:104120001B9202689204FCD5254A136843F00203EF
:104130001360126802F002021B92026842F44042CD
:10414000026002680A6842F001020A60096801F030
:1041500001011B9101688904FCD50DF1280C022096
:1041600009900521C0228CE80700C3030F900825A1
:104170000D9001260E90CDE91054CDE900636846FC
:104180001294FEF791FB08B172B6FEE740201A9038
:104190003F210301CDE916500322CDE9180313ABEB
:1041A00013A883E816000421FEF76EF9002801D059
:1041B00072B6FEE71CB070BD2C04005818480258B7
:1041C000F44402582E48F0B52E4A016841F47001BB
:1041D0000160106800F00F00072804D2106820F07A
:1041E0000F00C01D106028490020274C10340B68B8
:1041F000264D43F001030B6020600B682B400B60E1
:10420000136803F00F03072B04D9136823F00F037F
:10421000DB1D13601C4C1E4A18341E4B261D371D17
:104220002060194C1C4D28343060261D3860371D25
:1042300023603B1D35601C1D3A60251D2E1D186036
:10424000331D22602860326018600A680E4B134CE0
:1042500022F4802260330A60186020686FF30F0038
:10426000B0F1005F03D20E490120C1F8080143F20A
:10427000D2000C49024BC206803B08601A60F0BDB8
:1042800088ED00E000200052004402587FEDF6EA7D
:1042900080020101000202020000FF010010005C28
:1042A00000800051004000522DE9F0472A4B4FF0AA
:1042B000804A2A4D02689842294E2A4F2A4C09D03A
:1042C000504507D0A84205D0B04203D0B84201D033
:1042D000A04205D1D1F804C022F070024CEA0202DB
:1042E000DFF888C0DFF888809842DFF888900FD028
:1042F00050450DD0A8420BD0B04209D0B84207D0EB
:10430000A04205D0604503D0404501D0484503D1C7
:10431000CD6822F440722A434D6922F080022A437C
:10432000026098428A68C2620A68826207D0A0422C
:1043300005D0604503D0404501D0484501D1096909
:104340000163012141610169C90703D0016921F0BD
:1043500001010161BDE8F087000001400004004058
:1043600000080040000C00400004014000400140F3
:10437000004401400048014042EA032283680A43A6
:1043800023F47F410A43826070470000034B826838
:104390001A400A4342F00701816070478FFFCFFF48
:1043A0002DE9F04FDFF88480214EDFF88890DFF8A8
:1043B00088B0026A036AB042DFF880A022F0020CE3
:1043C0001F4F23F001020262426885698B680C6806
:1043D00005EA080525F0030543EA0C0344EA050451
:1043E00007D0484505D0584503D0504501D0B842C4
:1043F00005D1CD6823F008031D4325F00403B04226
:1044000007D0484505D0584503D0504501D0B842A3
:1044100005D122F44076D1E9055235432A43426062
:104420008461496841630362BDE8F08F8FFFFEFF3E
:1044300000000140000401400040014000440140F0
:1044400000480140F0B5DFF87CE01F4C1F4D026AC8
:10445000036AA04222F0200623F0100303624268A0
:104460008369D1F808C00F6803EA0E0323F4407E85
:1044700046EA0C134EEA072601D0A84206D1CF68BF
:1044800023F0800343EA071323F04003A0420AD03D
:10449000A84208D00E4CA04205D00E4CA04202D03B
:1044A0000D4CA04207D1D1E9054522F4406242EA11
:1044B000840242EA85024260866149688163036240
:1044C000F0BD0000FF8FFFFE00000140000401402E
:1044D000004001400044014000480140F0B5DFF8D1
:1044E0007CE01F4D1F4E026A036AA84222F4007747
:1044F00023F4807303624368C269D1F808C002EAFA
:104500000E020C6822F0030E47EA0C2244EA0E0465
:1045100001D0B04206D1CF6822F4006242EA0722FD
:1045200022F48062A8420AD0B04208D00E4DA842C0
:1045300005D00E4DA84202D00D4DA84207D1D1E9B9
:10454000055623F4405343EA051343EA0613436038
:10455000C4614968C1630262F0BD00008FFFFEFFC5
:1045600000000140000401400040014000440140BF
:1045700000480140F0B5046A026A22F480520262E7
:104580004268C36924F40054DFF848C08E680D689F
:1045900003EA0C03104F23F4407344EA0634B84294
:1045A00043EA05230BD00D4DA84208D00C4DA8427C
:1045B00005D00C4DA84202D00B4DA84204D14D6944
:1045C00022F4804242EA85124260C3614968016474
:1045D0000462F0BDFF8FFFFE0000014000040140B7
:1045E000004001400044014000480140F0B5164F32
:1045F000164B026A046A984222F4003524F4803390
:1046000003624268436D0E890C6803EA070344EABB
:10461000030445EA06430BD00D4DA84208D00D4DCA
:10462000A84205D00C4DA84202D00C4DA84204D19E
:104630004D6922F4803242EA0522426044654968AD
:1046400081650362F0BD00008FFFFEFF00000140A6
:104650000004014000400140004401400048014086
:10466000F0B5164F164B026A046A984224F4801380
:10467000036222F400144268436D0E890D6803EA58
:10468000070344EA065443EA05230BD00D4DA84224
:1046900008D00D4DA84205D00C4DA84202D00C4DBB
:1046A000A84204D14D6922F4802242EA8522426068
:1046B00043654968C1650462F0BD0000FF8FFFFEDD
:1046C000000001400004014000400140004401405E
:1046D0000048014010B5036A046A23F00A0324F07D
:1046E0000104046284690B4324F0F00141EA0211E1
:1046F0008161036210BD10B5036A046A23F0A00350
:1047000024F010040462846943EA011124F4704324
:1047100043EA02328261016210BD000010B5144C00
:10472000002220212046FCF74CFD142000F022F846
:10473000002220464021FCF744FD142000F01AF826
:10474000012220462021FCF73CFD142000F012F845
:10475000002220462021FCF734FD01222046402182
:10476000FCF72FFDBDE81040142000F003B8000056
:1047700000100258002208B50DE000BFADF800207F
:1047800005E000BFBDF80010491CADF80010BDF8F1
:1047900000100829F6D3401EF0D208BD10B586B02F
:1047A00014216846FBF73AFF2B48016841F01001DD
:1047B0000160016801F010010591016841F01001EC
:1047C0000160016801F010010591016841F01001DC
:1047D0000160016801F010010591016841F01001CC
:1047E0000160006820211D4C112200F0100005908E
:1047F000002000916946CDE9012003902046FCF796
:10480000BDFB4020694600902046FCF7B7FB012124
:10481000019110200291694600902046FCF7AEFB02
:104820000820694600902046FCF7A8FB012220469C
:104830002021FCF7C6FC012220464021FCF7C1FCE8
:10484000002220461021FCF7BCFC01222046082152
:10485000FCF7B7FC06B010BDE04402580010025847
:1048600010B5114C002220212046FCF7AAFC142090
:10487000FFF780FF012220464021FCF7A2FC142014
:10488000FFF778FF012220462021FCF79AFC142034
:10489000FFF770FF002220462021FCF792FCBDE8C4
:1048A00010401420FFF766BF001002582DE9F041B8
:1048B000154E002580462C4668060122070E30461C
:1048C0002021FCF77EFC1420FFF754FF40213046E6
:1048D000FCF76AFC00F0010530463D430022202130
:1048E000FCF76FFC1420FFF745FF641CE4B2082CB2
:1048F000E2D3B8F1010F04D0FFF7B2FF2846BDE8BC
:10490000F081FFF70BFFF9E70010025810B5104CCB
:10491000012240212046FCF754FC012220462021A0
:10492000FCF74FFC1420FFF725FF00222046402112
:10493000FCF747FC1420FFF71DFF00222046202132
:10494000FCF73FFCBDE810401420FFF713BF000048
:104950000010025810B5114C002220212046FCF70F
:1049600030FC1420FFF706FF002220464021FCF710
:1049700028FC1420FFF7FEFE012220462021FCF730
:1049800020FC1420FFF7F6FE012220464021FCF710
:1049900018FCBDE810401420FFF7ECBE00100258D0
:1049A00010B5154C012240212046FCF70AFC1420CA
:1049B000FFF7E0FE012220462021FCF702FC142034
:1049C000FFF7D8FE40212046FCF7EEFB00284FF011
:1049D00000024FF02001204606D0FCF7F2FB142025
:1049E000FFF7C8FE002010BDFCF7EBFB1420FFF71B
:1049F000C1FE012010BD00000010025870B5164E17
:104A000000240546280601D5012200E00022304698
:104A10004021FCF7D6FB1420FFF7ACFE0122304604
:104A20002021FCF7CEFB1420FFF7A4FE0022304625
:104A30002021FCF7C6FB072C04D10122304640217F
:104A4000FCF7BFFB6806641C050EE4B2082CD9D342
:104A5000BDE87040FFF7A4BF0010025800B585B054
:104A600014216846FBF7DAFD002001901021029026
:104A70000390034800916946FCF780FA05B000BD39
:104A80000010025800B585B014216846FBF7C6FD3A
:104A9000012000211022CDE90020CDE902010348C8
:104AA0006946FCF76BFA05B000BD00000010025823
:104AB0001FB500248DF80040FFF79CF9FFF76EFE4C
:104AC000FBF774FE0B2148F2401001AAFBF743FEEE
:104AD00001216A4648F24700FBF73DFE9DF80400BD
:104AE000392802D0012004B010BD9DF80B209DF89C
:104AF0000A10084801EB0221B1F5806F03D0B1F52F
:104B0000487F03D003E00121017000E00470002021
:104B1000E9E700001400002030B58BB048F24E15D4
:104B200000246A462A212846FBF715FE0021284664
:104B3000FBF76CFE20499DF8000000F00F00487064
:104B40004878A8B3487805282BD932E0684600EBAE
:104B5000C40201EB44009388838152884280174A43
:104B60001278012A1BD182899FED152B00EE102AA5
:104B70009FED151BB8EE400B20EE020BBCEEC00BF8
:104B800010EE102A8281428800EE102AB8EE400B07
:104B900020EE010BBCEEC00B10EE102A4280641C0C
:104BA000E4B24878A042D1D8012008700BB030BDE3
:104BB000FFE70020F9E700000404002014000020B3
:104BC0009A9999999999E93FF6285C8FC2F5E83F3F
:104BD00030B5416EB9B101680D4B03F108048A6824
:104BE0008968C2F34262490F5D5C615C2D01B5FBCF
:104BF000F1F1A0F86A10995CA25C0901B1FBF2F135
:104C0000A0F8681030BD0121A0F86A10F8E7000094
:104C10002C7A029090F82810090706D50168836B5A
:104C20004A6822F400421A434A6090F82810C907E3
:104C300006D00168C36A4A6822F400321A434A6007
:104C400090F82810890706D50168036B4A6822F49A
:104C500080321A434A6090F82810490706D5016847
:104C6000436B4A6822F480221A434A6090F8281065
:104C7000C90606D50168C36B8A6822F480521A43BC
:104C80008A6090F82810890606D50168036C8A6846
:104C900022F400521A438A6090F82810490611D570
:104CA0000168436C4A6822F480121A434A60416CDE
:104CB000B1F5801F06D10168836C4A6822F4C002F6
:104CC0001A434A6090F82810090606D50168C26C9C
:104CD000486820F400201043486070472DE9F843ED
:104CE00000250446C0F89050FCF776FA804620680C
:104CF00020266FF07E470068000713D50022434648
:104D000031042046009700F049FA58B1216851E873
:104D1000000F20F0800041E80002002AF6D1C4F81C
:104D2000886021E020680068400722D500224346C1
:104D30004FF480012046009700F030FAC8B1206897
:104D400050E8001F21F4907140E80012002AF6D1CB
:104D50002068083050E8001F21F0010140E80012EF
:104D6000002AF5D1C4F88C60032084F88450BDE893
:104D7000F883C4F88860C4F88C60E5662567002075
:104D800084F88450F3E710B5806B0021A0F85E1022
:104D9000A0F85610FEF7D0FA10BD000010B502685A
:104DA00052E8001F21F4907142E80013002BF6D165
:104DB0000E4B0268083252E8001F194042E8001406
:104DC000002CF6D1C16E012908D1026852E8001FFB
:104DD00021F0100142E80013002BF6D1002120221F
:104DE000C0F88C20C166416710BD0000FEFFFFEFD8
:104DF0002DE9F04304468068D84E87B0D84B21682F
:104E0000D4E90427D4F81CC010430A68002547EAF7
:104E10000C073843324002430A602068E268416868
:104E200021F44051114341602268A1699A4201D0A6
:104E3000206A01439768DFF82CC3CB4ECB4807EAC2
:104E40000C070F4397602168676ACA6A22F00F0255
:104E50003A43CA622268B2420ED1006800F03800BC
:104E6000182873D047DCB8B3082879D010286FD140
:104E700078E028287ED17BE0BD498A4209D10068CC
:104E800000F00700062875D2DFE800F0546A6C6E67
:104E90007072B8498A4209D1006800F007000628FC
:104EA00068D2DFE800F0475D5F616365B2498A421E
:104EB00009D1006800F0070006285BD2DFE800F0A7
:104EC0003A5052545658AD498A420BD1006800F00E
:104ED000070006284ED200E010E0DFE800F02B418A
:104EE00043454749A6498A420AD1006800F0380084
:104EF000182839D0B7DD2028BBD13CE001203AE0AA
:104F0000A0498A4209D1006800F00700062831D282
:104F1000DFE800F01026282A2C2E9B498A420BD16C
:104F2000006800F00700062824D2DFE800F003192B
:104F30001B1D1F2100201EE09A421BD18B48001D23
:104F4000006800F00700062814D202E00CE007E039
:104F500010E0DFE800F0030507090B0D02200AE06E
:104F6000042008E0082006E0102004E0202002E0F1
:104F7000402000E080208549DFF814829A42854A6B
:104F80004FF400434FEA21174FF000064ED110288E
:104F90001AD006DC022809D004280BD008287CD1BE
:104FA0000DE020283ED0402877D13DE0FCF740FCC2
:104FB000014610E06846FCF74DFC01990BE003A8A0
:104FC000FCF7EAFC049906E01068800605D5106835
:104FD000C0F3C100C140002970D0606A676838F82A
:104FE000102007EB4703B1FBF2F0834255D8B0EB3A
:104FF000073F52D8002308461946FBF7DEF9024660
:105000007808130E120243EA012110183A46714142
:105010000023FBF7D2F9604AA0F5407191423CD8D9
:1050200021688FE03946D8E71946D6E7D4F81CC086
:105030004FF6EF799C4546D1082819D005DC58B1C8
:1050400001280CD0042875D10DE0102815D0202897
:1050500035D040286ED134E0FDF766FB01E0FDF766
:1050600075FB014610E06846FCF7F4FB01990BE084
:1050700003A8FCF791FC049906E01068800604D5AB
:105080001068C0F3C100C140C1B1636A606838F8FC
:105090001330B1FBF3F1490000E04BE001EB5001AC
:1050A000B1FBF0F0A0F11001494543D84FF6F07381
:1050B0002168C0F342021840104343E043E0394600
:1050C000E3E71946E1E7082819D005DC58B10128C3
:1050D0000CD004282ED10DE0102815D020282BD07C
:1050E000402827D12AE0FDF71FFB01E0FDF72EFB4A
:1050F000014610E06846FCF7ADFB01990BE003A800
:10510000FCF74AFC049906E01068800604D5106894
:10511000C0F3C100C140B1B1636A606838F81330B0
:10512000B1FBF3F101EB5001B1FBF0F0A0F1100184
:10513000494505D9012506E03946EDE71946EBE773
:10514000216880B2C8600120A4F86A00A4F8680051
:1051500028466667A66707B0BDE8F083F369FFCF0E
:10516000000C0058FFF4FF11001001405444025895
:105170000044004000480040004C00400050004007
:105180000014014000780040007C00400090D003F3
:10519000147A029000440258FFFC0F002DE9F047FA
:1051A000994617460D460446089E4FF0000833E026
:1051B000701C31D0FCF710F8A0EB0900B04218D8F1
:1051C000BEB120680168490726D5802D24D0402D26
:1051D00022D0C169C94309070DD4082505622046BC
:1051E000FFF7DCFDC4F89050012084F88480BDE80E
:1051F000F0870320FBE7C069C04300050CD4216899
:105200004FF4006008622046FFF7C8FD2021C4F873
:10521000901084F88480ECE72068C06935EA0000CB
:1052200004D00020B842C3D00020E0E70120F9E715
:105230000148FEF783B8000060020020FEE709077E
:1052400000284FEA116104DB00F1E02080F800142F
:10525000704700F00F0000F1E02080F8141D704747
:1052600070B5002504466FF02F0608E0206805EBB6
:105270008502411C216006EB4202007885182068F7
:10528000007800F004F80028F0D1284670BD3038CE
:10529000092801D8012070470020704708484021A4
:1052A00010B501F083F90748002211211DF072FDAD
:1052B000054CA06002F0F0F90020207010BD000045
:1052C000B0050020417700908801002070B5B1F949
:1052D0000040B2F900309C4200DD23460380B1F962
:1052E0000250B2F90240A54200DD2C464480B1F9DB
:1052F0000460B2F90450AE4200DA35468580B1F957
:105300000610B2F90620914200DB1146C180AB4283
:105310004FF0010001DC8C4200DD002070BDF8B5CB
:105320000D46B1F900100446B0F900001646884257
:1053300047DBB4F90210B5F90220914241DBB4F920
:105340000410B5F9042091423BDCB4F90610B5F91C
:105350000620914235DC96B3ADF8000032466088F5
:105360006946ADF80200284600F099F8002827D0D9
:10537000A0883246ADF8000069466088ADF80200AA
:10538000284600F08CF800281AD020883246ADF864
:1053900000006946E088ADF80200284600F07FF87A
:1053A00000280DD0A0883246ADF800006946E0889C
:1053B000ADF80200284600F072F8002800D0012065
:1053C000F8BD0020F8BDB0F90020B1F904309A42D0
:1053D00013DCB0F90420B1F900309A420DDBB0F9CA
:1053E0000220B1F906309A4207DCB0F90600B1F9A3
:1053F0000210884201DB0120704700207047F8B599
:105400000D46B1F900100446B0F904001646884272
:1054100043DBB4F90600B5F9021088423DDBB4F96C
:105420000000B5F90410884237DCB4F90210B5F970
:105430000620914231DC76B3ADF800003246608838
:105440006946ADF80200284600F029F818BBA0888C
:105450003246ADF8000069466088ADF80200284683
:1054600000F01DF8B8B920883246ADF80000694652
:10547000E088ADF80200284600F011F858B9A0887D
:105480003246ADF800006946E088ADF802002846D3
:1054900000F005F808B10020F8BD0120F8BD2DE9A5
:1054A000FC410546B1F900000E461446B5F900105E
:1054B00088423ADBB5F90470B84236DCB6F902002E
:1054C000B5F90230984230DBB5F9062090422CDC69
:1054D000002C75DD781AD21A401C521C00B212B290
:1054E00000EBD07002EBD27240105210904200DB01
:1054F0001046844200DD0446ADF8001028880022E2
:1055000031462044ADF804006888ADF80200688890
:105510002044ADF806006846FFF7C1FF40B1BDF872
:1055200004002044ADF804003FE00020BDE8FC8109
:10553000E88800223146001BADF80200E888ADF88B
:1055400006006846FFF7ABFF28B1BDF80400204411
:10555000ADF8040011E0A88800223146001BADF828
:105560000000A888ADF804006846FFF798FF50B126
:10557000BDF80000001BADF80000BDF80200001BE4
:10558000ADF8020016E068880022ADF8020031464E
:1055900068882044ADF806006846FFF780FF70B1C8
:1055A000BDF80000001BADF80000BDF80600204467
:1055B000ADF80600314668461AF05AFFB6E7FFE735
:1055C0000120B3E710B5B1F90040B2F900309C42B8
:1055D00000DA23460380B1F90240B2F902309C425E
:1055E00000DA23464380B1F90440B2F904309C420A
:1055F00000DD23468380B1F90610B2F906209142FE
:1056000000DC1146C18010BD2DE9F0418AB005468D
:105610001DF05CFBA04C0026074600960DB1E86823
:1056200001E010F003FD606000691AF0CBFE6068D5
:10563000406908B11AF0C6FE6068C0691AF0C2FE7F
:105640006068006A1AF0BEFE60680169F1B31BF081
:1056500051F91BF0CBF86068B0F8501199B30168AC
:10566000097C890715D510F03FFD401E05B2606822
:1056700010F0F4FC401E009503B2002201A8114670
:105680000EF046FB606801688A6B01A9516004F066
:105690009DFA60684FF48071303016F0A3FC6068AA
:1056A000202100F5987016F09DFC6068A0F850610C
:1056B00038461DF005FB009060680068436A13B12E
:1056C00022680099984716F0DBFA00E007E000F046
:1056D0002FF900F001F9714D6F692FB13FE0A0F88B
:1056E00050610AB0BDE8F08116F0D9F815F0ECF978
:1056F000002207467F211AF0A3FD0FF089FE002249
:10570000014638461AF090FD10F026F900220146B5
:1057100038461AF0F3FD0022384603211AF0E2FD64
:105720000022384603211AF0CBFD0022384603211F
:105730001AF0CCFD0022384603211AF0CDFD0022DC
:10574000384603211AF0D4FD55A1384616F028F842
:105750000023384606211A4617F009F86F612868B9
:105760001DF0AEFA4FF4967840450CD2206841F215
:105770008831884231D96868009908446860A8680F
:10578000401CA86029E01DF0A1FA28604FF47A714E
:1057900060686A6840680068B1FBF0F00AB90121EE
:1057A0006960A968F1B14FF47A7251436A68B1FB3C
:1057B000F2F46E60AE60844200D904462869204449
:1057C0002861E868401CE8601DF016FBC0F1640326
:1057D000224634A1384616F01AF82F4D08356C6869
:1057E00014B137E00446E4E716F059F815F06CF907
:1057F000002204467F211AF023FD0FF009FE00224B
:10580000014620461AF010FD10F0A6F800220146CD
:1058100020461AF073FD0022204603211AF062FD93
:105820000022204603211AF04BFD002220460321CE
:105830001AF04CFD0022204603211AF04DFD18A15C
:10584000204615F0ADFF0023204604211A4616F02D
:105850008EFF6C6028681DF033FA40457FF641AF3B
:105860001DF034FA286002A816F09AFA049A66230A
:1058700002989DF82150801A9DF82010820A564205
:10588000CDE9001500EB8620B0FBF3F309A120461B
:1058900015F0BDFF25E70000440000201C04002097
:1058A0003F0000002575204650530A257525252008
:1058B0004350550025752E2575206B422075736564
:1058C0006420282564202525290A256425252066AD
:1058D0007261672E0000000070B50A4D5FF0000491
:1058E000C4EBC40655F8260008B116F03DFA1C2199
:1058F00005EB860016F076FB641CE4B2042CEFD3B3
:1059000070BD00008C060020084949680AE04A681A
:10591000824202D00A68824203D10A7E42F001022A
:105920000A7649690029F2D170470000180000206A
:10593000704700000148042100F038BEA405002093
:1059400001481C2100F032BEBC0500202DE9F84FB3
:105950008146DDE90A0A13B9B0F5807F7ED0BAF935
:1059600000604FF0FF350224C6F10006002B06FB55
:1059700000F605EB262636B2A9F80060BAF90270E7
:10598000C7F1000707FB00F705EB27252DB2A9F8A3
:105990000250BAF90070A1EB070101FB00F104EB22
:1059A000212109B2A9F80410BAF90270A2EB07028A
:1059B00002FB00F204EB222000B2A9F806007ED020
:1059C0000A2593FBF5F67042771C00EB800003EB91
:1059D000400430B21DF0F2FB804638B21DF0EEFB01
:1059E0005A36009030B21DF0E9FB5A37834638B280
:1059F0001DF0E4FBC4F10A01DDF800C0B9F9003084
:105A000001FB08F601FB0BF100FB04100CFB046624
:105A100090FBF5F096FBF5F1B9F90220B9F904C055
:105A20004FEA601B49110BFB03F401FB03F80BFB6E
:105A30000CF001FB0CF301FB12450BFB028601FB92
:105A400012070BFB023CB9F9062001FB124401FBD3
:105A500012010BFB02880BFB023200E022E0BAF8D5
:105A6000000000EBA52300EBA42400EBA72500EB2E
:105A7000A12118B2BAF8023024B203EBAC2703EB31
:105A8000A82C03EBA62603EBA22832B23BB22DB220
:105A900009B20FFA8CF60FFA88F7844224DAA4468A
:105AA00023E00CE00020491EA9F80410521EA9F8BA
:105AB0000620A9F80000A9F80200BDE8F88FBAF89E
:105AC00000203244A9F80020BAF802202A44A9F89C
:105AD0000220BAF800201144A9F80410BAF8021004
